:020000040800F2
:10000000D80900200512000801120008011200089A
:10001000011200080112000801120008000000008F
:1000200000000000000000000000000001120008B5
:10003000011200080000000001120008011200086F
:100040000112000801120008011200080112000844
:100050000112000801120008011200080112000834
:100060000112000801120008011200080112000824
:100070000112000801120008011200080112000814
:100080000112000801120008011200080112000804
:1000900001120008011200080112000801120008F4
:1000A00001120008011200080112000801120008E4
:1000B000F10E0008011200080112000801120008E8
:1000C00001120008290F000845100008011200085D
:1000D0005510000801120008011200080112000862
:1000E00001120008011200080112000800000000BF
:1000F0000000000000000000000000000000000000
:1001000000000000000000005FF808F110B5054C89
:10011000237833B9044B13B10448AFF300800123B3
:10012000237010BD98040020000000008891000892
:10013000084B10B51BB108490848AFF300800848C8
:10014000036803B910BD074B002BFBD0BDE810407E
:10015000184700BF000000009C04002088910008A0
:100160009404002000000000224A038890429BB2C1
:1001700012D002F5006290420ED0B0F1804F0BD049
:10018000A2F59832904207D002F58062904203D0E7
:1001900002F58062904203D14A8823F07003134332
:1001A000154A904208D002F5806290421FBF23F4A6
:1001B0004073CA889BB2134303808B8883850B8866
:1001C00003850C4B98420FD003F5006398420BD087
:1001D00003F54063984207D003F58063984203D04B
:1001E00003F58063984201D10B7A03860123838251
:1001F000704700BF002C014000100040038C30B558
:1002000023F480731B041B0C0384038C8488828B6F
:100210000D8822F073021204120C23F400731543AC
:100220001B040A891B0C43EA02234A88A4B243EA4E
:100230000223124A9BB2904203D002F50062904220
:1002400015D123F400634A899BB243EA02224FF698
:10025000FF3313408A8824F4405443EA02238A89F6
:100260009BB244EA0214CA8944EA0214A4B2CA88BE
:10027000848085838287038430BD00BF002C0140C9
:10028000038C30B523F480531B041B0C0384038CB4
:100290008488828B0D8822F4E6421204120C23F427
:1002A000005342EA05221B040D891B0C43EA053367
:1002B0004D88A4B243EA05330A4D92B2A8429BB2DC
:1002C00003D005F50065A84205D18D8924F480444A
:1002D00044EA8514A4B284808283CA88A0F84020AE
:1002E000038430BD002C0140038819B19BB243F058
:1002F000010303E023F001031B041B0C0380704780
:10030000038819B19BB243F0800303E023F080031C
:100310001B041B0C03807047838B23F008031B0412
:100320001B0C194381837047838B23F400631B04E8
:100330001B0C43EA012189B281837047C94389B20A
:1003400001827047014B1878704700BFB404002049
:1003500010B50C4B421C995C302906D120219954D0
:10036000821C9C5C302C08BF9954411D5B5C054A83
:10037000302B06D1202353540630115C302908BF9E
:10038000135410BDCA0400202DE9F843704C714D80
:1003900027462E1D4FF0000804F1010915F8013C15
:1003A0005FFA88F03A2B40F0BF8015F8023C422BF0
:1003B00054D01CD8322B00F08280332B40F0B48014
:1003C000482262724522E372A272FFF7C1FF2B78C6
:1003D00063766B78A376AB78E376337884F829304C
:1003E000737884F82A30AB7984F82B309CE0482B62
:1003F00004D0542B02D0452B40F09680237848221D
:10040000012B4FF0450313D12371E270FFF7A0FFDA
:100410002B78A3746B78E374AB782375337884F806
:100420002230737884F82330AB7984F824307BE071
:10043000A3703123E3706270FFF78AFF2B78637437
:100440006B78A374AB78E374337884F821307378D5
:1004500084F82230AB7984F8233065E02278452196
:10046000012A4FF0440214D1E37121726272FFF746
:100470006FFF2B78E3756B782376AB7863763378F0
:1004800084F82730737884F82830AB7984F82930E1
:100490004AE0A373E1732274FFF75AFF2B78A37726
:1004A0006B78E377AB7884F82030337884F82E309B
:1004B000737884F82F30AB7984F8303034E0E3710E
:1004C000237848226271012B4FF04502A27111D0AE
:1004D000FFF73EFF2B787B756B78BB75AB78FB75B0
:1004E000337887F82530737887F82630AB7987F82A
:1004F000273019E0032323702022002303F809206A
:100500000133092BFAD1144B202103F1090203F81E
:10051000011F9A42FBD1114B202103F1090203F87C
:10052000011F9A42FBD1D3E708F10108B8F1140F7B
:1005300005F1010506F101067FF430AF084A0023FA
:10054000202199540133142BFBD1BDE8F88300BF5F
:1005500000000020CB04002010000020200000201C
:10056000CA040020F8B5274B5C78ACB9264F611D52
:1005700089B2002001F0CAF92601F6B200257319EC
:10058000DBB23B445878013501F002FA102DF6D168
:100590000134032CEBD130E0012C2ED105210020B9
:1005A00001F0B4F9194C04F1100514F8010F01F031
:1005B000EFF9A542F9D10621002001F0A7F9144C6A
:1005C00004F1100514F8010F01F0E2F9AC42F9D181
:1005D0000721002001F09AF90E4C04F1100514F8DF
:1005E000010F01F0D5F9A542F9D10B4B93F8663014
:1005F000312B02BF044B03221A70084B4FF40072D8
:100600001A61F8BDB4040020000000202D05002070
:100610004105002055050020CA040020000C0140BF
:10062000204B5B782BBB03F1804303F58433986840
:100630009A6880F48060C0F3802011059A6858BFE2
:1006400040F020009B6858BF40B2D20458BF40F031
:1006500002001904144B58BF40F010009A689B68C0
:10066000120758BF40F04000D90618D460F07F0050
:1006700015E0012B12D10D4B9A6812F4806F9A6825
:1006800014BF002004209B6812055CBF40F00800E6
:1006900040B2DB0403D440F0100000E00020C0B200
:1006A000704700BFB4040020000C01400008014066
:1006B000074B5B8853B1074B7F22A3F840204FF0D4
:1006C000804213889BB243F001031380704700BF40
:1006D000B40400200004004038B5154B154C93F8C5
:1006E000FB20237902F00F056B4019071DD56379B4
:1006F000DB071AD4104B12F0080F1B780BD0012B1C
:100700000E4A4FF0C0010CBF4FF480704FF4A87038
:1007100001F08CF809E0012B4FF0C0010CBF4FF441
:1007200080704FF4A87001F0B3F8257138BD00BF98
:10073000CA040020B4040020000000205052000829
:100740002DE9FF47A34A01AB51681068A24C03C3CF
:100750001189927A19809A70A04B93F8FA509846B2
:1007600015F0010F05F07F0600F087801F214FF67E
:10077000E07001F0B5F86178002944D1984B042766
:100780000222C3F884209748C3F8847001F02AFC41
:10079000DA223946384601F05FF9DFF858820DEB6E
:1007A000070001F067F94FF40079BF2001F0F0F87D
:1007B000B32205213846C8F8109001F04DF98A4857
:1007C00001F058F9B32001F0E3F8B32206213846CE
:1007D000C8F8109001F040F9844801F04BF9B320BB
:1007E00001F0D6F8C02207213846C8F8109001F071
:1007F00033F90DEB070001F03DF9D92001F0C8F8FD
:10080000C8F810902FE001292DD1754B1022C3F8A4
:1008100084200021764801F020FB4FF01A0A4FF0A7
:1008200000091FFA89F1002001F070F8AAF11907F8
:10083000FFB27B1EDBB218F8030001372D2808BF7A
:100840000B20FFB201F0A4F8BA45F2D10AF1190A5F
:100850005FFA8AFABAF17E0F09F10109E1D1654B1D
:100860004FF400721A6100214FF6FF7001F038F862
:100870004FF4FA736380FFF71BFF5F4B1B78012B6C
:10088000637983EA06033CD198070BD5A90705D500
:100890005A4AC021102000F0C9FF03E0C0211020F7
:1008A00000F0F6FF63797340DA060BD5EB0605D549
:1008B000534AC021602000F0B9FF03E0C02160204E
:1008C00000F0E6FF637973409F060BD5A80605D5B7
:1008D0004C4AC021B02000F0A9FF03E0C021B020A5
:1008E00000F0D6FF6379734059066ED56A0604D5C9
:1008F000454AC0214FF480705FE0C0214FF4807002
:1009000061E09B070DD505F0020303F0FF002BB15A
:100910003E4AC021002000F089FF02E0C02100F023
:10092000B7FF637973405F070BD5680705D5384A71
:10093000C021402000F07AFF03E0C021402000F0F9
:10094000A7FF6379734019070BD52A0705D5314AEC
:10095000C021802000F06AFF03E0C021802000F069
:1009600097FF63797340DB060BD5EF0605D5244A64
:10097000C021D02000F05AFF03E0C021D02000F0B9
:1009800087FF6379734098060DD5A90606D51D4AE1
:10099000C0214FF4887000F049FF04E0C0214FF4FB
:1009A000887000F075FF637973405A060DD56B06A9
:1009B00006D5154AC0214FF4A87000F037FF04E0B7
:1009C000C0214FF4A87000F063FF667104B0BDE869
:1009D000F08700BF8C210008B4040020CA04002066
:1009E00000E100E000580040AE210008B9210008F5
:1009F00000380040000C0140000000205088000832
:100A000050640008505B000850520008507F0008F6
:100A100050760008506D000873B52A49902591F86A
:100A2000FB200023100902F00F020138013A95FB68
:100A3000F0F095FBF2F5C6B2EDB20133DBB2CA5C61
:100A40002C2AFAD11F4C1C4414F8010C14F8024C47
:100A50003038282C18BF303CC2B21CBF04EB8404D1
:100A600002EB44024FF6FF740B4499785B7818BF91
:100A7000D2B229291FBF303B303903EB830301EB8E
:100A8000430108BFA3F1300102FB06F014BF01F0DF
:100A9000FF01C9B269430C4B00F110025A86C1F143
:100AA000A8029A86C1F1AB0300F11302C1F1A501BE
:100AB0000D3000949BB292B289B280B200F090FEE9
:100AC00002B070BDCA040020000000200B4A92F85A
:100AD000393092F83A00202B18BF303BA0F130009B
:100AE000C0B21CBF03EB830300EB430092F8383025
:100AF00018BFC0B2312B08BF64207047CA04002061
:100B00002DE9F04186460D465D4B88B002AA03F1FF
:100B10001006144618685968083303C4B3422246C5
:100B2000F7D118689B882060A380564F0EEB4E04C7
:100B3000E400E4B2B879661C1734F6B2E4B20028D7
:100B400054D1714600F0E2FE4FF01908202008F160
:100B5000FF3800F01DFF18F0FF08F7D10521102025
:100B600000F0D4FE4FF00908202008F1FF3800F013
:100B70000FFF18F0FF08F7D10621102000F0C6FE85
:100B80004FF00908202008F1FF3800F001FF18F0AD
:100B9000FF08F7D10721102000F0B8FE4FF0090838
:100BA000202008F1FF3800F0F3FE18F0FF08F7D11D
:100BB0004046082100F0AAFE4FF01908202008F155
:100BC000FF3800F0E5FE18F0FF08F7D14046092194
:100BD00000F09CFE4FF01908202008F1FF3800F0CB
:100BE000D7FE18F0FF08F7D10123BB714FF6E0786C
:100BF000B6B2A4B23122234631461046CDF8008069
:100C000000F0EEFD3346314640F25F123220CDF85F
:100C1000008000F0E5FD2346214640F25F123220BD
:100C2000CDF8008000F0DCFD40F25F12013C01369F
:100C3000A4B22346CDF800803146104600F0D0FD26
:100C4000FB799D4218D00DD90A23B5FBF3F308A90F
:100C500001EB430333F8183C05EB450200933232B5
:100C6000234604E00023009323464FF4AF7231463D
:100C7000322000F0B5FDFD7108B0BDE8F08100BF85
:100C800098210008B4040020F8B5194E0446335CDE
:100C90000D463E2B01D0032B05D1164B0020987139
:100CA0004FF6FF7102E04FF6FF70002100F018FED2
:100CB0002946002000F02AFE002545B9335D3E2B71
:100CC00005D1202000F064FE0134A4B201250135D5
:100CD000305DEDB2671C00F05BFE182DBFB201D88D
:100CE0003C46EAE7044B4FF400721A613846F8BDFF
:100CF000CA040020B4040020000C01402DE9F84F84
:100D0000754C237A052B00F0DA8012D8032B33D0F0
:100D1000042B40F0DC80714B19785A7802EB0122E9
:100D200062809A78DB7803EB0223E381FFF7C0FC53
:100D3000CDE0E22B09D0FE2B40F0C980674B0020AC
:100D40001B78A071637000F025FD654A0023202107
:100D500099540133302BFBD1604900232020585493
:100D60000133FA2B5D4AFAD10023637182F8FA301D
:100D7000237182F8FB30AAE06378584E002B54D1DF
:100D8000337D582B01D1FFF7FFFA4FF0000845469D
:100D9000DFF848A1DFF854B1042D15D1337D202BA5
:100DA00012D03E2B10D09AF8FA302BB9FFF78EFEF6
:100DB00001462846FFF7A4FEFFF7D4FB0A25FFF7FC
:100DC000BFFCFFF789FC2BE02946002000F09EFDC8
:100DD000002708EB07091FFA89F997B916F80930B7
:100DE0003E2B09D14FF6FF713846A77100F078FD10
:100DF00020230AF8093004E039464FF6FF7000F06E
:100E00006FFD16F80900013700F0C2FD192FE0D17F
:100E100008F119084FF400731FFA88F8CBF8103066
:100E20000135ADB2092DB7D951E096F8FA5015F059
:100E3000010502D0FFF784FC49E029464FF6FF7018
:100E400000F04EFD274BB3F93630FC2B28D12F464E
:100E5000B046735D252B08D108EB05035978F8B22D
:100E60001935FFF74DFEADB210E0052F09D198F806
:100E70000030582B05D1FFF775FB0A27FFF760FC00
:100E800004E02846F9B2FFF7FFFE05460137BFB27E
:100E9000092FDED93378DA2B19D1FFF7BDFD16E023
:100EA0006089335C252B237B05D106447178184675
:100EB000FFF726FE0BE01946FFF7E6FE07E0074ABC
:100EC00011785378084A03EB01239BB293870023E0
:100ED00023702374BDE8F88FB4040020CA040020F6
:100EE000010000200000002000040040000C014030
:100EF00008B501214FF08040FFF720FA084B5A88CF
:100F000012B1013A5A8008BD4FF080410B8823F09E
:100F100001031B041B0C0B80024BA3F8402008BDEF
:100F2000B40400200004004010B53E4C204601F0FF
:100F30006EF83D4B984205D03C4B984252D0102859
:100F40006FD130E03A4A238A147CDBB2114639482B
:100F50005CB913724FF6FF72FE2BC28602D0033BC0
:100F6000022B5ED801230B7410BD117A032913D113
:100F7000B0F936104C1C08D1137303EB830303EB59
:100F8000830353810023C38610BD54898AB2511C48
:100F9000C1862949214404E0C28E2749013212B298
:100FA000C2868B5410BD224B1A7A42B10121E32A2A
:100FB000197004D103221A721E4BFC22DA86194BD7
:100FC0009A8A920702D59A8A1A8BF9E7154A938A68
:100FD000DB0606D5938A13889BB243F00103138086
:100FE000F5E710BD124B1B7A022B0DD002D8012B56
:100FF00005D010BDE02B10D0E12B10D010BDFFF7B5
:101000000FFB80B2208210BD0C4A0D49938C5BB25D
:101010000B70002191849BB202E00A2300E01923A7
:10102000238210BD005800404000020082000600EC
:10103000B404002000000020CA040020002C01405D
:10104000C6050020024A938ADBB29382704700BF34
:101050000058004038B5284A284C117CA389DBB2DF
:1010600000293BD1052B33D00AD8022B1AD002D845
:10107000012B12D038BD032B1AD0042B1BD038BD46
:10108000E22B1FD004D8E02B17D0E12B18D038BDAD
:10109000E32B19D0FE2B1BD038BDFFF7C1FA80B26D
:1010A000A08138BD164A938C91845BB29BB205E057
:1010B0001372FC230EE013720CE00A23A38138BDE7
:1010C0001923FBE7137214E003231372117410E069
:1010D0001372012313740B4BD98638BD094C0139A7
:1010E000B4F93600C9B2451CE586074C1174235487
:1010F00009B90123137038BDB40400200038004042
:10110000002C014000000020CA040020384B82B0AF
:101110001A6842F001021A605968364A0A405A6059
:101120001A6822F0847222F480321A601A6822F45B
:1011300080221A605A6822F4FE025A604FF41F029D
:101140009A600022009201921A6842F480321A607A
:101150001A6802F400320192009A01320092019A58
:101160001AB9009AB2F5A06FF2D11A6812F40032DF
:1011700018BF01220192019A012A05D01E4B4FF09F
:1011800000629A6002B070471C4A116841F0100179
:101190001160116821F003011160116841F0020132
:1011A00011605A685A605A685A605A6842F48062FC
:1011B0005A605A6822F47C125A605A6842F4E81263
:1011C0005A601A6842F080721A601968084A8901E8
:1011D000FBD5516821F003015160516841F00201D3
:1011E00051605A6802F00C02082AFAD1C6E700BF23
:1011F000001002400000FFF800ED00E00020024077
:10120000FEE7000008B50C4A0C4B0D498B4204D296
:1012100052F8040F43F8040BF8E70A480A494FF064
:1012200000028842B8BF40F8042BFADBFFF76EFFDC
:10123000BDE8084000F05CB8849100080000002080
:101240009804002098040020D4050020CA782DE9D5
:10125000F041D40648BF8C780E8802F00F0348BFD7
:10126000234316F0FF0F1ED0016800244FF0010E3B
:101270004FF00F0C0EFA04F737EA06050FD1A50060
:101280000CFA05F821EA080103FA05F5282A41EAD3
:10129000050101D1476102E0482A08BF0761013416
:1012A000082CE7D10160FF2E20D9416800244FF0BF
:1012B000010E4FF00F0C04F108050EFA05F535EAA2
:1012C00006070FD1A7000CFA07F821EA080103FA74
:1012D00007F7282A41EA070101D1456102E0482ABF
:1012E00008BF05610134082CE5D14160BDE8F081FB
:1012F00008B572B600F08CF800F0DAFB62B6FFF7C2
:1013000021F80028FBD0FFF7F9FCF8E710B5194CDD
:1013100086B001214FF4804000F0BEF92046002144
:1013200000F09BFD00232822ADF80430ADF8063014
:10133000ADF80830ADF80A30ADF80C30ADF80E302D
:10134000ADF8123001A907232046ADF81430ADF8EE
:10135000102000F063FD2046012100F07EFD0122F7
:101360006021204600F085FD034B10225A6006B034
:1013700010BD00BF0038004000E100E07FB5214C07
:1013800001214FF4800000F087F92046002100F091
:1013900029FE1D4B002500934BF6FF73ADF8063078
:1013A0004023ADF808304FF480664FF4804369461F
:1013B0002046ADF80C30ADF80450ADF80A6000F0EE
:1013C000A7FD2046012100F00DFE204601224FF42A
:1013D000007100F013FE31462046012200F00EFE9F
:1013E00001224FF48071204600F008FE074B0222D4
:1013F00083F821535A60042283F822535A6004B0C0
:1014000070BD00BF00580040A086010000E100E070
:101410002DE9F04F784C89B0FFF778FE00F038FDE9
:10142000A369764E43F00D03A3617368744D4FF0CA
:10143000100ADFF8DC9143F0007373604FF0030B88
:101440004FF470730DEB0A012846ADF81030FF27FA
:101450008DF812B08DF813A0FFF7F8FE0DEB0A011E
:1014600048464FF04808ADF81070FFF7EFFE4FF414
:10147000E0630DEB0A014846ADF810308DF813809B
:10148000FFF7E4FE4FF418430DEB0A014846ADF8B0
:1014900010304FF01809FFF7D9FE0DEB0A0128466E
:1014A000ADF81090FFF7D2FE0DEB0A0128468DF83B
:1014B0001390ADF810B0FFF7C9FE4FF470430DEB79
:1014C0000A012846ADF81030FFF7C0FE4FF4406324
:1014D000ADF810300DEB0A011C2328468DF81330AF
:1014E000FFF7B4FE20230DEB0A012846ADF81030BB
:1014F0008DF813A0FFF7AAFEA369012543F400634A
:10150000A361404B4FF000091A8B294692B242F476
:10151000704242F0F0021A831A8B022092B242F417
:10152000807242F001021A8322221A844FF6FF725F
:101530001D819A85A3F824901A8892B22A431A80B2
:10154000E36904222B43E3614FF080431A804FF498
:101550007A72A3F82880A3F824909A859D819D82B1
:10156000294B4FF080521A6000F096F873684FF4E0
:101570007A3243F400637360244BA4F503341B6890
:1015800001A9B3FBF2F32046ADF80430ADF80870C2
:10159000ADF80A90ADF80690FEF7E6FD60230DEB7E
:1015A0000A012046ADF81030ADF81890ADF8125091
:1015B000ADF81690FEF764FE20460821FEF7B4FE53
:1015C000C8230DEB0A012046ADF81630FEF716FED3
:1015D00020460821FEF7A0FE29462046FEF790FE91
:1015E00029462046FEF780FEFFF790FEFFF7C6FE75
:1015F00009B0BDE8F08F00BF0010024000000140BC
:10160000000C0140002C014000E100E03800002007
:10161000000801401C4A10B5536803F00C03042B6A
:1016200001D0082B01D0194B0EE053685168C3F369
:101630008343CC0303F1020302D55168890301D52A
:10164000134900E011494B43036053681149C3F348
:101650000313CC5C0368E34043605468C4F3022482
:101660000C5D23FA04F484605468C4F3C2240C5D56
:10167000E340C3605268C2F381320A44127CB3FB78
:10168000F2F3036110BD00BF0010024000127A00A7
:1016900000093D004C000020044BDA6909B11043F9
:1016A00001E022EA0000D861704700BF001002404C
:1016B000094B4FF080721A6102F17C5202F58432BC
:1016C000FF21516110614FF400021A6180221A61FA
:1016D0004FF480721A617047000C01402DE9F74FFA
:1016E0009B462A4C4FF00073824601912A202361C9
:1016F0009146FFF7DDFF0199254D4FF0FF080B0ADA
:10170000C5F814804FF400072B6180264FEA1B2395
:1017100027612B202661C5F8148029612761266185
:10172000C5F814802B6127612661C5F81480C5F8BF
:1017300010B027612661FFF7BBFF4FEA1A23C5F8F7
:1017400014802B614FEA192327612661C5F81480A4
:10175000C5F810A027612661C5F814802B614FF0F1
:10176000807327612661C5F81480C5F81090276141
:10177000266123612C23C5F814802B614FF48073FC
:1017800027612661236103B0BDE8F08F000C0140A2
:10179000000801400021F8B540F28F12EF23060A3D
:1017A000C4B20846FFF79AFF0A490B4A0B4BFF27C2
:1017B0004FF4000580200139576116611D611861E1
:1017C000576114611D611861F5D1044B4FF400722B
:1017D0001A61F8BD0077010000080140000C0140CB
:1017E000F8B55C1ABDF81850171A0134FFF776FFE8
:1017F0000C4A0D4B2E0A07FB0444EDB2FF274FF4B1
:101800000000802114F1FF345761166118611961DD
:101810005761156118611961F4D2034B4FF40072DE
:101820001A61F8BD00080140000C0140F8B51446EB
:1018300001F12F0300F12F029BB292B2FFF74EFF8E
:10184000104E114A114B04F5106EFF274FF400059E
:10185000802057612178413936F81110090A116149
:101860001D611861576114F8011B413916F81110F8
:10187000744511611D611861EBD1044B4FF4007286
:101880001A61F8BD5091000800080140000C0140A9
:1018900001F12F0300F12F0270B59BB292B2FFF756
:1018A0001DFF0D490D4A4FF41063FF2600254FF42C
:1018B00000048020013B9BB24E610D6114611061F8
:1018C0004E610D6114611061002BF3D1034B4FF495
:1018D00000721A6170BD00BF00080140000C014099
:1018E000064B020A1A80064BC0B21880054B0A0A42
:1018F0001A80054BC9B21980704700BFC805002087
:10190000CA050020CC050020D005002010B50446F3
:1019100001EB4101C90089B201F1170300019BB23B
:1019200080B240F28F12FFF7D9FE014B1C8010BD30
:10193000CE05002070B58CB003466C46134A02F108
:101940002806254610685168083203C5B2422C4665
:10195000F7D11068918892792860AA7103F160022A
:10196000D2B2272AA98004D80CAA134413F8D00CA9
:1019700009E003F12002D2B2062A8FBF18460CAA52
:101980009B1813F8E80C0CB070BD00BFC4510008E0
:101990002DE9F84F274A03461278012A02D1FFF7B2
:1019A000C9FF0346244A302000FB0320DFF898A03B
:1019B000224B234ADFF894B000F130098026DFF88B
:1019C0009080DFF890C008218027FF254FF40004A5
:1019D00090F800E05D6117EA0E0F0BD0B8F800E058
:1019E0001FFA8EFEC3F810E0146116615D61BCF849
:1019F00000E00AE0BAF800E01FFA8EFEC3F810E03B
:101A0000146116615D61BBF800E001391FFA8EFEBA
:101A100011F0FF01C3F810E04FEA57071461166197
:101A2000D6D101308145CAD1064A138801331380CB
:101A3000BDE8F88FB5040020C4210008000801406B
:101A4000000C0140CE050020CC050020D005002070
:101A5000C8050020CA050020182810B5144608D86B
:101A6000092906D8FFF752FF2046BDE81040FFF7CE
:101A70008FBF10BD38B5064D441E14F8010F28B1B4
:101A80002B88182B02D8FFF783FFF6E738BD00BF7D
:101A9000CE05002010B51446FFF738FF2046FFF7AB
:101AA000E9FF024B4FF400721A6110BD000C0140B7
:101AB0002DE9F04FCC4C4FF40073802623614FF496
:101AC00080784FF4800385B026610A20C4F8108026
:101AD000236100F0FBF940232361322000F0F6F986
:101AE0004FF00073C14D236164204FF0FF094FF4A4
:101AF000000B00F0EBF900274FF080732361E92021
:101B0000C5F814902F61C4F810B02661C5F8149080
:101B10002F61C4F810B02661C5F814902F61C4F885
:101B200010B02661C5F814902F61C4F810B026617A
:101B3000C4F81080FFF7BCFD2023C5F814901120D5
:101B40002B61C4F810B02661FFF7B2FD642000F0ED
:101B5000BDF9D120FFF7ACFD7123C5F814902F61BA
:101B6000C4F810B02661C5F814902B611923C4F88D
:101B700010B0D0202661C5F814902B61C4F810B0C5
:101B80002661FFF795FD4FF0010808220723C5F8ED
:101B900014903A202B61C4F810B02661C5F8149057
:101BA000C5F81080C4F810B02661C5F814902A61F9
:101BB0000392C4F810B02661FFF77AFD0523C5F83B
:101BC0001490C1202B61C4F810B02661FFF770FD9E
:101BD0004FF0020A1021C5F8149036202961C4F88C
:101BE00010B02661C5F8149029610291C4F810B0B4
:101BF0002661C5F81490C5F810A0C4F810B026618D
:101C0000C5F81490C5F810A0C4F810B02661FFF70D
:101C10004FFD4823C5F81490C0202B61C4F810B0C4
:101C20002661FFF745FD0523C5F814902B61352388
:101C3000C4F810B0C5202661C5F814902B6101933B
:101C4000C4F810B02661C5F814902F61C4F810B024
:101C50002661C5F814902F61C4F810B02661C5F84C
:101C60001490C5F81080C4F810B02661C5F814901F
:101C7000C5F810A0C4F810B02661FFF719FD0423C1
:101C8000C5F81490D2202B61C4F810B02661FFF77C
:101C90000FFD4420C5F81490C5F81080C4F810B0AA
:101CA0002661C5F814902861C4F810B0C8202661D8
:101CB000FFF7FEFC0423C5F814902B61019B6720FD
:101CC000C4F810B0039A2661C5F814902861C4F8CE
:101CD00010B02661C5F814902B610423C4F810B02D
:101CE00024202661C5F814902B610623C4F810B097
:101CF0002661C5F814902A61C4F810B02661C5F8B1
:101D000014902B610193C4F810B02661C5F81490AB
:101D10002861C4F810B037202661C5F81490C5F8C2
:101D200010800299C4F810B040232661C5F81490C1
:101D300028610320C4F810B02661C5F814902B6107
:101D4000C4F810B02661C5F814902861C4F810B02A
:101D500029202661C5F814902961C4F810B02661C5
:101D6000C5F814902A61C4F810B02661C5F8149023
:101D70002E61C4F810B02661C5F814902F61C4F824
:101D800010B02661FFF794FC2C20FFF791FC4FF474
:101D9000007323613846164CFFF7FCFC1F214FF6F9
:101DA000E070FFF79DFD224639463846FFF772FE88
:101DB000414638460F4AFFF76DFE224651463846E7
:101DC000FFF768FE39464FF6FF70FFF789FD38468A
:101DD000094A0421FFF75EFE019B084A18460521C7
:101DE00005B0BDE8F04F0BE0000C014000080140D9
:101DF000F35100080D520008275200084152000814
:101E0000FFF748BE044B04281A680CBF42F00402D6
:101E100022F004021A60704710E000E003880A888C
:101E200010B503F441544B8813438A881343CA887E
:101E300013430A8913434A8913438A891343CA897E
:101E4000134323439BB20380838B23F400631B045F
:101E50001B0C83830B8A038210BD038819B19BB2CC
:101E600043F0400303E023F040031B041B0C0380FA
:101E700070470123090903FA01F1838889B29BB2F3
:101E80000AB1194301E023EA010181807047000093
:101E90007FB501A8FFF7BEFB6FF00400FFF7B2FFAC
:101EA000002000F0D7F8029B064A0749B3FBF2F284
:101EB0000A704FF4FA52B3FBF2F34B8007B05DF8AF
:101EC00004FB00BF00127A00C604002008B50F4BC7
:101ED0005B8858436FF07F439842A8BF184600F0D4
:101EE0009FF8002000F0A2F8012000F09FF81020D9
:101EF00000F0BCF80128FAD16FF0010000F096F86C
:101F0000BDE80840002000F091B800BFC6040020E2
:101F100070B586B00446868801A80D46FFF77AFBA7
:101F2000039A2E4826F03F06B2FBF0F03604360C3A
:101F300081B20E43A6802388294E23F001031B049F
:101F40001B0C23802B68B3420AD85B00B2FBF3F36F
:101F500001319BB2032B89B298BF0423218423E073
:101F60004BF6FF71EE888E421BBF19214B4303EBEA
:101F70004303B2FBF3F30BBFB2FBF3F39BB29BB291
:101F800043F48043C3F30B020AB943F001034FF457
:101F9000967101FB00F24FF47A7192FBF1F201327B
:101FA00092B243F400432284A3832388A9889BB27E
:101FB00043F00103238023886A8923F4816323F09B
:101FC00002031B040A431B0C13439BB22380AA8900
:101FD0002B8913439BB2238106B070BD40420F0092
:101FE000A0860100038819B19BB243F0010303E00E
:101FF00023F001031B041B0C0380704783889BB2F2
:102000000AB1194301E023EA010181807047838A04
:10201000008B9BB243EA004020F07F4070470000F5
:10202000014B5860704700BF10E000E00128084BEA
:1020300003D11A6842F0010204E0023004D11A68A8
:1020400022F001021A60704700229A60704700BFB8
:1020500010E000E0044B1A6810B142F0020201E007
:1020600022F002021A60704710E000E0C308022B61
:10207000044B0CBF1B68DB6823FA00F000F0010082
:10208000704700BF10E000E0024B13B1024800F0BF
:1020900005B8704700000000A92000080023014691
:1020A0001A46184600F014B838B5074D074C2C1BDB
:1020B000A41005D0013C55F8043D9847002CF9D1F7
:1020C000BDE8384000F05CB8940400209004002083
:1020D0002DE9F047254C064625688846D5F8484145
:1020E00092469946C4B360681F2817DC411C76B13C
:1020F00004EB8003C3F888A0D4F888510122824001
:102100001543022EC4F88851C3F808911ED0831CD1
:102110006160002044F82380BDE8F087144B03B3CE
:102120004FF4C870AFF300800446D0B1D5F8483101
:10213000002784E888003846C5F848410121C4F8E2
:102140008871C4F88C71002EE1D0D1E7D4F88C31BD
:102150001A43C4F88C21DAE705F5A674C5F848419E
:10216000C1E74FF0FF30BDE8F08700BF8491000861
:1021700000000000F8B500BFF8BC08BC9E467047E0
:10218000F8B500BFF8BC08BC9E467047C4C4C4C4C0
:10219000C4C4C4C4C4C4000000FCC0FC80FD40FE34
:1021A00020FFE0FFE0CFE097E067E037E007202086
:1021B000204F70656E202020002048617264776196
:1021C0007265200000000000000000000000000018
:1021D00000000000000000000000000000000000FF
:1021E00000000000000000000000000000000000EF
:1021F000000000000000000000000000000000E0FF
:102200000003F800031800060C00060C00060C0082
:1022100003180003F80000E00000000000000000C8
:10222000000000000000C00000C00000C001FFFC72
:1022300003FFFC0700C00600C00600C00600D80669
:10224000003C0200660000C30000C30000660000FE
:102250003C000018000000000000000800000C0016
:10226000000E00000F00000F80000FC0000FE00004
:102270000FC0000F80000F00000E00000C000008CF
:1022800000000000000E0007DF8001D1E001C06007
:1022900003403003403006001806001806001806F8
:1022A00000180300B00300B00180E001E2E0007E0E
:1022B000F8001C000FFFF80FFFB80FFFB80EDBB8D7
:1022C0000EDBB80EDBB80EDBB80EDBF80EDB800ED3
:1022D000DB800EDB800EDB800EDB800FFF800FFFCC
:1022E000800FFF8000000000000000300000780038
:1022F00000FC0002FE0002FF00037F8001FFC0031C
:102300007F8002FF0002FE0000FC00007800003029
:1023100000000000001E00007F8000E1C00180601E
:10232000030030030030060018061818063C180693
:10233000661803C33003013001806000E1C0007FF4
:1023400080001E00000000000000000000000000EF
:10235000000000000000000000FFFFFFFFFFFF0083
:10236000000000000000000000000000000000006D
:1023700000000000001800001800001800001800FD
:10238000001800001800001800FFF800FFF8000017
:10239000000000000000000000000000000000003D
:1023A000000000000000000000000000000000002D
:1023B000000000000000000000001FFF001FFF00E1
:1023C000180000180000180000180000180000187D
:1023D0000000180000180000180000180000180085
:1023E0000018000018000018000018000018000075
:1023F000180000180000180000180000180000184D
:1024000000001800000000000000000000000000B4
:10241000001F00063F800671C00660C01FE0C01F9D
:10242000E0C00660C00671C0063F80001F000000CB
:10243000000000000000000000000000000000009C
:102440000000003800003C00001FFFF00000E0002A
:102450000380000700001E000000000000000000D4
:102460000000000000000000000000000038000034
:102470003C00001FFFF0000630000630000318008B
:1024800003180003180E018C0F018C07FFFC0000DD
:1024900000000000000000001000001000027C801E
:1024A00001C7000101000301800200800E00E0026C
:1024B000008003018001010001C700027C80001040
:1024C000000010000000000000000000003FFFF8C6
:1024D0001FFFF00FFFE007FFC003FF8001FF0000B8
:1024E000FE00007C0000380000100000000000002A
:1024F00000000000000000000000000000001000CC
:10250000003800007C0000FE0001FF0003FF800790
:10251000FFC00FFFE01FFFF03FFFF80000000000CA
:1025200000000000000000000000000000000000AB
:1025300000000008001010000830000C7FFFFE3083
:10254000000C10000808001000000000000000004F
:10255000000000000000000000000000000000007B
:102560000000000E7FFE0E7FFE0000000000000055
:1025700000000E7FFE0E7FFE000000000000000045
:10258000000000000000000000000000000000F853
:102590000001FC0003060002020002020FFFFE0F12
:1025A000FFFE0000020000020FFFFE0FFFFE000012
:1025B000000000000000000000000000000000001B
:1025C0000418000C3C0018666018C3F019C3981F6B
:1025D000C298066618003C30001820000000000079
:1025E000000000000000000000000000000F0000DC
:1025F0000F00000F00000F00000F00000F00000F81
:1026000000000F00000F00000F00000F000000008E
:1026100000000000000000000000000000000000BA
:102620000000004200104400084C000C5FFFFE4C0C
:10263000000C4400084200100000000000000000F0
:10264000000000000000000000000000000000008A
:1026500000000000001000000800000C7FFFFE00DA
:10266000000C000008000010000000000000000046
:10267000000000000000000000000000000000005A
:102680000000000800001000003000007FFFFE3056
:102690000000100000080000000000000000000022
:1026A0000000000000000000000000000000080022
:1026B00000080000080000080000080000080000F2
:1026C0000800004900003E00001C00000800000057
:1026D00000000000000000000000000000000800F2
:1026E000001C00003E000049000008000008000037
:1026F00008000008000008000008000008000000B2
:102700000000000000000000000000000001FFF0D9
:1027100001000001000001000001000001000001B3
:1027200000000100000100000100000100000000A5
:102730000000000000000000000000000000080091
:10274000001C00002A00000800000800000800002B
:102750000800000800002A00001C0000080000001B
:10276000000000000000000000001C00001F8000AE
:102770001FF0001FFE001FFFC01FFFF81FFFC01F3C
:10278000FC001FF0001F80001C0000000000000083
:10279000000000000000000000000000380001F808
:1027A000000FF8007FF803FFF81FFFF803FFF800A1
:1027B0007FF8000FF80001F800003800000000006A
:1027C0000000000000000000000000000000000009
:1027D00000000000000000000000000000000000F9
:1027E00000000000000000000000000000000000E9
:1027F00000000000000000000000000000000000D9
:102800000000000000000003F0067FF8067FF800DB
:1028100003F00000000000000000000000000000C5
:1028200000000000000000000000000000000300A5
:102830000001F80000F8000038000000000000006F
:1028400003000001F80000F800003800000000005C
:10285000000000000000000000000021000721002F
:1028600003F900003FC00021F800211806210007ED
:10287000F100007F800023F80021180021000000F3
:10288000000000000000000000000180800383F0D1
:102890000707F0060618060C181FFFFE1FFFFE06AE
:1028A0000C1806181803183003F07001E0400000FF
:1028B000000000000000C00003F004061806040831
:1028C00003840800E6180073F0001CC000CE00036B
:1028D000F3800619C004087004083806180803F0CD
:1028E0000000C00000000000C00003F0000338003A
:1028F000070DE00607F0061E18063A1806E318034F
:10290000C1B80380F003F860063C00060C00060026
:1029100000000000000000000000000000000000B7
:102920000000000000000003000001F80000F800B3
:10293000003800000000000000000000000000005F
:102940000000000000000000000000000000000087
:1029500000000001FF8007FFE01F00F838001C6046
:10296000000640000200000000000000000000001F
:102970000000000000000000000000000000000057
:1029800000000040000270000E38001C1F00F80715
:10299000FFE001FF800000000000000000000000D8
:1029A0000000000000000000000000000000000027
:1029B000000300003300003A00000FC0000FC00009
:1029C0003A00003300000300000000000000000097
:1029D00000000000000000000000000C00000C00DF
:1029E000000C00000C00000C0001FFE001FFE00003
:1029F0000C00000C00000C00000C00000C0000009B
:102A000000000000000000000000000000000000C6
:102A10000000006000003F00001F000007000000F1
:102A200000000000000000000000000000000000A6
:102A300000000000000000000000000000000C008A
:102A4000000C00000C00000C00000C00000C00004A
:102A50000C00000C00000C00000C00000000000046
:102A60000000000000000000000000000000000066
:102A70000000000000000700000700000700000041
:102A80000000000000000000000000000000000046
:102A9000000000000000000000000000000C00002A
:102AA0000F000003C00000F000003C00000F000019
:102AB00003C00000F000003C00000C00000000001B
:102AC00000000000000000000000007F8001FFE027
:102AD00003C0F003C030067018063C18060F180635
:102AE00003980300F003C0F001FFE0007F800000C6
:102AF000000000000000000000000000000600C010
:102B00000600C006006006006006003007FFF807F8
:102B1000FFF80600000600000600000600000000A6
:102B2000000000000000000000000000000700E0BE
:102B30000780F007C03006E018067018063818063F
:102B40001C18060E380607F00603E000000000001F
:102B50000000000000000000000000000001806094
:102B6000038070070038060C18060C18060C1806AF
:102B70000C18071E3803FBF001F1E00040000000D4
:102B80000000000000000000000000C00000F00095
:102B900000F80000CE0000C70000C1C000C0E00087
:102BA000C03807FFF807FFF800C00000C0000000B1
:102BB00000000000000000000000000000018FF88D
:102BC000038FF8070C1806061806061806061806DE
:102BD0000618070E1803FC1801F818002000000062
:102BE0000000000000000000000000000000FF8066
:102BF00001FFE0038C700706380606180606180663
:102C00000618070E3803FC7001F860000000000091
:102C1000000000000000000000000000000000189C
:102C200000001800001807C01807F818003E180028
:102C30000F980001D80000F80000380000000000E4
:102C40000000000000000000000000000001F1E0B2
:102C500003FBF0071E38060C18060C18060C1806A5
:102C60000C18071E3803FBF001F1E0000000000023
:102C7000000000000000000000000000000187E0EC
:102C8000038FF0071C3806181806181806181807BE
:102C90000818038C3001FFF000FFC00000000000A6
:102CA0000000000000000000000000000000000024
:102CB00000000000000000000000E1C000E1C000D2
:102CC000E1C0000000000000000000000000000063
:102CD00000000000000000000000000000000000F4
:102CE0000000000000000C000007E1C003E1C0008C
:102CF000E1C0000000000000000000000000000033
:102D000000000000000000000000000C00001E0099
:102D1000001E00003300003300002100006180002D
:102D2000618000C0C000C0C0018060018060000000
:102D300000000000000000000000006180006180D1
:102D4000006180006180006180006180006180001E
:102D5000618000618000618000618000618000000E
:102D600000000000000000000000018060018060A1
:102D700000C0C000C0C00061800061800021000070
:102D80003300003300001E00001E00000C00000095
:102D9000000000000000000000000000C00000E093
:102DA000000070000038064018067018003818003F
:102DB0001C18000E380007F00003E00000000000BF
:102DC0000000000000000000FE000383800E00E011
:102DD00018FC3031FF0823018C22004421004421DB
:102DE000E0C411FF0C12038803003001C0E0007F33
:102DF0008000000000000004000007800003F000D5
:102E000000FE00007FC00061F00060380060380004
:102E100061F0007FC000FE0003F0000780000400A6
:102E20000000000000000000000000000007FFF8A4
:102E300007FFF8060C18060C18060C18060C1806E6
:102E40000C18060E38031BF003F1E001E00000004F
:102E500000000000000000000000007F8001FFE093
:102E600003C0F003003007003806001806001806FB
:102E7000001807003803807001C0E00080000000E7
:102E80000000000000000000000000000007FFF844
:102E900007FFF806001806001806001806001807B5
:102EA000003803807001E1E000FFC0003F00000037
:102EB0000000000000000000000000000007FFF814
:102EC00007FFF8060C18060C18060C18060C180656
:102ED0000C18060C18060C18060C1806000000004A
:102EE0000000000000000000000000000007FFF8E4
:102EF00007FFF8000C18000C18000C18000C180044
:102F00000C18000C18000C18000C18000000000031
:102F100000000000000000000000003F0000FFE093
:102F200003E1F003803007001806001806001806B9
:102F300018180618380398F003F8E000F8000000AD
:102F40000000000000000000000000000007FFF883
:102F500007FFF8000C00000C00000C00000C000043
:102F60000C00000C0007FFF807FFF800000000004D
:102F70000000000000000000000000000006001833
:102F800006001806001806001807FFF807FFF806E5
:102F900000180600180600180600180000000000BF
:102FA0000000000000000000000000000000C00061
:102FB00003C000078000060000060018060018077E
:102FC000001803FFF801FFF80000000000000000F7
:102FD0000000000000000000000000000007FFF8F3
:102FE00007FFF8001C00000E00000F00003F8000EB
:102FF00079E000E07003C0380700180600080400FC
:1030000000000000000000000000000000000000C0
:1030100007FFF807FFF8060000060000060000069C
:103020000000060000060000060000060000000088
:103030000000000000000000000007FFF807FFF894
:103040000000380001F0000F80003C00003C000050
:103050000F800001F000003807FFF807FFF80000BC
:103060000000000000000000000000000007FFF862
:1030700007FFF80000F80003E0000F00007C0001EB
:10308000F00007800007FFF807FFF80000000000CD
:1030900000000000000000000000003F0001FFE011
:1030A00003FFF00300380600180600180600180693
:1030B000001803003003FFF001FFE0003F000000B4
:1030C0000000000000000000000000000007FFF802
:1030D00007FFF80018180018180018180018180032
:1030E0001818001C38000E700007F00003C0000024
:1030F00000000000000000000000003F0001FFE0B1
:1031000003FFF00700380600180E00181E00183ED6
:10311000001877003063FFF061FFE0603F000000BF
:103120000000000000000000000000000007FFF8A1
:1031300007FFF800181800181800181800181800D1
:10314000781801EC1803CE300707F00403C0000024
:103150000000000000000000000000C00003C3E009
:103160000383F0070638060618060C18060C180626
:103170000C18071C3803B87003F86000E00000006A
:10318000000000000000000000000000180000180F
:1031900000001800001800001807FFF807FFF800EB
:1031A00000180000180000180000180000180000A7
:1031B0000000000000000000000000000001FFF817
:1031C00003FFF807000006000006000006000006E6
:1031D000000007000003FFF801FFF80000000000F6
:1031E000000000000000000000080000780003F864
:1031F000000FC0007E0003F000078000078000037E
:10320000F000007E00000FC00003F800007800000E
:1032100008000000000038001FF800FFE007F00081
:1032200007800007C00000FC00000F00000F000036
:10323000FC0007C00007800007F00000FFE0001F4F
:10324000F800003800000000000006000807003801
:1032500003C07800E1E0007B80001F00001F000039
:103260007B8000E1E003C07807003806000800001A
:1032700000000000000000000000000018000078BE
:103280000000F00003C000070007FE0007FE00007A
:1032900007000003C00000F00000780000180000E4
:1032A0000000000000000000000007000007801878
:1032B00007C01806F018063818061C18060F18065E
:1032C00003980601D80600F806003806001800002A
:1032D00000000000000000000000000000000000EE
:1032E0000000000000007FFFFE7FFFFE6000066020
:1032F00000066000066000060000000000000000FC
:103300000000000000000000000000000000000CB1
:1033100000003C0000F00003C0000F00003C000073
:10332000F00003C0000F00000C00000000000000CF
:10333000000000000000000000000000000000008D
:103340006000066000066000066000067FFFFE7FEA
:10335000FFFE000000000000000000000000000070
:1033600000000000000000000000003000003C00F1
:10337000000F000003C00000F0000038000038001B
:1033800000F00003C0000F00003C0000300000000F
:1033900000000000000000180000180000180000E5
:1033A000180000180000180000180000180000188D
:1033B0000000180000180000180000180000180095
:1033C00000000000000000000000000000000000FD
:1033D00000000000000000001C00007C0000FC0059
:1033E000018000000000000000000000000000005C
:1033F0000000000000000000000000C00003F10019
:1034000007F1800638C00618C00618C00218C003AD
:1034100018C001FF8007FF800700000600000000C1
:103420000000000000000000000000000007FFFC9A
:1034300007FFFC0183000301800600C00600C006F0
:1034400000C00701C003FF8001FF00000000000072
:103450000000000000000000000000100001FF005C
:1034600003FF800301800600C00600C00600C006FE
:1034700000C00701C003838001830000000000003A
:103480000000000000000000000000000001FF003C
:1034900003FF800701C00600C00600C00600C0038D
:1034A000018001830007FFFC07FFFC000000000013
:1034B0000000000000000000000000000001FF000C
:1034C00003FF800319C00618C00618C00618C006FE
:1034D00018C00719C0039F80019F00000000000072
:1034E00000000000000000000000000180000180DA
:1034F00000018000018007FFF007FFF800019C0039
:10350000018C00018C00018C00018C00000800007F
:103510000000000000000000000000000001FF00AB
:1035200063FF80E701C0C600C0C600C0C600C0C3BC
:103530000180E183007FFFC01FFFC000000000008A
:103540000000000000000000000000000007FFFC79
:1035500007FFFC0003000001800000C00000C00065
:1035600000C00001C007FF8007FF0000000000004E
:103570000000000000000000000000000006000045
:103580000600C00600C00600C00600C007FFCC074A
:10359000FFCC060000060000060000060000000048
:1035A000000000000000000000002000006000009B
:1035B0006000C06000C06000C06000C07800C03F14
:1035C000FFCC0FFFCC000000000000000000000056
:1035D00000000000000000000000000000000000EB
:1035E00007FFFC07FFFC003800001C00007E000005
:1035F000E70003C1800700C0060040000000000093
:1036000000000000000000000000000000000000BA
:1036100000000C00000C00000C01FFFC03FFFC0785
:103620000000060000060000060000060000000082
:103630000000000000000000000007FFC007FFC0FE
:103640000001800000C00000C007FFC007FF0000AD
:1036500001800000C00001C007FFC007FF0000009C
:103660000000000000000000000000000007FFC094
:1036700007FFC00003000001800000C00000C00080
:1036800000C00001C007FF8007FF0000000000002D
:103690000000000000000000000000000001FF002A
:1036A00003FF800701C00600C00600C00600C00678
:1036B00000C00701C003FF8001FF00000000000000
:1036C00000000000000000000000000000FFFFC03C
:1036D000FFFFC00183000301800600C00600C00692
:1036E00000C00701C003FF8001FF000000000000D0
:1036F0000000000000000000000000000001FF00CA
:1037000003FF800701C00600C00600C00600C0031A
:103710000180018300FFFFC0FFFFC0000000000028
:103720000000000000000000000000000000000099
:1037300007FFC007FFC0000E000003800001C000AB
:1037400000C00000C00000C00000C0000000000079
:1037500000000000000000000000000000018600E2
:10376000038F80071DC00618C00618C00618C006C3
:1037700030C00630C003F18001E10000000000000D
:10378000000000000000000000000000C00000C0B9
:103790000000C001FFFC03FFFC0700C00600C006DC
:1037A00000C00600C00600C00200000000000000CB
:1037B0000000000000000000000000000001FFC049
:1037C00003FFC0070000060000060000060000031B
:1037D000000001800007FFC007FFC00000000000DC
:1037E000000000000000000000000000C00007C052
:1037F000001F8000FC0007E00007000007800003B6
:10380000F00000FC00001F800003C00000C00000AA
:10381000000000000000000000C0003FC007FF8063
:1038200007800007C00000F800001C00001C00001A
:10383000F80007800007C00007FF80003FC00000BD
:10384000C00000000000000000000400000600C0EE
:103850000701C001C38000EE00003C00003C0000F6
:10386000EE0001C3800701C00600C0040000000094
:10387000000000000000000000000000C0C003C005
:10388000C01F80E07C0073E0003F80000F00000359
:10389000E000007C00001F800003C00000C00000AA
:1038A000000000000000000000000000000700C051
:1038B0000780C006C0C00660C00638C0061CC0062F
:1038C0000EC00607C00601C00600C00000000000D0
:1038D00000000000000000000000000000001800D0
:1038E000001800001800007E003FE7FC7FC3FE6068
:1038F0000006600006600006600006000000000090
:1039000000000000000000000000000000000000B7
:103910000000000000000000007FFFFE7FFFFE00AF
:103920000000000000000000000000000000000097
:103930000000000000000000000000000060000621
:103940006000066000066000067FC3FE3FE7FC00E3
:103950007E00003C0000180000180000000000007D
:1039600000000000000000001800000C000006002D
:10397000000600000600000600000C00000C00001D
:103980001800001800001800001800000C000006C5
:103990000000000000000000000000000007FFF829
:1039A00004000804000804000804000804000804D7
:1039B000000804000804000807FFF80000000000E9
:1039C0000000000000000004000007800003F00079
:1039D00000FE00007FC00061F00060380060380029
:1039E00061F0007FC000FE0003F0000780000400CB
:1039F0000000000000000000000000000007FFF8C9
:103A000007FFF8060C18060C18060C18060C18060A
:103A10000C18060C18071C1803F81801F000000019
:103A20000000000000000000000000000007FFF898
:103A300007FFF8060C18060C18060C18060C1806DA
:103A40000C18060E38031BF003F1E001E000000043
:103A50000000000000000000000000000000000066
:103A600007FFF807FFF80000180000180000180012
:103A700000180000180000180000180000180000CE
:103A8000000000000000003E00003E000007800033
:103A900007F000067FE0060FF8060018060018067B
:103AA000001806001807FFF807FFF83E00003E0068
:103AB0000000000000000000000000000007FFF808
:103AC00007FFF8060C18060C18060C18060C18064A
:103AD0000C18060C18060C18060C1806000000003E
:103AE0000000000004000006000807803801E1F033
:103AF000007B80001E00000C0007FFF807FFF800A5
:103B00000C00001E00007B8001E1F00780380600F9
:103B10000804000000000000000000804001C0E038
:103B2000038070070038060C18060C18060C1806DF
:103B30000C18071E3803BBF003F3E000E0000000A0
:103B40000000000000000000000000000007FFF877
:103B500007FFF807800001F000003C00000F0000A4
:103B600003E000007807FFF807FFF80000000000FE
:103B70000000000000000000000000000007FFF847
:103B800007FFF907800301F006003C06000F06005E
:103B900003E600007B07FFF907FFF80000000000C4
:103BA0000000000000000000000000000007FFF817
:103BB00007FFF8000C00000C00000E00003F0000A2
:103BC00073C001E0E00380780700180400080000DB
:103BD0000000000000000006000006000007800052
:103BE00003FC0000FFF8000FF800001800001800A8
:103BF000001800001800001807FFF807FFF8000081
:103C00000000000000000000000007FFF807FFF8B8
:103C10000000380001F0000F80003C00003C000074
:103C20000F800001F000003807FFF807FFF80000E0
:103C30000000000000000000000000000007FFF886
:103C400007FFF8000C00000C00000C00000C000046
:103C50000C00000C0007FFF807FFF8000000000050
:103C600000000000000000000000003F0001FFE035
:103C700003FFF003003806001806001806001806B7
:103C8000001803003003FFF001FFE0003F000000D8
:103C90000000000000000000000000000007FFF826
:103CA00007FFF800001800001800001800001800B6
:103CB000001800001807FFF807FFF80000000000D8
:103CC0000000000000000000000000000007FFF8F6
:103CD00007FFF80018180018180018180018180026
:103CE0001818001C38000FF00007F00003C0000097
:103CF00000000000000000000000007F8001FFE0E5
:103D000003C0F0030030070038060018060018064C
:103D1000001807003803807001C0E0008000000038
:103D20000000000000000000000000001800001863
:103D300000001800001800001807FFF807FFF8003F
:103D400000180000180000180000180000180000FB
:103D500000000000000000000000030018060078CA
:103D60000601F00707C0038F0001FC00007000008F
:103D70001C00000F000003C00000F000003800002D
:103D800008000000000000001F00003F800071C01C
:103D900000E0E000C06000C06007FFF807FFF80027
:103DA000C06000C06000E0E00071C0003F80001F04
:103DB00000000000000000000000060008070038B6
:103DC00003C07800E1E0007B80001F00001F0000BE
:103DD0007B8000E1E003C07807003806000800009F
:103DE0000000000000000000000007FFF807FFF8D7
:103DF000060000060000060000060000060000069F
:103E0000000006000007FFF807FFF83E00003E0034
:103E100000000000000000000000000FF8001FF884
:103E2000003800003000003000003000003000009A
:103E3000300000100007FFF807FFF8000000000046
:103E40000000000000000000000007FFF807FFF876
:103E500006000006000006000007FFF807FFF8064E
:103E6000000006000006000007FFF807FFF800004A
:103E70000000000000000007FFF807FFF806000040
:103E800006000006000007FFF807FFF8060000061E
:103E9000000006000007FFF807FFF83E00003E00A4
:103EA00000000000000000000018000018000018CA
:103EB00000001807FFF807FFF8060C00060C0006C4
:103EC0000C00060C00071C0003F80001F0000000C5
:103ED0000000000000000000000007FFF807FFF8E6
:103EE000060C00060C00060C00060C00031C000368
:103EF000F80001F00000000000000007FFF807FFD5
:103F0000F800000000000000000000000007FFF8BB
:103F100007FFF8060C00060C00060C00060C000655
:103F20000C00060C00071C0003F80001F000000064
:103F30000000000000000000000000C00001C0E020
:103F4000038070070038060018060C18060C1806C7
:103F50000C18030C3003CCF001FFE0007F80000060
:103F60000000000000000000000007FFF807FFF855
:103F7000000C00000C0001FFE003FFF00700380612
:103F8000001806001807003803FFF000FFE00000EB
:103F9000000000000000000000000403E00607F03D
:103FA000078E3801EC18007C18001C18000C180053
:103FB0000C18000C1807FFF807FFF80000000000BD
:103FC0000000000000000000000000C00003F1003D
:103FD00007F1800638C00618C00618C00218C003D2
:103FE00018C001FF8007FF800700000600000000E6
:103FF00000000000000000000000007F0000FFC083
:1040000003C6F003033806019806018C06018C06EE
:10401000018C07038C03CF0601FE06007800000028
:104020000000000000000000000000000007FFC0CA
:1040300007FFC00618C00618C00618C00618C0063C
:1040400018C0073DC003F78003E700000000000030
:104050000000000000000000000000000000000060
:1040600007FFC007FFC00000C00000C00000C00084
:1040700000C00000C00000C00000C0000000000040
:10408000000000000000003E00003E00000780002D
:1040900007F800067FC00607C00600C00600C0067D
:1040A00000C007FFC007FFC03E00003E0000000048
:1040B0000000000000000000000000000001FF0000
:1040C00003FF800319C00618C00618C00618C006F2
:1040D00018C00719C0039F80019F00000000000066
:1040E000000000000000000400400700C003C18081
:1040F00000F700003E0000180007FFC007FFC000E7
:104100001800003E0000F70003C3800700C0040051
:1041100040000000000000000000000000018300DB
:104120000383800701C00618C00618C00618C00621
:1041300018C0073DC003E78001E300000000000055
:104140000000000000000000000000000007FFC0A9
:1041500007FFC007000001C000007000001C000045
:1041600007000001C007FFC007FFC00000000000FB
:104170000000000000000000000000000007FFC079
:1041800007FFCC07001C01C030007030001C30005D
:1041900007300001DC07FFCC07FFC0000000000073
:1041A0000000000000000000000000000007FFC049
:1041B00007FFC007FFC0003000003000007800009B
:1041C000FE0003C7800701C00600C0000000000019
:1041D0000000000000000006000006000007C0000C
:1041E00003FF00007FC00001C00000C00000C0004D
:1041F00000C00000C007FFC007FFC00000000000B3
:104200000000000000000000000007FFC007FFC022
:104210000003C0001F8001F80007C00007800001F4
:10422000F800001F000003C007FFC007FFC0000028
:104230000000000000000000000000000007FFC0B8
:1042400007FFC00018000018000018000018000048
:10425000180000180007FFC007FFC00000000000A2
:104260000000000000000000000000100001FF003E
:1042700003FF800701C00600C00600C00600C0069C
:1042800000C00701C003FF8001FF00000000000024
:104290000000000000000000000000000007FFC058
:1042A00007FFC00000C00000C00000C00000C00048
:1042B00000C00000C007FFC007FFC00000000000F2
:1042C00000000000000000422110000000088442AD
:1042D00008844200000042211000000008844200CF
:1042E000000042211000000000000008844242212A
:1042F000100000004221100884424221100884422C
:104300004AA55242211008844242211008844242A8
:1043100021100884424AA5524221100884424221B9
:1043200010088442FFFFFF9DCEE7F77BBD9DCEE7DF
:10433000FFFFFFF77BBD9DCEE7F77BBD9DCEE7F787
:104340007BBD9DCEE7FFFFFFF77BBD9DCEE7F77BF3
:10435000BDFFFFFF000000000000000000000000A3
:10436000000000000000000000FFFFFFFFFFFF0053
:10437000000000000000000000000000000000003D
:1043800000000000001800001800001800001800CD
:10439000001800001800001800FFFFFFFFFFFF00DB
:1043A000000000000000000000000000000000000D
:1043B0000000000000660000660000660000660065
:1043C000006600006600006600FFFFFFFFFFFF00C1
:1043D00000000000000000000000000000000000DD
:1043E000000000000018000018000018000018006D
:1043F000001800FFFFFFFFFFFF000000000000FFAC
:10440000FFFFFFFFFF0000000000000000000000B1
:10441000000000000018000018000018000018003C
:10442000001800FFF800FFF800001800001800FF57
:10443000F800FFF80000000000000000000000008D
:1044400000000000006600006600006600006600D4
:10445000006600006600006600FFFE00FFFE000030
:10446000000000000000000000000000000000004C
:1044700000000000006600006600006600006600A4
:10448000006600FFE7FFFFE7FF000000000000FFFD
:10449000FFFFFFFFFF000000000000000000000021
:1044A000000000000000000000000000000000000C
:1044B000000000FFFFFFFFFFFF000000000000FF03
:1044C000FFFFFFFFFF0000000000000000000000F1
:1044D0000000000000660000660000660000660044
:1044E000006600FFE600FFE600000600000600FF91
:1044F000FE00FFFE000000000000000000000000C1
:104500000000000000660000660000660000660013
:104510000066000067FF0067FF00600000600000A9
:104520007FFF007FFF00000000000000000000008F
:10453000000000000018000018000018000018001B
:10454000001800001FFF001FFF00180000180000E7
:104550001FFF001FFF00000000000000000000001F
:1045600000000000006600006600006600006600B3
:10457000006600006600006600007FFF007FFF000D
:10458000000000000000000000000000000000002B
:1045900000000000001800001800001800001800BB
:1045A000001800001800001800FFF800FFF80000D5
:1045B00000000000000000000000000000000000FB
:1045C00000000000000000000000000000000000EB
:1045D000000000000000000000001FFF001FFF009F
:1045E000180000180000180000180000180000183B
:1045F0000000180000180000180000180000180043
:10460000001800001800001800001FFF001FFF0026
:10461000180000180000180000180000180000180A
:104620000000180000180000180000180000180012
:10463000001800001800001800FFF800FFF8000044
:1046400018000018000018000018000018000018DA
:104650000000180000000000000000000000000042
:10466000000000000000000000FFFFFFFFFFFF0050
:1046700018000018000018000018000018000018AA
:1046800000001800001800001800001800001800B2
:1046900000180000180000180000180000180000A2
:1046A000180000180000180000180000180000187A
:1046B0000000180000180000180000180000180082
:1046C000001800001800001800FFFFFFFFFFFF00A8
:1046D000180000180000180000180000180000184A
:1046E00000001800000000000000000000000000B2
:1046F000000000000000000000FFFFFFFFFFFF00C0
:104700006600006600006600006600006600006645
:104710000000660000000000000000000000000033
:10472000000000FFFFFFFFFFFF000000000000FF90
:10473000FFFFFFFFFF00180000180000180000181E
:104740000000180000000000000000000000000051
:10475000000000007FFF007FFF006000006000009D
:1047600067FF0067FF0066000066000066000066E5
:1047700000006600000000000000000000000000D3
:10478000000000FFFE00FFFE00000600000600FF24
:10479000E600FFE6000066000066000066000066B6
:1047A000000066000066000066000066000066000B
:1047B0000066000067FF0067FF0060000060000007
:1047C00067FF0067FF006600006600006600006685
:1047D00000006600006600006600006600006600DB
:1047E000006600FFE600FFE600000600000600FF8E
:1047F000E600FFE600006600006600006600006656
:104800000000660000000000000000000000000042
:10481000000000FFFFFFFFFFFF000000000000FF9F
:10482000E7FFFFE7FF006600006600006600006625
:10483000000066000066000066000066000066007A
:10484000006600006600006600006600006600006A
:1048500066000066000066000066000066000066F4
:10486000000066000066000066000066000066004A
:10487000006600FFE7FFFFE7FF000000000000FF09
:10488000E7FFFFE7FF0066000066000066000066C5
:10489000000066000066000066000066000066001A
:1048A0000066000066000066000067FF0067FF000A
:1048B0006600006600006600006600006600006694
:1048C0000000660000180000180000180000180022
:1048D000001800001FFF001FFF0018000018000054
:1048E0001FFF001FFF00180000180000180000182C
:1048F0000000180000660000660000660000660008
:10490000006600006600006600FFE600FFE60000AB
:104910006600006600006600006600006600006633
:1049200000006600001800001800001800001800C1
:10493000001800FFF800FFF800001800001800FF42
:10494000F800FFF800001800001800001800001818
:10495000000018000000000000000000000000003F
:10496000000000001FFF001FFF00180000180000DB
:104970001FFF001FFF00180000180000180000189B
:10498000000018000000000000000000000000000F
:10499000000000000000000000007FFF007FFF001B
:1049A00066000066000066000066000066000066A3
:1049B0000000660000000000000000000000000091
:1049C000000000000000000000FFFE00FFFE0000ED
:1049D0006600006600006600006600006600006673
:1049E0000000660000000000000000000000000061
:1049F000000000FFF800FFF800001800001800FF9A
:104A0000F800FFF800001800001800001800001857
:104A1000000018000018000018000018000018001E
:104A2000001800FFFFFFFFFFFF001800001800FF45
:104A3000FFFFFFFFFF00180000180000180000181B
:104A400000001800006600006600006600006600B6
:104A5000006600006600006600FFFFFFFFFFFF002A
:104A600066000066000066000066000066000066E2
:104A70000000660000180000180000180000180070
:104A8000001800001800001800001FFF001FFF00A2
:104A90000000000000000000000000000000000016
:104AA0000000000000000000000000000000000006
:104AB000000000000000000000FFF800FFF8000008
:104AC0001800001800001800001800001800001856
:104AD00000001800FFFFFFFFFFFFFFFFFFFFFFFFCA
:104AE000FFFFFFFFFFFFFFFFFFFFFFFFFFFFFFFFD6
:104AF000FFFFFFFFFFFFFFFFFFFFFFFFFFFFFFFFC6
:104B0000FFFFFFFFFFF000FFF000FFF000FFF000ED
:104B1000FFF000FFF000FFF000FFF000FFF000FFEB
:104B2000F000FFF000FFF000FFF000FFF000FFF0EA
:104B300000FFF000FFFFFFFFFFFFFFFFFFFFFFFF92
:104B4000FFFFFFFFFFFFFFFFFFFFFFFF0000000071
:104B50000000000000000000000000000000000055
:104B60000000000000000000000000000000000045
:104B7000000000000000000000000000FFFFFFFF39
:104B8000FFFFFFFFFFFFFFFFFFFFFFFFFFFFFFFF35
:104B9000FFFFFFFF000FFF000FFF000FFF000FFFE1
:104BA000000FFF000FFF000FFF000FFF000FFF00BF
:104BB0000FFF000FFF000FFF000FFF000FFF000FA0
:104BC000FF000FFF0000000000000000007FFFC09A
:104BD0007FFFC00183000301800600C00600C006FD
:104BE00000C00701C003FF8001FF000000000000BB
:104BF0000000000000000000000000100001FF00A5
:104C000003FF800301800600C00600C00600C00646
:104C100000C00701C0038380018300000000000082
:104C2000000000000000000000000000C00000C004
:104C30000000C00000C00000C007FFC007FFC000A8
:104C400000C00000C00000C00000C00000C00000A4
:104C5000000000000000000000000000C06003C071
:104C6000601F80607C0073E0003F80000F00000345
:104C7000E000007C00001F800003C00000C00000B6
:104C80000000000000000000000000FE0001FF0026
:104C90000383800701C00600C07FFFFC7FFFFC0686
:104CA00000C00701C003838001FF8000FE000000F8
:104CB000000000000000000000000400000600C02A
:104CC0000701C001C38000EE00003C00003C000072
:104CD000EE0001C3800701C00600C0040000000010
:104CE0000000000000000000000007FFC007FFC038
:104CF0000600000600000600000600000600000690
:104D0000000007FFC007FFC03E00003E000000009B
:104D100000000000000000000000000000001FC0B4
:104D2000003FC000300000300000300000300000C4
:104D3000100000180007FFC007FFC00000000000BF
:104D40000000000000000000000007FFC007FFC0D7
:104D500006000006000006000007FFC007FFC006AF
:104D6000000006000006000007FFC007FFC00000AB
:104D70000000000000000007FFC007FFC0060000A1
:104D800006000006000007FFC007FFC0060000067F
:104D9000000006000007FFC007FFC03E00003E0005
:104DA000000000000000000000C00000C00000C0C3
:104DB0000000C007FFC007FFC00618000618000665
:104DC000180006180007380003F00001E00000009A
:104DD0000000000000000000000007FFC007FFC047
:104DE00006180006180006180006180003F800034D
:104DF000F00000C00000000007FFC007FFC0000077
:104E00000000000000000000000000000007FFC0DC
:104E100007FFC0061800061800061800061800064E
:104E2000180007380003F00001E000000000000057
:104E3000000000000000000000000082000183006C
:104E40000383800701C00600C00618C00618C0060C
:104E500018C003198003FF8000FE0000000000005E
:104E60000000000000000000000007FFC007FFC0B6
:104E700000180000180001FF0003FF800701C006B2
:104E800000C00600C00701C003FF8001FF00000052
:104E900000000000000000000000040000060F00F9
:104EA000079F8001F9C000F0C00030C00030C00092
:104EB00030C00030C007FFC007FFC0000000000086
:104EC0000000000000000000000000000007FFF8E4
:104ED00007FFF8060C1B060C1B060C18060C180620
:104EE0000C1B060C1B060C18060C18060000000014
:104EF0000000000000000000000000000001FF00B2
:104F000003FF800319CC0618CC0618C00618C0068B
:104F100018CC0719CC039F80019F000000000000FF
:104F200000000000000000000000007F8001FFE0A2
:104F300003CCF0030C30070C38060C18060C1806CE
:104F4000001807003803807001C0E00080000000F6
:104F50000000000000000000000000000000FE0053
:104F600003FF800319800618C00618C00618C00683
:104F700000C00701C003838001830000800000009F
:104F80000000000000000000000000000006001803
:104F900006001806001B06001B07FFF807FFF806AF
:104FA000001B06001B060018060018000000000089
:104FB00000000000000000000000000000060000EB
:104FC0000600CC0600CC0600C00600C007FFCC07D8
:104FD000FFCC0600000600000600000600000000EE
:104FE0000000000000000000000007001806007824
:104FF0000601F10607C3038F0601FC0600700600D8
:105000001C060007830001E1000078000018000082
:10501000000000000000000000000000C06003C0AD
:10502000601F8C607C1C73E0303F80300F003003C9
:10503000E030007C1C001F8C0003C00000C000009A
:10504000000000000000000000000000000000E080
:105050000003F800031800060C00060C00060C0004
:1050600003180003F80000E000000000000000004A
:105070000000000000000000000000000000000030
:10508000000000000000000000003C00003C0000A8
:105090000000000000000000000000000000000010
:1050A0000000000000000000000000000000000000
:1050B000000000000000000000003C00003C000078
:1050C00000000000000000000000000000000000E0
:1050D00000000000000000000400000400001C00AC
:1050E00000F0000780001C00001F000001F000001D
:1050F0003E000007C000007C00000F00000100001F
:105100000100000107FFF807FFF80000380007F072
:1051100000FFC003F80007000007FFF807FFF800D2
:105120000000009F0000B18000A08000B180009FBF
:105130000000000000000000000000000000DEC0D1
:1051400000FFC000618000C0C000C0C000C0C0003F
:10515000C0C000618000FFC000DEC0000000000091
:105160000000000000000000000003FFC003FFC0BB
:1051700003FFC003FFC003FFC003FFC003FFC00362
:10518000FFC003FFC003FFC003FFC003FFC0000058
:10519000000000000000000000000000000000000F
:1051A00000000000000000000000000000000000FF
:1051B00000000000000000000000000000000000EF
:1051C000000000008183F0868788898B8F939497F5
:1051D000989A9B9D9E9FA1A2A3F1A6A7A8A9AAAB5E
:1051E000ACADAFE2E7E8EAEBECEDEEEF849699A424
:1051F000E4E6E9202020202020202020202020205C
:1052000020202020202020202020202000202020BE
:105210002054465420474C434420416461707465D7
:105220007220202020200020202057616974696EA0
:105230006720666F72207072696E7465722020201C
:1052400000636F6E6E656374696F6E2E2E2E0000A4
:1052500049494949494949494949494949494949BE
:1052600049494949494949494949494949494949AE
:10527000494949494949494949494949494949499E
:10528000494949494949494949494949494949498E
:1054C0004949494949494949494949414141414174
:1054D000414149494949494949494949494949494C
:1054E000494949494949494949494949494949492C
:1054F0004949494949494949494141414141414154
:10550000414141414949494949494949494949492B
:1055100049494949494949494949494949494949FB
:10552000494949494949494941414141414141412B
:105530004141414141494949494949494949494903
:1055400049494949494949494949494949494949CB
:1055500049494949494949414141414149494949E3
:1055600049414141414149494949494949494949D3
:10557000494949494949494949494949494949499B
:1055800049494949494941414141494949494949AB
:1055900049494941414141414141414141414141E3
:1055A00041414141414141494949494949494949A3
:1055B0004949494949414141414949494A4A4A4A77
:1055C0004A494949414141414141414141414141AA
:1055D0004141414141414141414949494949494983
:1055E00049494949494141414949494A4A4A4A4A3E
:1055F0004A4A494949414141414141414141414171
:10560000414141414141414141414949494949495A
:10561000494949494141414149494A4A4A4A4A4A14
:105620004A4A4A49494949494949494949494949E7
:1056300049494949494949414141414949494949FA
:105640004949494941414149494A4A4A4A4A4A4ADB
:105650004A4A4A4A494949494949494949494949B6
:1056600049494949494949494141414949494949C2
:105670004949494941414149494A4A4A4A4A4A4AAB
:105680004A4A4A4A4A4A4A4A4A4A4A4A4A4A49497C
:105690004949494949494949494141414949494992
:1056A0004949494941414149494A4A4A4A4A4A4A7B
:1056B0004A4A4A4A4A4A4A4A4A4A4A4A4A4A49494C
:1056C0004949494949494949494141414949494962
:1056D0004949494941414149494A4A4A4A4A4A4A4B
:1056E0004A4A4A4A4A4A4A4A4A4A4A4A4A4A49491C
:1056F0004949494949494949494141414949494932
:105700004949494941414149494A4A4A4A4A4A4A1A
:105710004A4A4A4A494949494949494949494949F5
:105720004949494949494949414141494949494901
:10573000494949494141414149494A4A4A4A4A4AF3
:105740004A4A4A49494949494949494949494949C6
:1057500049494949494949414141414949494949D9
:1057600049494949494141414949494A4A4A4A4ABC
:105770004A4A4949494141414141414141414141EF
:1057800041414141414141414141494949494949D9
:105790004949494949414141414949494A4A4A4A95
:1057A0004A494949414141414141414141414141C8
:1057B00041414141414141414149494949494949A1
:1057C0004949494949494141414149494949494969
:1057D00049494941414141414141414141414141A1
:1057E0004141414141414149494949494949494961
:1057F0004949494949494941414141414949494941
:105800004941414141414949494949494949494930
:1058100049494949494949494949494949494949F8
:105820004949494949494949414141414141414128
:105830004141414141494949494949494949494900
:1058400049494949494949494949494949494949C8
:1058500049494949494949494941414141414141F0
:1058600041414141494949494941414949414149E8
:1058700049414149494141494949494949494949B8
:1058800049494949494949494949494141414141B0
:1058900041414949494949494941414949414149A8
:1058A0004941414949414149494949494949494988
:1058B0004949494949494949494949494949494958
:1058C0004949494949494949494141494941414968
:1058D0004941414949414149494949494949494958
:1058E0004949494949494949494949494949494928
:1058F0004949494949494949494141494941414938
:105900004941414949414149494949494949494927
:1059100049494949494949494949494949494949F7
:105920004949494949494949494141494941414907
:1059300049414149494141494949494949494949F7
:1059400049494949494949494949494949494949C7
:1059500049494949494949494949494949494949B7
:1059600049494949494949494949494949494949A7
:105970004949494949494949494949494949494997
:105B90005151515151515146444141414144465165
:105BA00051515151515151515151515151515151E5
:105BB00051515151515151515151515151515151D5
:105BC000515151515151464141414141414141445D
:105BD00051515151515151515151515151515151B5
:105BE00051515151515151515151515146444451CA
:105BF0005151515151464141414141414141414140
:105C00005151515151515151515151515151515184
:105C100051515151515151515151514641414146BA
:105C2000515151514641414141414141414141411F
:105C30005151515151515151515151515151515154
:105C4000515151515151515151514641414141449C
:105C500051515151444141414141414141414144EE
:105C60005151515151515151515151515151515124
:105C7000515151515151515151464141414141417F
:105C800046515151414141414141414141414146CA
:105C900051515151515151515151515151515151F4
:105CA0005151515151515151514441414141414151
:105CB000445151514141414141414141414144518E
:105CC00051515151515151515151515151515151C4
:105CD000515151515151515146414141414141412F
:105CE0004151515141414141414141414144515151
:105CF0005146444141414444465151515151515101
:105D00005151515151515151444141414141414100
:105D10004146515141414141414141414146515129
:105D200044414141414141414446515151515151F8
:105D300051515151515151464141414141414141DE
:105D400041445151414141414141414144515144FA
:105D500041414141414141414141465151515151DE
:105D600051515151515151464141414141414141AE
:105D700041415151444141414141414146514441D8
:105D800041414141414141414141414651515151BE
:105D9000515151515151514641414141414141417E
:105DA00041414451444141414141414451514141AA
:105DB000414141414141414141414141465151519E
:105DC0005151515151515151444141414141414140
:105DD0004141415146414141414141465141414189
:105DE0004141414141414141414141414451515170
:105DF000515151515151515146414141414141410E
:105E0000414141464641414141414146464141416E
:105E1000414141414141414141414141445151513F
:105E200051515151515151515144414141414141CF
:105E30004141414446414141414144464141414142
:105E400041414141414141414141414451515151FF
:105E500051514441414451515151444141414141C9
:105E60004141414144444141414144444141414116
:105E700041414141414141414444465151515151B7
:105E800051464141414144465151514441414141B2
:105E900041414141414441414141444141414141EC
:105EA0004141414141444446515151515151515157
:105EB000514441414141414144465151464441418F
:105EC0004141414141494949494949414141414192
:105ED00041414144465151515151515151515151FA
:105EE0005141414141414141414144465151464462
:105EF0004141414149494A4A4A4A4949414141414E
:105F0000414451515151515151515151515151519E
:105F10005141414141414141414141414144464654
