:020000040800F2
:1000000090090020210900081D0900081D090008A9
:100010001D0900081D0900081D0900080000000056
:100020000000000000000000000000001D090008A2
:100030001D090008000000001D0900081D09000836
:100040001D0900081D0900081D0900081D090008F8
:100050001D0900081D0900081D0900081D090008E8
:100060001D0900081D0900081D0900081D090008D8
:100070001D0900081D0900081D0900081D090008C8
:100080001D0900081D0900081D0900081D090008B8
:100090001D0900081D0900081D0900081D090008A8
:1000A0001D0900081D0900081D0900081D09000898
:1000B0001D0900081D0900081D0900081D09000888
:1000C0001D0900081D0900081D0900081D09000878
:1000D000950700081D0900081D0900081D090008F2
:1000E0001D0900081D0900081D0900080000000086
:1000F0000000000000000000000000000000000000
:1001000000000000000000005FF808F110B5054C89
:10011000237833B9044B13B10448AFF300800123B3
:10012000237010BD9004002000000000988D00088E
:10013000084B10B51BB108490848AFF300800848C8
:10014000036803B910BD074B002BFBD0BDE810407E
:10015000184700BF0000000094040020988D00089C
:100160008C04002000000000224A038890429BB2C9
:1001700012D002F5006290420ED0B0F1804F0BD049
:10018000A2F59832904207D002F58062904203D0E7
:1001900002F58062904203D14A8823F07003134332
:1001A000154A904208D002F5806290421FBF23F4A6
:1001B0004073CA889BB2134303808B8883850B8866
:1001C00003850C4B98420FD003F5006398420BD087
:1001D00003F54063984207D003F58063984203D04B
:1001E00003F58063984201D10B7A03860123838251
:1001F000704700BF002C014000100040038C30B558
:1002000023F480731B041B0C0384038C8488828B6F
:100210000D8822F073021204120C23F400731543AC
:100220001B040A891B0C43EA02234A88A4B243EA4E
:100230000223124A9BB2904203D002F50062904220
:1002400015D123F400634A899BB243EA02224FF698
:10025000FF3313408A8824F4405443EA02238A89F6
:100260009BB244EA0214CA8944EA0214A4B2CA88BE
:10027000848085838287038430BD00BF002C0140C9
:10028000038C30B523F480531B041B0C0384038CB4
:100290008488828B0D8822F4E6421204120C23F427
:1002A000005342EA05221B040D891B0C43EA053367
:1002B0004D88A4B243EA05330A4D92B2A8429BB2DC
:1002C00003D005F50065A84205D18D8924F480444A
:1002D00044EA8514A4B284808283CA88A0F84020AE
:1002E000038430BD002C0140038819B19BB243F058
:1002F000010303E023F001031B041B0C0380704780
:10030000038819B19BB243F0800303E023F080031C
:100310001B041B0C03807047838B23F008031B0412
:100320001B0C194381837047838B23F400631B04E8
:100330001B0C43EA012189B281837047014B187875
:10034000704700BFAC04002010B50E4B421C1A448D
:100350005178302907D120215170821C1A445478D9
:10036000302C08BF5170421D13445A78302A08D1EE
:1003700020225A70034B063018444378302B08BFB4
:10038000427010BDAC0400202DE9F843264D274CE7
:10039000A84600264FF04809452715F8013BF0B262
:1003A0003A2B34D115F8023C452B1CD017D8422BE0
:1003B0002DD1A37144232372E771FFF7C5FF2B787A
:1003C000A3756B78E375AB7823762B7984F82630A8
:1003D0006B7984F82730AB7984F8283017E0482B04
:1003E00001D0542B13D184F80290E770FFF7ACFFD3
:1003F0002B7863746B78A374AB78E3742B7984F8EF
:1004000021306B7984F82230AB7984F823300136BF
:10041000142EC2D10023202208F803200133142B0C
:10042000FAD1BDE8F88300BFAD0400200000002031
:100430002DE9F041104B5B7D582B1AD1DFF840803D
:100440000E4F0024611D89B2002000F04FFD2601EF
:10045000F6B200257319DBB218F80300013500F07D
:1004600059FD102DF6D101344FF40073032C3B617C
:10047000E8D1BDE8F08100BFAC040020000C0140D1
:1004800000000020074B986803F580639B6880F4A8
:100490008060C0F380201B055CBF40F0200040B2AC
:1004A000704700BF0008014038B50E4B93F8CA10E2
:1004B00093F8CB2001F00F056A4012F0080F1C469C
:1004C0000DD00B0706D5084AC0214FF4807000F00C
:1004D000A3FC04E0C0214FF4807000F0C9FC84F854
:1004E000CB5038BDAC040020924500082DE9F04106
:1004F000564A86B01068516803AB03C3544D118946
:10050000927A95F8C94019809A700020514A0421C6
:1005100000F086FDE00704F03F064CD51F214FF6A2
:10052000E07000F0CDFC04210846C02200F04CFD34
:10053000494F03A800F056FD4FF40078D92000F091
:10054000E9FCB3220521C7F81080042000F03CFD2F
:10055000424800F047FDB32000F0DCFCB322062146
:10056000C7F81080042000F02FFD3D4800F03AFD50
:10057000B32000F0CFFCDA220721C7F81080042056
:1005800000F022FD03A800F02DFDBF2000F0C2FC0A
:10059000C7F8108000214FF6FF7000F091FCA7F51E
:1005A00084377F23A7F840304FF4967000F0E2FEC6
:1005B0000023A7F8403095F8CC307340990711D547
:1005C00004F0020303F0FF022BB1264AC0211020E1
:1005D00000F022FC06E00092EF233F22C021102011
:1005E00000F0F4FB95F8CC307340DA0611D504F036
:1005F000100303F0FF022BB11B4AC021602000F062
:100600000BFC06E00092EF238F22C021602000F057
:10061000DDFB95F8CC3073409B0611D504F0200427
:1006200004F0FF032CB1114AC021B02000F0F4FB0C
:1006300006E00093DF22EF23C021B02000F0C6FBCC
:1006400085F8CC6006B0BDE8F08100BF2415000835
:10065000AC0400202F150008000C014044150008D0
:100660004F150008927B0008926900089257000815
:100670002DE9F84F434B002493F8CD201C70052A38
:10068000984679D0FE2A02D0032A78D11CE0204671
:1006900000F076FB20463C4B2022C254013030282B
:1006A000FBD100222020374B591C50540132C82A5C
:1006B000F9D1002283F8CC2083F8C92083F8CB201D
:1006C00083F8CA20BDE8F88F5B7D582B01D1FFF776
:1006D0005BFE00263446DFF8B8A04FF02009042C5A
:1006E0000DD198F81530202B09D03E2B07D0FFF7FD
:1006F000FDFE0A24FFF7D8FEFFF79AFE27E0214609
:10070000002000F0F3FB00257719BFB295B908EB84
:10071000070B9BF801303E2B07D14FF6FF7128469F
:1007200000F0CEFB8BF8019004E029464FF6FF70F5
:1007300000F0C6FB47447878013500F0EBFB142D40
:10074000E2D114364FF40073B6B2CAF81030013457
:10075000A4B2092CC3D998F8CE200C4B42B17F2209
:10076000A3F84020074B002283F8CE20BDE8F88F85
:10077000A3F84020BDE8F88F5A78044B9A87BDE86B
:10078000F88F00BFAC0400200000002000040040EF
:10079000000C014010B5214B214CB3F8D010A289B8
:1007A000D2B261BB032A1AD004D8012A08D0022A87
:1007B0000BD010BD052A1AD015D3FE2A0CD010BDBF
:1007C000FFF760FE80B2A08110BD164A938C918421
:1007D0005BB29BB2A38110BD83F8CD201BE083F8F0
:1007E000CD20CA2206E0012283F8CE2010BD83F876
:1007F000CD200122A3F8D020A3F8D21010BDB3F869
:10080000D2000139441C89B21844A3F8D240427086
:10081000A3F8D01009B901221A7010BDAC04002051
:1008200000380040002C0140384B82B01A6842F07A
:1008300001021A605968364A0A405A601A6822F062
:10084000847222F480321A601A6822F480221A60BC
:100850005A6822F4FE025A604FF41F029A60002286
:10086000009201921A6842F480321A601A6802F407
:1008700000320192009A01320092019A1AB9009A4C
:10088000B2F5A06FF2D11A6812F4003218BF01223B
:100890000192019A012A05D01E4B4FF000629A6026
:1008A00002B070471C4A116841F0100111601168D4
:1008B00021F003011160116841F0020111605A68D2
:1008C0005A605A685A605A6842F480625A605A689C
:1008D00022F47C125A605A6842F4E8125A601A688C
:1008E00042F080721A601968084A8901FBD5516884
:1008F00021F003015160516841F0020151605A68D2
:1009000002F00C02082AFAD1C6E700BF001002402C
:100910000000FFF800ED00E000200240FEE70000CC
:1009200008B50C4A0C4B0D498B4204D252F8040F07
:1009300043F8040BF8E70A480A494FF000028842DE
:10094000B8BF40F8042BFADBFFF76EFFBDE80840A4
:1009500000F05CB8948D0008000000209004002096
:100960009004002090050020CA782DE9F041D406BB
:1009700048BF8C780E8802F00F0348BF234316F05F
:10098000FF0F1ED0016800244FF0010E4FF00F0C36
:100990000EFA04F737EA06050FD1A5000CFA05F8A0
:1009A00021EA080103FA05F5282A41EA050101D1E7
:1009B000476102E0482A08BF07610134082CE7D1EB
:1009C0000160FF2E20D9416800244FF0010E4FF046
:1009D0000F0C04F108050EFA05F535EA06070FD1EC
:1009E000A7000CFA07F821EA080103FA07F7282AFA
:1009F00041EA070101D1456102E0482A08BF0561CB
:100A00000134082CE5D14160BDE8F08108B572B62B
:100A100000F042F800F00CFB62B6FFF78FFC0028F4
:100A2000FBD0FFF725FEF8E710B5194C86B0012181
:100A30004FF4804000F034F92046002100F061FCC2
:100A400000232822ADF80430ADF80630ADF80830A8
:100A5000ADF80A30ADF80C30ADF80E30ADF812300C
:100A600001A907232046ADF81430ADF8102000F09E
:100A700029FC2046012100F044FC0122602120468F
:100A800000F04BFC034B10225A6006B010BD00BFB3
:100A90000038004000E100E02DE9F043584D89B0F6
:100AA000FFF7C2FE00F048FCAB69564C43F00D0363
:100AB000AB616368544F43F0007363604FF470732D
:100AC000ADF81030DFF8509110230DEB03014FF01B
:100AD000030838468DF81330FF268DF81280FFF793
:100AE00043FF04A94846ADF81060FFF73DFF4FF4FF
:100AF000E063ADF8103004A9482348468DF8133060
:100B0000FFF732FF4FF4006304A93846ADF8103008
:100B1000FFF72AFF182304A938468DF81330ADF8E3
:100B20001080FFF721FF4FF4704304A93846ADF859
:100B30001030FFF719FFAB69002743F40063AB6186
:100B4000324B01251A8B294692B242F4704242F090
:100B5000F0021A831A8B022092B242F4807242F0A1
:100B600001021A8322221A844FF6FF721D819A8590
:100B70009F841A8892B22A431A8000F091F8636821
:100B8000234A43F400636360224BA4F57C441B6852
:100B900001A9B3FBF2F32046ADF80430ADF80860CC
:100BA000ADF80A70ADF80670FFF7DEFA602304A90D
:100BB0002046ADF81030ADF81870ADF81250ADF811
:100BC0001670FFF75DFB20460821FFF7ADFBC82339
:100BD00004A92046ADF81630FFF710FB2046082187
:100BE000FFF79AFB29462046FFF78AFB2946204655
:100BF000FFF77AFBFFF718FF09B0BDE8F08300BFED
:100C00000010024000000140000C0140002C014097
:100C100090D0030030000020000801401C4A10B5AD
:100C2000536803F00C03042B01D0082B01D0194B9F
:100C30000EE053685168C3F38343CC0303F102030E
:100C400002D55168890301D5134900E011494B438E
:100C5000036053681149C3F30313CC5C0368E3409A
:100C600043605468C4F302240C5D23FA04F48460E6
:100C70005468C4F3C2240C5DE340C3605268C2F3FD
:100C800081320A44127CB3FBF2F3036110BD00BF52
:100C90000010024000127A0000093D0044000020CC
:100CA000044BDA6909B1104301E022EA0000D8617F
:100CB000704700BF00100240114B4FF0807270B5BA
:100CC0001A6102F17C5202F58432FF26002456613B
:100CD0004FF40005146180241D611C615661106190
:100CE0004FF480701D611C611861080AC9B2566119
:100CF00010611D611C61566111611D611C6170BD37
:100D0000000C01402DE9F04190460F461D46064675
:100D10001A4C4FF00073236101465220FFF7CCFFBD
:100D200041465320FFF7C8FF39465020FFF7C4FF64
:100D300029465120FFF7C0FF31462120FFF7BCFFB5
:100D400029462020FFF7B8FF4FF08073236103F19D
:100D50007C5303F58433FF20002258614FF40001D7
:100D60001A618022216122615861222018614FF4AA
:100D70008073216122612361BDE8F081000C014094
:100D80000021F8B540F23F12EF23060AC4B208462C
:100D9000FFF7B8FF0B4A0C4B4FF49631FF274FF487
:100DA000000580200139576116611D611861576186
:100DB00014611D611861F5D1034B4FF400721A6183
:100DC000F8BD00BF00080140000C0140F8B55C1AF6
:100DD000BDF81850171A0134FFF794FF0C4A0D4B59
:100DE0002E0A07FB0444EDB2FF274FF400008021D8
:100DF00014F1FF345761166118611961576115616B
:100E000018611961F4D2034B4FF400721A61F8BDF6
:100E100000080140000C0140F8B5144601F12F0311
:100E200000F12F029BB292B2FFF76CFF0E4A0F4BFC
:100E300004F59057FF264FF40005802034F8021B7C
:100E400056614FEA112EBC42C9B2C2F810E01D61D2
:100E50001861566111611D611861EFD1034B4FF4A8
:100E600000721A61F8BD00BF00080140000C01408B
:100E700001F12F0300F12F0270B59BB292B2FFF780
:100E800041FF0D490D4A4FF41063FF2600254FF432
:100E900000048020013B9BB24E610D611461106122
:100EA0004E610D6114611061002BF3D1034B4FF4BF
:100EB00000721A6170BD00BF00080140000C0140C3
:100EC000064B020A1A80064BC0B21880054B0A0A6C
:100ED0001A80054BC9B21980704700BF84050020F5
:100EE00086050020880500208C05002010B50446EA
:100EF00001EB4101C90089B201F1170300019BB266
:100F000080B240F23F12FFF7FDFE014B1C8010BD86
:100F10008A050020244B302202FB00302DE9F04FDF
:100F2000224B00EB0209DFF890A0214ADFF88CB0D9
:100F30008026DFF88C80DFF88CC008218027FF2511
:100F40004FF4000490F800E05D6117EA0E0F0BD03B
:100F5000B8F800E01FFA8EFEC3F810E014611661C5
:100F60005D61BCF800E00AE0BAF800E01FFA8EFE0E
:100F7000C3F810E0146116615D61BBF800E001394F
:100F80001FFA8EFE11F0FF01C3F810E04FEA570779
:100F900014611661D6D101308145CAD1054A138842
:100FA00001331380BDE8F08F92150008000801405E
:100FB000000C01408A050020880500208C050020D7
:100FC0008405002086050020132810B5144608D893
:100FD000092906D8FFF78AFF2046BDE81040FFF731
:100FE00099BF10BD38B5064D441E14F8010F28B145
:100FF0002B88132B02D8FFF78DFFF6E738BD00BF13
:101000008A05002010B51446FFF770FF2046FFF751
:10101000E9FF024B4FF400721A6110BD000C014051
:10102000132803D8092901D8FFF7ECBF7047000047
:101030002DE9F041984D80264FF400774FF48078E9
:101040004FF480032F610A202E61C5F810802B61B8
:1010500000F090F940232B61322000F08BF94FF023
:1010600000732B61642000F085F94FF080732B61D1
:1010700003F17C5303F584334FF400020024FF2175
:10108000596102201C612A612E6159611C612A612B
:101090002E6159611C612A612E6159611C613946BA
:1010A0002A612E61C5F81080FFF706FE4146012037
:1010B000FFF702FE4FF481510320FFF7FDFD4FF4CF
:1010C0001C516020FFF7F8FD21460420FFF7F4FDD6
:1010D00040F207210820FFF7EFFD21460920FFF726
:1010E000EBFD21460A20FFF7E7FD21460C20FFF724
:1010F000E3FD21460D20FFF7DFFD21460F20FFF71E
:10110000DBFD21461020FFF7D7FD07211120FFF757
:10111000D3FD21461220FFF7CFFD21461320FFF714
:10112000CBFD01210720FFF7C7FDC82000F022F901
:1011300041F290611020FFF7BFFD40F227211120FE
:10114000FFF7BAFD322000F015F90D211220FFF74C
:10115000B3FD322000F00EF94FF490511320FFF749
:10116000ABFD0A212920FFF7A7FD0D212B20FFF75A
:10117000A3FD322000F0FEF821462020FFF79CFD61
:1011800021462120FFF798FD21463020FFF794FDEE
:1011900040F204413120FFF78FFD03213220FFF799
:1011A0008BFD40F205413520FFF786FD40F6080132
:1011B0003620FFF781FD40F207413720FFF77CFD25
:1011C00040F203313820FFF777FD40F207713920F4
:1011D000FFF772FD40F204513C20FFF76DFD40F631
:1011E00008013D20FFF768FD01216120FFF764FD44
:1011F00021466A20FFF760FD21463046FFF75CFD7F
:1012000021468120FFF758FD21468220FFF754FD3B
:1012100021468320FFF750FD21468420FFF74CFD37
:1012200021468520FFF748FD10219020FFF744FD5F
:1012300021469220FFF740FD40F233110720FFF7CF
:101240003BFD2F612046154DFFF79AFD1F214FF6FC
:10125000E070FFF735FE2A4621462046FFF7D2FE12
:1012600020460F4A0121FFF7CDFE2A4620460221E3
:10127000FFF7C8FE21464FF6FF70FFF721FE20461C
:10128000084A0421FFF7BEFEBDE8F041064A0521E9
:101290000320FFF7B7BE00BF000C01402F15000868
:1012A0005A1500086F15000884150008044B04281F
:1012B0001A680CBF42F0040222F004021A60704760
:1012C00010E000E003880A8810B503F441544B880D
:1012D00013438A881343CA8813430A8913434A89EC
:1012E00013438A891343CA89134323439BB2038060
:1012F000838B23F400631B041B0C83830B8A038200
:1013000010BD038819B19BB243F0400303E023F002
:1013100040031B041B0C038070470123090903FAD7
:1013200001F1838889B29BB20AB1194301E023EA33
:1013300001018180704700007FB501A8FFF76EFCB6
:101340006FF00400FFF7B2FF002000F04FF8029B9F
:10135000064A0749B3FBF2F20A704FF4FA52B3FBA4
:10136000F2F34B8007B05DF804FB00BF00127A0077
:101370008005002008B50F4B5B8858436FF07F4312
:101380009842A8BF184600F017F8002000F01AF89D
:10139000012000F017F8102000F034F80128FAD1ED
:1013A0006FF0010000F00EF8BDE80840002000F0EA
:1013B00009B800BF80050020014B5860704700BF8E
:1013C00010E000E00128084B03D11A6842F0010246
:1013D00004E0023004D11A6822F001021A6070475A
:1013E00000229A60704700BF10E000E0044B1A68CA
:1013F00010B142F0020201E022F002021A607047CE
:1014000010E000E0C308022B044B0CBF1B68DB6834
:1014100023FA00F000F00100704700BF10E000E088
:10142000024B13B1024800F005B8704700000000FD
:1014300041140008002301461A46184600F014B86B
:1014400038B5074D074C2C1BA41005D0013C55F8AE
:10145000043D9847002CF9D1BDE8384000F05CB855
:101460008C040020880400202DE9F047254C064616
:1014700025688846D5F8484192469946C4B36068C5
:101480001F2817DC411C76B104EB8003C3F888A049
:10149000D4F88851012282401543022EC4F88851A5
:1014A000C3F808911ED0831C6160002044F823809B
:1014B000BDE8F087144B03B34FF4C870AFF300805E
:1014C0000446D0B1D5F84831002784E88800384672
:1014D000C5F848410121C4F88871C4F88C71002E08
:1014E000E1D0D1E7D4F88C311A43C4F88C21DAE783
:1014F00005F5A674C5F84841C1E74FF0FF30BDE8D7
:10150000F08700BF948D000800000000F8B500BF10
:10151000F8BC08BC9E467047F8B500BFF8BC08BCD4
:101520009E467047C4C4C4C4C4C4C4C4C4C4002058
:1015300020202020202020202020202020202020AB
:10154000202020002020204F70656E2020200020C9
:1015500048617264776172652000202054465420EF
:10156000474C4344204164617074657220200057E9
:10157000616974696E6720666F7220536D6F6F7456
:1015800068696500636F6E6E656374696F6E2E2E99
:101590002E0000000000000000000000000000001D
:1015A000000000000000000000000000000000003B
:1015B000000000000000000000000000000000002B
:1015C0000000000000000000007E0000FF0001FF9E
:1015D00080019D80039EC003F6C003C6C003F6C011
:1015E000039EC0019D8001FF8000FF00007E00007F
:1015F0000000000000000000007E0000FF0001FF6E
:1016000080019E80039DC003F5C003C5C003F5C0E3
:10161000039DC0019E8001FF8000FF00007E00004E
:10162000000000000000000000700000F80001FC55
:101630000001FE0001FF0000FF80007FC000FF806E
:1016400001FF0001FE0001FC0000F8000070000036
:101650000000000000000000000000000800001C66
:1016600000003E00007F0000FF8001FFC000FF80FF
:10167000007F00003E00001C000008000000000089
:101680000000000000000000000C00001E00003FF1
:1016900000003F0000DE4001FEC001FF8001FEC0EF
:1016A00000DE40003F00003F00001E00000C000074
:1016B0000000000000000000000C00001E00003FC1
:1016C00000007F4000FE4001FEC003FF8001FEC01D
:1016D00000FE40007F40003F00001E00000C0000A4
:1016E00000000000000000000000000000000000FA
:1016F0000000000000300000780000780000780052
:1017000000300000000000000000000000000000A9
:1017100000000000000000000000003FFFFC3FFF51
:10172000FC3FC3FC3F81FC3F81FC3F81FC3F81FCCF
:101730003F81FC3FC3FC3FFFFC3FFFFC000000007B
:101740000000000000000000000000007C0000FE1F
:1017500000018300030180030180030180030180F5
:1017600003018001830000FE00007C0000000000F7
:1017700000000000000000003FFFFC3F83FC3F0131
:10178000FC3E7CFC3CFE7C3CFE7C3CFE7C3CFE7CCF
:101790003CFE7C3E7CFC3F01FC3F83FC3FFFFC00A9
:1017A0000000000000000000000000001F00003FDB
:1017B000800071C00060C00060C008E0C009E0C0E7
:1017C0000BF1C00F3F800E1F000FC0000000000093
:1017D000000000000000000000000000000003E026
:1017E0000007F1800E39800C19800C1FE00C1FE0FF
:1017F0000C19800E398007F18003E0000000000022
:1018000000000000000000000000000000C0000117
:10181000E00001E00FFFE00FFFC00600000700003E
:101820000380000180000080000000000000000034
:1018300000000000000000000000000000C00001E7
:10184000E00001E00FFFE00FFFC00C00000C00C043
:101850000C01E00C01E00FFFE00FFFC000000000F2
:101860000000000000001000001000027C8001C792
:10187000000101000301800200800E00E0020080F0
:1018800003018001010001C700027C8000100000FC
:1018900010000000000000000000000000001FFF1A
:1018A000F00FFFE007FFC003FF8001FF0000FE0014
:1018B000007C000038000010000000000000000064
:1018C0000000000000000000000000000000001008
:1018D00000003800007C0000FE0001FF0003FF80D4
:1018E00007FFC00FFFE01FFFF00000000000000036
:1018F00000000000000000000000000000000101E6
:10190000000301800701C00FFFE01FFFF00FFFE0A1
:101910000701C00301800101000000000000000079
:10192000000000000000000000000000000007F0C0
:10193000E00FFCE00FFCE007F0E000000007F0E043
:101940000FFCE00FFCE007F0E000000000000000EA
:10195000000000000000000000000000C00001E0E6
:101960000003F00003FFC003FFC0030000030000FA
:1019700003FFC003FFC003000000000000000000E0
:10198000000000000000000000000000000000183F
:1019900020003C300666180F431819C39818C2F08F
:1019A0001866600C3C0004180000000000000000F5
:1019B00000000000000000000000000003C0000361
:1019C000C00003C00003C00003C00003C00003C088
:1019D0000003C00003C00003C00003C000000000FB
:1019E00000000000000000000000000000000101F5
:1019F000080301880701C80FFFE81FFFF80FFFE881
:101A00000701C80301880101080000000000000070
:101A100000000000000000000000000000000100C5
:101A2000000300000700000FFFF01FFFF00FFFF0A2
:101A3000070000030000010000000000000000009B
:101A40000000000000000000000000000000000195
:101A5000000001800001C01FFFE01FFFF01FFFE03A
:101A60000001C00001800001000000000000000033
:101A70000000000000003800003800003800003886
:101A8000000038000038000038000038000038003E
:101A900001FF0000FE00007C000038000010000084
:101AA0000000000000001000003800007C0000FE74
:101AB0000001FF0000380000380000380000380046
:101AC00000380000380000380000380000380000FE
:101AD000000000000000000000000000000003FE05
:101AE0000003FE00000600000600000600000600DD
:101AF00000060000060000060000000000000000D4
:101B00000000000000001000003800007C0000FE13
:101B10000001FF00003800003800003800003800E5
:101B200001FF0000FE00007C0000380000100000F3
:101B3000000000000000000000200000600000E045
:101B40000001E00003E00007E0000FE00007E00014
:101B500003E00001E00000E0000060000020000061
:101B60000000000000000000000800000C00000E53
:101B700000000F00000F80000FC0000FE0000FC03A
:101B8000000F80000F00000E00000C000008000095
:101B90000000000000000000000000000000000045
:101BA0000000000000000000000000000000000035
:101BB0000000000000000000000000000000000025
:101BC0000000000000000000000000000000000015
:101BD00000000000030FF8033FF8030FF8000000B7
:101BE00000000000000000000000000000000000F5
:101BF00000000000000000000000000000000000E5
:101C0000700007F00000700000000000000000708D
:101C10000007F0000070000000000000000000005D
:101C2000000000000000000000330000330007FB4C
:101C30000007FFF80037F800330007FB0007FFF844
:101C40000037F800330000330000000000000000FF
:101C5000000000000000000000000001F1C001F3DE
:101C6000E000E7300186301FF7FC1F8E3C01CCE01E
:101C700000FCF00078F00000000000000000000010
:101C800000000000000301E00183F000C738006697
:101C900018003618001F3800FFF001FFE0039F0016
:101CA000030D80030CC0039C6001F83000F01800A5
:101CB000000000000000000000000000E00001F350
:101CC00080033FC0031C6003386003746003E7C0F7
:101CD00001E38003F0000330000330000000000047
:101CE00000000000000000000000000000000000F4
:101CF000000000000000700007F00000700000000D
:101D000000000000000000000000000000000000D3
:101D100000000000000000000000000000000000C3
:101D200000000000000000007E0001FFC007FFE08F
:101D30000F81F01E0078180018000000000000005D
:101D400000000000000000000000001800181E0045
:101D5000780F81F007FFE003FF80007E00000000A5
:101D60000000000000000000000000000000000073
:101D7000000000000000000000410000630000635C
:101D800000003600001C0001FFC001FFC0001C0065
:101D90000036000063000063000041000000000006
:101DA0000000000000000000000C00000C00000C0F
:101DB00000000C00000C0001FFE001FFE0000C003F
:101DC000000C00000C00000C00000C0000000000E3
:101DD0000000000000000000000000000000000003
:101DE000000000003000003E00000F800003800073
:101DF0000080000000000000000000000000000063
:101E00000000000000000000000000000C00000CBA
:101E100000000C00000C00000C00000C00000C0086
:101E2000000C00000C00000C00000000000000008E
:101E300000000000000000000000000000000000A2
:101E40000000000003800003800003800003800086
:101E50000000000000000000000000000000000082
:101E600000000000000000000000001C00001F0037
:101E70000007C00001F000003C00000F000003E07C
:101E80000000F800003E00000E000000000000000E
:101E90000000000000000000000000003F8000FF84
:101EA000E001C070030018030018030018030018B5
:101EB00001C07000FFE0003F800000000000000053
:101EC00000000000000000000000000300600300AC
:101ED0006003007003003003FFF003FFF80300000D
:101EE00003000003000003000000000000000000E9
:101EF00000000000000000000300E00380F003C0C9
:101F000030036018033018031818031818030C184E
:101F10000306300303F00301C000000000000000CE
:101F200000000000000000000000000180000380AD
:101F300030030030030618030618030618030F3891
:101F4000018DF001F8E000F000000000000000004A
:101F50000000000000000000007000007800006E2B
:101F6000000067800361C003607003603803FFF8FE
:101F700003FFF803600003600000000000000000A1
:101F800000000000000000000180000187F8030746
:101F9000F8030618030318030318030318030318B0
:101FA00001861801FE180078000000000000000003
:101FB0000000000000000000000000007F0001FFA2
:101FC000C0018CE0030670030630030618030618F0
:101FD000038C1801FC1800F018000000000000003D
:101FE0000000000000000000000000000078000079
:101FF0007800001800001803801803F01800FE187D
:10200000001FD80003F80000780000000000000066
:10201000000000000000000000000000F0E001F9F6
:10202000F0038F3803061803061803061803061872
:10203000038F3801F9F000F0E0000000000000001C
:1020400000000000000000000000000301E00307A2
:10205000F0030638030C18030C18018C1801CC1877
:1020600000E630007FF0001FC0000000000000000C
:102070000000000000000000000000000000000060
:102080000000000003838003838003838003838038
:102090000000000000000000000000000000000040
:1020A0000000000000000000000000000000000030
:1020B000000000000C000007800003C38000C38004
:1020C00000438000038000000000000000000000CA
:1020D0000000000000000800001C00001C0000368A
:1020E0000000360000630000630000C18000C18072
:1020F0000180C00380E00300600300600000000076
:102100000000000000003300003300003300003303
:1021100000003300003300003300003300003300C0
:1021200000330000330000330000330000000000E3
:1021300000000000000300600300600380E00180F5
:10214000C000C18000C18000630000630000360051
:10215000003600001C00001C000008000008000001
:1021600000000000000000000000000001C00001AD
:10217000E0030030033830033830001C30000E70AC
:102180000007E00003C000000000000000000000A5
:102190000000000000003F0000FFC001C1E003801C
:1021A00070031E30063F18067398066198067398F0
:1021B000063F18073E30037070037FE0003F800049
:1021C000000000000003000003800003E00003782B
:1021D00030033E300037B00031F00030700031E0A5
:1021E000033F80033E0003F00003C0000300000033
:1021F000000000000003003003003003FFF003FF85
:10220000F0030C30030C30030C30030C30030C30A3
:10221000030E70031FE001FBC000F000000000008F
:102220000000000000000000003F0000FFC001C0EF
:10223000E001806003003003003003003003003011
:1022400003003003806001C1F000C1F00000000015
:10225000000000000003003003003003FFF003FF24
:10226000F00300300300300300300300300300307F
:1022700003806001C0E000FFC0003F0000000000DC
:10228000000000000003003003003003FFF003FFF4
:10229000F0030C30030C30033F30033F30030030B9
:1022A00003003003E1F003E1F00000000000000053
:1022B000000000000000000003003003003003FFB6
:1022C000F003FFF0030C30030C30033F30033F30CA
:1022D0000000300000300001F00001F000000000BC
:1022E0000000000000000000007F0000FFC001C0EF
:1022F000E001806003003003003003183003183021
:1023000003183003986001F9F001F9F0001800009B
:10231000000000000003003003003003FFF003FF63
:10232000F0030C30030C30000C00000C00030C30E8
:10233000030C3003FFF003FFF00300300300300014
:102340000000000000000000000000030030030057
:102350003003003003003003FFF003FFF0030030D0
:1023600003003003003003003000000000000000D4
:10237000000000000000000001F80001F800030068
:1023800000030030030030030030030030018030D0
:1023900001FFF0007FF0000030000030000030004E
:1023A000000000000003003003003003FFF003FFD3
:1023B000F0031830030C30030E30001F000039808A
:1023C00000F0F003E07003803003003003003000C1
:1023D000000000000003003003003003003003FF62
:1023E000F003FFF00300300300300300300300006F
:1023F00003000003000003F00003F00000000000F1
:10240000000000000003003003FFF003FFF00301B1
:10241000E0030780031E00003800003800031E00A0
:102420000307800301E003FFF003FFF00300300027
:10243000000000000003003003003003FFF003FF42
:10244000F00301C0030780030F00003C3000783028
:1024500000E03003FFF003FFF00000300000300028
:102460000000000000000000003F0000FFC001E18C
:10247000E0018060030030030030030030030030CF
:1024800001806001E1E000FFC0003F0000000000AB
:10249000000000000000000003003003003003FFD4
:1024A000F003FFF00318300318300318300318301E
:1024B000001830000C70000FE00003C000000000A6
:1024C0000000000000000000003F0000FFC019E114
:1024D000E01F80600F00300F00300F00300F003021
:1024E00019806019E1E01CFFC00C3F0000000000F3
:1024F000000000000003003003003003FFF003FF82
:10250000F0030C30030C30030C30001C30003C3066
:1025100000F67001E7E00383C00300000300000041
:10252000000000000000000000000003E3C003E71B
:10253000E0018670030E30030C30030C30031C30B6
:1025400003986001F9F000F1F000000000000000C5
:1025500000000000000000000003F00003F0030092
:102560003003003003003003FFF003FFF0030030BE
:102570000300300300300003F00003F0000000000F
:102580000000000000000030000030007FF001FF7C
:10259000F00180300300300300000300000300302E
:1025A00001803001FFF0007FF000003000003000BB
:1025B0000000000000000030000030000070000348
:1025C000F0000FB0007C3001F03003800001F030EB
:1025D000007C30000FB00003F000007000003000FD
:1025E00000000000000001F0003FF003FE3003E0B7
:1025F0003000F830001E00000700003E0000F830F8
:1026000003E03003FE30003FF00001F00000300036
:10261000000000000003003003003003807003C09E
:10262000F00361B0033330001E00001E000333309E
:102630000361B003C0F0038070030030030030007A
:1026400000000000000000300000300000700300B7
:10265000F00303B003070003FC0003FC0003073092
:102660000303B00300F000007000003000003000F1
:10267000000000000000000003800003C3F00363BB
:10268000F0033030031830030C30030630030330FE
:102690000301B003F0F003F0700000000000000040
:1026A000000000000000000000000000000000002A
:1026B000000000000000001FFFF81FFFF8180018BE
:1026C00018001818001800000000000000000000AA
:1026D000000000000000000000000000000E0000EC
:1026E0003E0000F80003E0000F00003C0001F00095
:1026F00007C0001F00001C000000000000000000D8
:1027000000000000000000000000000000001800B1
:10271000181800181800181FFFF81FFFF800000015
:1027200000000000000000000000000000000000A9
:102730000000000000000000000000000300000195
:10274000800000E000007000003800001C0000382D
:102750000000700000E000018000030000000000A5
:102760000000C00000C00000C00000C00000C000A9
:1027700000C00000C00000C00000C00000C0000099
:10278000C00000C00000C00000C00000C00000C0C9
:102790000000000000000000000000000000000039
:1027A0000000000000000C00000C000018000030C9
:1027B00000003000000000000000000000000000E9
:1027C000000000000000000000E00001F100033103
:1027D00080031980031980031980031980019980EF
:1027E00003FF0003FE0003000003000000000000E0
:1027F000000000000003001803001803FFF803FFA7
:10280000F80183000301800301800301800301803C
:1028100003018001830001FF00007C000000000034
:102820000000000000000000007C0000FE0001C766
:102830000001830003018003018003018003018004
:1028400003018003830001CF8000CF8000000000DF
:102850000000000000000000007C0001FF00018378
:1028600000030180030180030180030180030198BC
:1028700001831803FFF803FFF803000003000000C2
:102880000000000000000000007C0001FF00019B30
:10289000000319800319800319800319800319802C
:1028A000031980031B00019F00019C000000000031
:1028B000000000000000000003018003018003010C
:1028C0008003FFE003FFF0030198030198030198E0
:1028D000030198030198000198000018000000000F
:1028E0000000000000000000007C0001FF00618388
:1028F0000063018063018063018063018063018064
:102900003183003FFF801FFF8000018000018000B5
:10291000000000000003001803001803FFF803FF85
:10292000F80303000301800001800001800301809F
:1029300003038003FF0003FE000300000300000008
:1029400000000000000000000300000301800301FC
:102950008003018003018003FF9803FF98030000B8
:10296000030000030000030000030000000000005B
:102970000000000000000000000000600180600115
:102980008060018060018060018060019830019862
:102990003FFF801FFF8000000000000000000000DB
:1029A000000000000000000003001803001803FFEF
:1029B000F803FFF8003800007C0000EF8003C380BC
:1029C00003818003018003018003000000000000F8
:1029D00000000000000000000300000300180300D6
:1029E0001803001803001803FFF803FFF8030000A2
:1029F00003000003000003000003000000000000CB
:102A0000000000000003018003FF8003FF80030338
:102A10000003018000018003FF8003FF00030380A7
:102A200003018000018003FF8003FF00030000001A
:102A3000000000000003018003018003FF8003FF0A
:102A400080030300030180000180000180030180F6
:102A500003038003FF0003FE0003000003000000E7
:102A60000000000000000000007C0000FE0001C724
:102A700000018300030180030180030180030180C2
:102A800001830001C70000FE00007C000000000080
:102A900000000000006001806001807FFF807FFFF8
:102AA00080618300630180630180030180030180F2
:102AB00003018001830001FF00007C000000000092
:102AC0000000000000000000007C0001FF00018306
:102AD00000030180030180030180630180630180A2
:102AE0006183007FFF807FFF806001806001800044
:102AF00000000000000000000301800301800301CA
:102B00008003FF8003FF80030600030300030380AC
:102B10000301800301800003800003000000000027
:102B2000000000000000000000000003CE0003DFF2
:102B30000003198003198003198003398003318051
:102B400003B18001F78000E7800000000000000072
:102B5000000000000000000000018000018000FF74
:102B6000F801FFF803018003018003018003018065
:102B700003018003818001800001800000000000CB
:102B8000000000000000018000018000FF8001FFC4
:102B90008003000003000003000003000003018025
:102BA00001818003FF8003FF800300000300000019
:102BB0000000000000000180000180000780001F6D
:102BC0008000F98003E00003800003800003E00040
:102BD00000F980001F800007800001800001800054
:102BE0000000000000000180000F8000FF8003F162
:102BF0008003E000007C00000E00007C0003E00089
:102C000003F180007F80000F800001800000000041
:102C10000000000000000000030180030180038326
:102C20008003C780036D80003800003800036D808A
:102C300003C780038380030180030180000000003C
:102C40000000000000000180600180600380600FD0
:102C500080603D8070F1807DC0006F800063C000A7
:102C600000F000003D80000F800003800001800024
:102C70000000000000000000000000030780038740
:102C80008003C180036180033180031980030D80BC
:102C900003078003C38003C1800000000000000020
:102CA0000000000000000000000000000000000024
:102CB000000010000038000FFFF01FEFF818001898
:102CC00018001800000000000000000000000000D4
:102CD00000000000000000000000000000000000F4
:102CE000000000000000001FFFF81FFFF8000000B8
:102CF00000000000000000000000000000000000D4
:102D000000000000000000000000000000000000C3
:102D1000001800181800181FEFF80FFFF000380017
:102D20000010000000000000000000000000000093
:102D30000000000000000000001800001C00000E51
:102D400000000600000E00001C00003800003000EB
:102D5000003800001C00000C000000000000000013
:102D60000000000000000000000000000000000063
:102D70000000000000000000000000000000000053
:102D80000000000000000000000000000000000043
:102D900000000000000000C00001C00C07C00C1EB5
:102DA000C00C7CC00DEC000F8C000E0C00078CC01A
:102DB00001FCC0007CC0000FC00003C00000C000C8
:102DC00000000000000000000C00C00FFFC00FFF5B
:102DD000C00C30C00C30C00C30C00C30C00C30C047
:102DE0000C30C00F19C00F1F80000F000000000042
:102DF00000000000000C00C00C00C00FFFC00FFF5F
:102E0000C00C30C00C30C00C30C00C30C00C30C016
:102E10000E70C007F8C003DF80000F000000000044
:102E200000000000000000000C00C00C00C00C00FE
:102E3000C00FFFC00FFFC00C00C00C00C00C00C0D2
:102E40000C00000C00000FC0000FC00000000000CC
:102E500000000000000000000000F80C00F80C0169
:102E6000C00FFFC00FFEC00C00C00C00C00C00C0A3
:102E70000FFFC00FFFC00C00F80C00F800000000AE
:102E800000000000000C00C00C00C00FFFC00FFFCE
:102E9000C00C30C00C30C00CFCC00CFCC00C00C01E
:102EA0000C00C00F87C00F87C000000000000000AA
:102EB00000000000000F00C00E00C00787C001CF57
:102EC0000000FC000C30C00FFFC00FFFC00C30C072
:102ED00000FC0001CF000787C00E00C00F00C0003B
:102EE00000000000000003000003801FC1801FC11C
:102EF000C00600C00C30C00C30C00C30C00C30C05C
:102F00000E70C007F98003DF80000F000000000092
:102F100000000000000000000C00C00FFFC00FFF09
:102F2000C00C0380000E00003C0000F00001C00057
:102F30000700C00FFFC00FFFC00C00C00000000062
:102F400000000000000000000C00C00FFFC00FFFD9
:102F5000C08C0380C00E00603C0060F00061C000C7
:102F6000C700C08FFFC00FFFC00C00C000000000F2
:102F700000000000000000000C00C00FFFC00FFFA9
:102F8000C00C30C000700000F80003DC00078E00A9
:102F90000E07800C01C00F00C00F00C00000C00071
:102FA00000000000000003C00003C00000C00C01CE
:102FB000C00FFF800FFF000C00000C00000C000091
:102FC0000C00C00FFFC00FFFC00C00C000000000CD
:102FD00000000000000C00C00FFFC00FFFC0078002
:102FE000C001E0C00078C0001C00001C000078C0D8
:102FF00001E0C00780C00FFFC00FFFC00C00C00081
:1030000000000000000C00C00C00C00FFFC00FFF4C
:10301000C00C30C00C30C00030000030000C30C09C
:103020000C30C00FFFC00FFFC00C00C00C00C00070
:10303000000000000000000000FC0003FF00078704
:10304000800601800C00C00C00C00C00C00C00C049
:1030500006018007878003FF0000FC0000000000DD
:1030600000000000000000000C00C00FFFC00FFFB8
:10307000C00C00C00C00000C00000C00000C000094
:103080000C00C00FFFC00FFFC00C00C0000000000C
:1030900000000000000000000C00C00C00C00FFF8A
:1030A000C00FFFC00C18C00C18C00C18C00C18C002
:1030B0000C18000E300007F00003C00000000000F4
:1030C000000000000000000000FC0003FF000703F8
:1030D000800601800C00C00C00C00C00C00C00C0B9
:1030E0000C00C00601C00F83800F830000000000A9
:1030F00000000000000000000FC0000FC0000C0026
:10310000C00C00C00C00C00FFFC00FFFC00C00C0FF
:103110000C00C00C00C00FC0000FC0000000000079
:1031200000000000000C00000C03C00F03C00FC023
:10313000C00DE0C00079C0001F80001E00007800B4
:103140000DE0000FC0000F00000C00000C0000009C
:10315000000000000000000000780000FC0001CE2C
:10316000000D86C00D86C00FFFC00FFFC00D86C0CA
:103170000D86C001CE0000FC0000780000000000B9
:1031800000000000000C00C00C00C00E01C00F03C6
:10319000C00D86C00CCCC00078000078000CCCC0FC
:1031A0000D86C00F03C00E01C00C00C00C00C00093
:1031B00000000000000000000C00C00FFFC00FFF67
:1031C000C00C00C00000C00000C00000C00000C073
:1031D0000C00C00FFFC00FFFC00C00F80000F8008B
:1031E00000000000000000000C00000FF0000FF8CD
:1031F000000C0C00000C00000C00000CC0001CC0F7
:103200000C18C00FFFC00FFFC00C00C00000000072
:1032100000000000000000000C00C00FFFC00FFF06
:10322000C00000C00C00C00FFFC00FFFC00C00C0EA
:103230000000C00FFFC00FFFC00C00C00000000066
:1032400000000000000000000C00C00FFFC00FFFD6
:10325000C00000C00C00C00FFFC00FFFC00C00C0BA
:103260000000C00FFFC00FFFC00C00F80000F80006
:1032700000000000000F00000F00000C00000C0018
:10328000000C00C00FFFC00FFFC00C30C00030C0EA
:103290000030C00030C00019C0001F80000F0000C7
:1032A00000000000000C00C00FFFC00FFFC00C307A
:1032B000C00C30C00C30C00030C0001980001F802E
:1032C000000F000C00C00FFFC00FFFC00C00C000BB
:1032D00000000000000000000C00C00FFFC00FFF46
:1032E000C00C30C00030C00030C00030C00030C062
:1032F0000030C00019C0001F80000F000000000057
:1033000000000000000000000F83000F8380060112
:10331000C00C30C00C30C00C30C00C30C00C30C001
:1033200006318007338003FF0000FC00000000002E
:1033300000000000000C00C00FFFC00FFFC00C30E9
:10334000C000300001FE0007FF800601800C00C0B5
:103350000C00C00C00C006018007FF8001FE0000C9
:1033600000000000000000C00000C003C1C007E76B
:10337000800E6F000C3C000C38000C30C00C30C0CC
:103380000C30C00FFFC00FFFC00C00C00C00C0000D
:103390000000000000000000000700008F80018C8A
:1033A000C00198C00198C00198C00198C001D9809F
:1033B00000FFC0007FC00000C00000C0000000008F
:1033C000000000000000000001FE0007FF0006E30F
:1033D000800DC1C00D80C00D80C00D80C00D80C0AB
:1033E0000DC1C03CE380387F00003E0000000000BB
:1033F00000000000000180C00180C001FFC001FF8B
:10340000C00198C00198C00198C00198C00198C03F
:103410000198C001F9C000EF800007000000000023
:1034200000000000000000000180C00180C0018099
:10343000C001FFC001FFC00180C00180C00180C089
:1034400001800001800001F00001F0000000000098
:1034500000000000000000000000F80180F8018179
:10346000C001FFC001FEC00180C00180C00180C05A
:1034700001FFC001FFC00180F80180F800000000DA
:103480000000000000000000003E0000FF8000D9A6
:10349000800198C00198C00198C00198C00198C0EF
:1034A0000198C000D8C000F98000398000000000F9
:1034B000000000000001C0C001C0C00183C000CFF7
:1034C00080007C000198C001FFC001FFC00198C0CE
:1034D000007C0000CF800183C001C0C001C0C000DB
:1034E000000000000000000000030000038003F162
:1034F0008003F1C000C0C00198C00198C00198C00D
:103500000198C00199C000FF80006F00000000001A
:1035100000000000000180C00180C001FFC001FF69
:10352000C0018380018700000E000038000070C0D9
:1035300000E0C001FFC001FFC00180C00180C000E9
:1035400000000000000180C00180C001FFC001FF39
:10355000C0618380318700180E001838001870C0D1
:1035600030E0C061FFC001FFC00180C00180C00029
:1035700000000000000000000180C00180C001FFC9
:10358000C001FFC00198C00198C0007C0000EE009F
:1035900000C78001C1C001E0C001E0C00000000020
:1035A00000000000000000000001C00181C0018097
:1035B000C001FFC001FF000180000180C00180C088
:1035C00001FFC001FFC00180C00180C000000000F9
:1035D00000000000000180C00180C001FFC001FFA9
:1035E000C001E0C00078C0001E00001E000078C0CE
:1035F00001E0C001FFC001FFC00180C00180C00028
:1036000000000000000180C00180C001FFC001FF78
:10361000C00198C00198C00018000018000198C0AF
:103620000198C001FFC001FFC00180C00180C0003F
:103630000000000000000000003E00007F0000E3EA
:103640008000C1800180C00180C00180C00180C0B5
:1036500000C18000E380007F00003E000000000009
:1036600000000000000180C00180C001FFC001FF18
:10367000C00180C00180C00180000180000180C0C5
:103680000180C001FFC001FFC00180C00180C000F7
:10369000000000000000000084631800000000002B
:1036A0000021084200000084631800000021084245
:1036B0002108420000008463180000002108420035
:1036C00000000000002108428463182108422108FC
:1036D00042846318210842846318210842846318D5
:1036E0008463182108428463182108428463180007
:1036F00000000000007B9CEFDEF7BD7B9CEF7B9C15
:10370000EFDEF7BD7B9CEFDEF7BD7B9CEFDEF7BD08
:10371000DEF7BD7B9CEFDEF7BD7B9CEFDEF7BD00E7
:103720000000000000000000000000000000000099
:1037300000000000000000FFFFFFFFFFFF0000008F
:103740000000000000000000000000000000000079
:1037500000000018000018000018000018000018F1
:1037600000001800001800FFFFFFFFFFFF0000002F
:103770000000000000000000000000000000000049
:10378000000000660000660000660000660000663B
:1037900000006600006600FFFFFFFFFFFF00000063
:1037A0000000000000000000000000000000000019
:1037B0000000001800001800001800001800001891
:1037C00000FFFFFFFFFFFF000000000000FFFFFF02
:1037D000FFFFFF00000000000000000000000000EC
:1037E0000000001800001800001800001800001861
:1037F00000001FFF001FFF001800001800001FFF3F
:10380000001FFF000000000000000000000000009A
:1038100000000066000066000066000066000066AA
:1038200000006600006600007FFF007FFF000000D0
:103830000000000000000000000000000000000088
:10384000000000660000660000660000660000667A
:1038500000FFE7FFFFE7FF000000000000FFFFFFA1
:10386000FFFFFF000000000000000000000000005B
:103870000000000000000000000000000000000048
:1038800000FFFFFFFFFFFF000000000000FFFFFF41
:10389000FFFFFF000000000000000000000000002B
:1038A000000000660000660000660000660000661A
:1038B000000067FF0067FF006000006000007FFFFE
:1038C000007FFF000000000000000000000000007A
:1038D00000000066000066000066000066000066EA
:1038E00000FFE600FFE600000600000600FFFE0005
:1038F000FFFE0000000000000000000000000000CB
:10390000000000180000180000180000180000183F
:1039100000FFF800FFF800001800001800FFF80092
:10392000FFF80000000000000000000000000000A0
:103930000000006600006600006600006600006689
:1039400000006600006600FFFE00FFFE00000000B1
:103950000000000000000000000000000000000067
:1039600000000018000018000018000018000018DF
:1039700000001800001800001FFF001FFF000000DB
:103980000000000000000000000000000000000037
:103990000000000000000000000000000000000027
:1039A00000000000000000FFF800FFF80000180011
:1039B000001800001800001800001800001800008F
:1039C0001800001800001800001800001800001867
:1039D00000001800001800FFF800FFF800001800B1
:1039E000001800001800001800001800001800005F
:1039F0001800001800001800001800001800001837
:103A000000001800001800001FFF001FFF00180032
:103A1000001800001800001800001800001800002E
:103A2000180000000000000000000000000000007E
:103A300000000000000000FFFFFFFFFFFF00180074
:103A400000180000180000180000180000180000FE
:103A500018000018000018000018000018000018D6
:103A600000001800001800001800001800001800DE
:103A700000180000180000180000180000180000CE
:103A800018000018000018000018000018000018A6
:103A900000001800001800FFFFFFFFFFFF001800E4
:103AA000001800001800001800001800001800009E
:103AB00018000000000000000000000000000000EE
:103AC00000000000000000FFFFFFFFFFFF00660096
:103AD00000660000660000660000660000660000E8
:103AE0006600000000000000000000000000000070
:103AF00000FFFFFFFFFFFF000000000000FFFFFFCF
:103B0000FFFFFF0018000018000018000018000058
:103B1000180000000000000000000000000000008D
:103B200000FFFE00FFFE00000600000600FFE600AA
:103B3000FFE6000066000066000066000066000008
:103B4000660000000000000000000000000000000F
:103B500000007FFF007FFF0060000060000067FF43
:103B60000067FF0066000066000066000066000057
:103B700066000066000066000066000066000066E1
:103B800000FFE600FFE600000600000600FFE6007A
:103B9000FFE60000660000660000660000660000A8
:103BA00066000066000066000066000066000066B1
:103BB000000067FF0067FF0060000060000067FF13
:103BC0000067FF00660000660000660000660000F7
:103BD000660000000000000000000000000000007F
:103BE00000FFFFFFFFFFFF000000000000FFE7FFF6
:103BF000FFE7FF0066000066000066000066000048
:103C00006600006600006600006600006600006650
:103C100000006600006600006600006600006600A6
:103C20000066000066000066000066000066000096
:103C30006600006600006600006600006600006620
:103C400000FFE7FFFFE7FF000000000000FFE7FFC5
:103C5000FFE7FF00660000660000660000660000E7
:103C600066000066000066000066000066000066F0
:103C700000006600006600FFE600FFE60000660048
:103C80000066000066000066000066000066000036
:103C90006600001800001800001800001800001846
:103CA00000FFF800FFF800001800001800FFF800FF
:103CB000FFF80000180000180000180000180000AD
:103CC00018000066000066000066000066000066DE
:103CD000000066000066000067FF0067FF006600E6
:103CE00000660000660000660000660000660000D6
:103CF00066000018000018000018000018000018E6
:103D000000001FFF001FFF001800001800001FFF29
:103D1000001FFF0018000018000018000018000025
:103D2000180000000000000000000000000000007B
:103D300000FFF800FFF800001800001800FFF8006E
:103D4000FFF800001800001800001800001800001C
:103D5000180000000000000000000000000000004B
:103D600000000000000000FFFE00FFFE00006600F3
:103D70000066000066000066000066000066000045
:103D800066000000000000000000000000000000CD
:103D900000000000000000007FFF007FFF006600C1
:103DA0000066000066000066000066000066000015
:103DB000660000000000000000000000000000009D
:103DC00000001FFF001FFF001800001800001FFF69
:103DD000001FFF0018000018000018000018000065
:103DE0001800001800001800001800001800001843
:103DF00000FFFFFFFFFFFF001800001800FFFFFF9C
:103E0000FFFFFF0018000018000018000018000055
:103E1000180000660000660000660000660000668C
:103E200000006600006600FFFFFFFFFFFF00660066
:103E30000066000066000066000066000066000084
:103E40006600001800001800001800001800001894
:103E500000001800001800FFF800FFF80000000044
:103E60000000000000000000000000000000000052
:103E70000000000000000000000000000000000042
:103E800000000000000000001FFF001FFF001800DE
:103E900000180000180000180000180000180000AA
:103EA0001800FFFFFFFFFFFFFFFFFFFFFFFFFFFF08
:103EB000FFFFFFFFFFFFFFFFFFFFFFFFFFFFFFFF12
:103EC000FFFFFFFFFFFFFFFFFFFFFFFFFFFFFFFF02
:103ED000FFFF000FFF000FFF000FFF000FFF000F9D
:103EE000FF000FFF000FFF000FFF000FFF000FFF8D
:103EF000000FFF000FFF000FFF000FFF000FFF007C
:103F00000FFFFFFFFFFFFFFFFFFFFFFFFFFFFFFFB1
:103F1000FFFFFFFFFFFFFFFFFFFF000000000000AB
:103F20000000000000000000000000000000000091
:103F30000000000000000000000000000000000081
:103F400000000000000000000000FFFFFFFFFFFF77
:103F5000FFFFFFFFFFFFFFFFFFFFFFFFFFFFFFFF71
:103F6000FFFFFFF000FFF000FFF000FFF000FFF0A8
:103F700000FFF000FFF000FFF000FFF000FFF00096
:103F8000FFF000FFF000FFF000FFF000FFF000FF87
:103F9000F00000000001800601800601FFFE01FF25
:103FA000FE00C1860180C60180C60180C00180C0BC
:103FB0000180C000C18000FF80003E0000000000C2
:103FC0000000000000000000003E00007F0000E351
:103FD0008000C1800180C00180C00180C00180C01C
:103FE0000180C000C1C001F38001F30000000000A7
:103FF000000000000000000001F80001F80001804E
:10400000C00180C00180C001FFC001FFC00180C0AD
:104010000180C00180C001F80001F800000000002C
:10402000000000000001800001800001E07801F83C
:1040300078019E180187B80001F00001E001878037
:10404000019E0001F80001E00001800001800000F5
:104050000000000000000000003E0000FF8001C1E1
:10406000C01980D81980D81FFFF81FFFF80180D829
:104070000180D801C1C000FF80003E0000000000A8
:1040800000000000000000000180C00180C001C1EC
:10409000C001E3C001B6C0001C00001C0001B6C096
:1040A00001E3C001C1C00180C00180C00000000068
:1040B00000000000000180C00180C001FFC001FFBE
:1040C000C00180C00180C00000C00000C00180C0ED
:1040D0000180C001FFC001FFC00180F80180F8002D
:1040E000000000000001800001800001F80001FCD8
:1040F00000018E000186000006C00186C0018CC050
:1041000001FFC001FFC00180C00180C000000000AD
:1041100000000000000180C00180C001FFC001FF5D
:10412000C00000C00180C001FFC001FFC00180C00D
:104130000000C001FFC001FFC00180C00180C000BD
:1041400000000000000180C00180C001FFC001FF2D
:10415000C00000C00180C001FFC001FFC00180C0DD
:104160000000C001FFC001FFC00180F80180F8001D
:10417000000000000000000000000001E00001E07D
:10418000000180C00180C001FFC001FFC00198C0D4
:104190000198C00018C00018C0000F800007000080
:1041A00000000000000180C00180C001FFC001FFCD
:1041B000C00198C00198C00018C0000F800187C0DE
:1041C0000180C001FFC001FFC00180C00180C000AC
:1041D00000000000000180C00180C001FFC001FF9D
:1041E000C00198C00198C00018C00018C00018C0D5
:1041F0000018C00018C0000F800007000000000079
:10420000000000000000000000030001F38001F145
:10421000C000C0C00198C00198C00198C00198C0FA
:104220000199C000DB80007F00003E00000000001C
:1042300000000000000180C001FFC001FFC0019824
:10424000C0001800007E0000FF8001C1C00180C0D6
:104250000180C00180C001C1C000FF80003E00009D
:1042600000000000000000000070C000F8C001CD98
:10427000C0018F80018F00018E00018C00018CC075
:10428000018CC001FFC001FFC00180C00180C000DF
:1042900000000000000C00C00C00C00FFFC00FFFAA
:1042A000C0CC30C0CC30C00CFCC00CFCC0CC00C0BA
:1042B000CC00C00F87C00F87C000000000000000C6
:1042C0000000000000000000003E0000FF8000D958
:1042D000801998C01998C00198C00198C01998C059
:1042E0001998C000D8C000F9800039800000000093
:1042F000000000000000000000FC0003FF00073386
:10430000800631800C30C00C30C00C30C00C30C086
:104310000C30C00601C00F83800F83000000000036
:104320000000000000000000003E00007F0000DBF5
:10433000800199C00198C00198C00198C00198C03F
:1043400000C0C001F1C001F38000030000000000C4
:1043500000000000000000000000000C00C00C0085
:10436000C0CC00C0CC00C00FFFC00FFFC0CC00C04D
:10437000CC00C00C00C00C00C00000000000000019
:1043800000000000000000000000C00180C0198093
:10439000C01980C00180C001FFC019FFC01800C053
:1043A0000000C00000C00000C00000C0000000000D
:1043B00000000000000C00000C03C00F03C00FC081
:1043C000C00DE0C08079C0C01F80C01E00C0780052
:1043D0008DE0000FC0000F00000C00000C0000007A
:1043E000000000000001800001800001E07801F879
:1043F00078619E183187B81801F01801E01987809C
:10440000319E0061F80001E00001800001800000A1
:104410000000000000000000000000000000078015
:10442000000FC0001CE0001860001860001CE000D5
:104430000FC0000780000000000000000000000026
:10444000000000000000000000000000000000006C
:10445000000000000070000070000070000070009C
:10446000000000000000000000000000000000004C
:10447000000000000000000000000000000000003C
:10448000000000000070000070000070000070006C
:10449000000000000000000000000000000000001C
:1044A0000000000000000000020000020000020006
:1044B0000003000003C00000F000003E0000078081
:1044C000000FE003F0007C0000000000000000008E
:1044D00000000000000C00C00FFFC00FFFC003E091
:1044E000C000F8000C1F000FFFC00FFFC00C000041
:1044F00001E60003F60003360003F60001E60000C3
:10450000000000000000000006030007770003FE23
:1045100000018C00030600030600030600018C0066
:1045200003FE000777000603000000000000000003
:1045300000000000000FFFC00FFFC00FFFC00FFF03
:10454000C00FFFC00FFFC00FFFC00FFFC00FFFC0A5
:104550000FFFC00FFFC00FFFC00FFFC00FFFC00055
:10456000000000000000000000000000000000004B
:10457000000000000000000000000000000000003B
:10458000000000000000000000000000000000002B
:104590000000FFFFFFFFFFFFFFFFFFFFFFFFFFFF29
:1045A000FFFFFFFFFFFFFFFFFFFFFFFFFFFFFFFF1B
:1045B000FFFFFFFFFFFFFFFFFFFFFFFFFFFFFFFF0B
:1045C000FFFFFFFFFFFFFFFFFFFFFFFFFFFFFFFFFB
:1045D000FFFFFFFFFFFFFFFFFFFFFFFFFFFFFFFFEB
:104A8000FFFFFFFFFFFFFFFF00000000000000002E
:104A9000000000000000FFFFFFFFFFFFFFFFFFFF20
:104AA000FFFFFFFFFFFFFFFFFFFFFFFFFFFFFFFF16
:104AB000FFFFFFFFFFFFFFFFFFFFFFFFFFFFFFFF06
:104AC000FFFFFFFFFFFFFFFFFFFFFFFFFFFFFFFFF6
:104AD000FFFFFFFFFFFFFFFFFFFFFFFFFFFFFFFFE6
:104AE000FFFFBEF700000000000000000000000013
:104AF00000000000000000000000DFFFFFFFFFFFDC
:104B0000FFFFFFFFFFFFFFFFFFFFFFFFFFFFFFFFB5
:104B1000FFFFFFFFFFFFFFFFFFFFFFFFFFFFFFFFA5
:104B2000FFFFFFFFFFFFFFFFFFFFFFFFFFFFFFFF95
:104B3000FFFFFFFFFFFFFFFFFFFFFFFFFFFFFFFF85
:104B4000FFFF000000000000000000000000000067
:104B5000000000000000000000000000FFFFFFFF59
:104B6000FFFFFFFFFFFFFFFFFFFFFFFFFFFFFFFF55
:104B7000FFFFFFFFFFFFFFFFFFFFFFFFFFFFFFFF45
:104B8000FFFFFFFFFFFFFFFFFFFFFFFFFFFFFFFF35
:104B9000FFFFFFFFFFFFFFFFFFFFFFFFFFFFFFFF25
:104BA00000000000000000000000FFFFFFFFFFFF0B
:104BB000FFFFFFFF00000000000000000000FFFFFB
:104BC000FFFFFFFFFFFFFFFFFFFFFFFFFFFFFFFFF5
:104BD000FFFFFFFFFFFFFFFFFFFFFFFFFFFFFFFFE5
:104BE000FFFFFFFFFFFFFFFFFFFFFFFFFFFFFFFFD5
:104BF000FFFFFFFFFFFFFFFFFFFFFFFFDFFF0000E3
:104C0000000000000000FFFFFFFFFFFFFFFFFFFFAE
:104C1000FFFFFFFFFFFFFFFF00000000000000009C
:104C20000000000000000000000000000000000084
:104C30000000000000000000000000000000000074
:104C4000FFFFFFFFFFFFFFFFFFFFFFFFFFFFFFFF74
:104C5000FFFFFFFFFFFFFFFFFFFFFFFF0000000060
:104C600000000000FFFFFFFFFFFF00F800F800F862
:104C700000F800F8FFFFFFFFFFFF0000000000004A
:104C80000000000000000000000000000000000024
:104C90000000000000000000000000000000000014
:104CA00000000000FFFFFFFFFFFFFFFFFFFFFFFF10
:104CB000FFFFFFFFFFFFFFFFFFFFDFFF0000000020
:104CC0000000FFFFFFFFFFFF00F800F800F800F80A
:104CD00000F800F800F8FFFFFFFFFFFF00000000F2
:104CE00000000000000000000000000000000000C4
:104CF00000000000000000000000000000000000B4
:104D0000000000000000FFFFFFFFFFFFFFFFFFFFAD
:104D1000FFFFFFFFFFFFFFFFFFFF0000000000009D
:104D20000000FFFFFFFF00F800F800F800F800F8AF
:104D300000F800F800F800F8FFFFFFFFFFFFFFFF9B
:104D4000FFFFFFFFFFFFFFFFFFFFFFFFFFFFFFFF73
:104D5000FFFFFFFFFFFFFFFFFFFFFFFFDFFFFFFF83
:104D60000000000000000000FFFFFFFFFFFFFFFF4B
:104D7000FFFFFFFFFFFFFFFFFFFF0000000000003D
:104D8000FFFFFFFF00F800F800F800F800F800F857
:104D900000F800F800F800F800F8FFFFFFFFFFFF41
:104DA000FFFFFFFFFFFFFFFFFFFFFFFFFFFFFFFF13
:104DB000FFFFFFFFFFFFFFFFFFFFFFFFFFFFFFFF03
:104DC000DFFF000000000000FFFFFFFFFFFFFFFF0D
:104DD000FFFFFFFFFFFFFFFFFFFF000000000000DD
:104DE000FFFFFFFF00F800F800F800F800F800F8F7
:104DF00000F800F800F800F800F800F800F800F8F3
:104E000000F800F800F800F800F800F800F8FFFFDC
:104E1000FFFFFFFFFFFFFFFFFFFFFFFFFFFFFFFFA2
:104E2000FFFFFFFF000000000000FFFFFFFFFFFF8C
:104E3000FFFFFFFFFFFFFFFFFFFF0000000000007C
:104E4000FFFFFFFF00F800F800F800F800F800F896
:104E500000F800F800F800F800F800F800F800F892
:104E600000F800F800F800F800F800F800F8FFFF7C
:104E7000FFFFFFFFFFFFFFFFFFFFFFFFFFFFFFFF42
:104E8000FFFFDFFF000000000000FFFFFFFFFFFF4C
:104E9000FFFFFFFFFFFFFFFFFFFF0000000000001C
:104EA000FFFFFFFF00F800F800F800F800F800F836
:104EB00000F800F800F800F800F800F800F800F832
:104EC00000F800F800F800F800F800F800F8FFFF1C
:104ED000FFFFFFFFFFFFFFFFFFFFFFFFFFFFFFFFE2
:104EE000FFFFFFFF000000000000FFFFFFFFFFFFCC
:104EF000FFFFFFFFFFFFFFFFFFFF000000000000BC
:104F0000FFFFFFFF00F800F800F800F800F800F8D5
:104F100000F800F800F800F800F8FFFFFFFFFFFFBF
:104F2000FFFFFFFFFFFFFFFFFFFFFFFFFFFFFFFF91
:104F3000FFFFFFFFFFFFFFFFFFFFFFFFFFFFFFFF81
:104F4000FFFF000000000000FFFFDFFFFFFFFFFF8B
:104F5000FFFFFFFFFFFFFFFFFFFF0000000000005B
:104F60000000FFFFFFFF00F800F800F800F800F86D
:104F700000F800F800F800F8FFFFFFFFFFFFFFFF59
:104F8000FFFFFFFFFFFFFFFFFFFFFFFFFFFFFFFF31
:104F9000FFFFFFFFFFFFFFFFFFFFFFFFFFFFFFFF21
:104FA0000000000000000000FFFFFFFFFFFFFFFF09
:104FB000FFFFFFFFFFFFFFFFFFFFFFFF00000000FD
:104FC0000000FFFFFFFFFFFF00F800F800F800F807
:104FD00000F800F800F8FFFFFFFFFFFF00000000EF
:104FE00000000000000000000000000000000000C1
:104FF00000000000000000000000000000000000B1
:10500000000000000000FFFFFFFFFFFFFFFFFFFFAA
:10501000FFFFFFFFFFFFFFFFFFFFFFFF000000009C
:1050200000000000FFFFFFFFFFFF00F800F800F89E
:1050300000F800F8FFFFFFFFFFFF00000000000086
:105040000000000000000000000000000000000060
:105050000000000000000000000000000000000050
:1050600000000000FFFFFFFFFFFFFFFFFFFFFFFF4C
:10507000FFFFFFFFFFFFFFFFFFFFFFFFFFFF00003E
:10508000000000000000FFFFFFFFFFFFFFFFFFFF2A
:10509000FFFFFFFFFFFFFFFF000000000000000018
:1050A0000000000000000000000000000000000000
:1050B00000000000000000000000000000000000F0
:1050C000FFFFFFFFFFFFFFFFFFFFFFFFFFFFFFFFF0
:1050D000FFFFFFFFFFFFFFFFFFFFFFFFFFFFFFFFE0
:1050E00000000000000000000000FFFFFFFFFFFFC6
:1050F000FFFFFFFF00000000000000000000FFFFB6
:10510000FFFFFFFFFFFFFFFFFFFFFFFFFFFFFFFFAF
:10511000FFFFFFFFFFFFFFFFFFFFFFFFFFFFFFFF9F
:10512000FFFFFFFFFFFFFFFFFFFFFFFFFFFFFFFF8F
:10513000FFFFFFFFFFFFFFFFFFFFFFFFFFFFFFFF7F
:10514000FFFF000000000000000000000000000061
:10515000000000000000000000000000FFFFFFFF53
:10516000FFFFFFFFFFFFFFFFFFFFFFFFFFFFFFFF4F
:10517000FFFFFFFFFFFFFFFFFFFFFFFFFFFFFFFF3F
:10518000FFFFFFFFFFFFFFFFFFFFFFFFFFFFFFFF2F
:10519000FFFFFFFFFFFFFFFFFFFFFFFFFFFFFFFF1F
:1051A000FFFFFFFF00000000000000000000000003
:1051B00000000000000000000000FFFFFFFFFFFFF5
:1051C000FFFFFFFF00000000FFFFFFFF00000000E7
:1051D000FFFFFFFF00000000FFFFFFFF00000000D7
:1051E000FFFFFFFFFFFFFFFFFFFFFFFFFFFFFFFFCF
:1051F000FFFFFFFFFFFFFFFFFFFFFFFFFFFFFFFFBF
:10520000FFFFFFFFFFFFFFFF0000000000000000A6
:10521000000000000000FFFFFFFFFFFFFFFFFFFF98
:10522000FFFFFFFF00000000FFFFFFFF0000000086
:10523000FFFFFFFF00000000FFFFFFFF0000000076
:10524000FFFFFFFFFFFFFFFFFFFFFFFFFFFFFFFF6E
:10525000FFFFFFFFFFFFFFFFFFFFFFFFFFFFFFFF5E
:10526000FFFFFFFFFFFFFFFFFFFFFFFFFFFFFFFF4E
:10527000FFFFFFFFFFFFFFFFFFFFFFFFFFFFFFFF3E
:10528000FFFFFFFF00000000FFFFFFFF0000000026
:10529000FFFFFFFF00000000FFFFFFFF0000000016
:1052A000FFFFFFFFFFFFFFFFFFFFFFFFFFFFFFFF0E
:1052B000FFFFFFFFFFFFFFFFFFFFFFFFFFFFFFFFFE
:1052C000FFFFFFFFFFFFFFFFFFFFFFFFFFFFFFFFEE
:1052D000FFFFFFFFFFFFFFFFFFFFFFFFFFFFFFFFDE
:1052E000FFFFFFFF00000000FFFFFFFF00000000C6
:1052F000FFFFFFFF00000000FFFFFFFF00000000B6
:10530000FFFFFFFFFFFFFFFFFFFFFFFFFFFFFFFFAD
:10531000FFFFFFFFFFFFFFFFFFFFFFFFFFFFFFFF9D
:10532000FFFFFFFFFFFFFFFFFFFFFFFFFFFFFFFF8D
:10533000FFFFFFFFFFFFFFFFFFFFFFFFFFFFFFFF7D
:10534000FFFFFFFF00000000FFFFFFFF0000000065
:10535000FFFFFFFF00000000FFFFFFFF0000000055
:10536000FFFFFFFFFFFFFFFFFFFFFFFFFFFFFFFF4D
:10537000FFFFFFFFFFFFFFFFFFFFFFFFFFFFFFFF3D
:10538000FFFFFFFFFFFFFFFFFFFFFFFFFFFFFFFF2D
:10539000FFFFFFFFFFFFFFFFFFFFFFFFFFFFFFFF1D
:10579000FFFFBF36BF36BF36BF36BF36BF36BF3658
:1057A000BF36BF36BF36BF36BF36BF36BF36BF3651
:1057B000BF36BF36BF36BF36BF36BF36BF36BF3641
:1057C000BF36BF36BF36BF36BF36BF36BF36BF3631
:1057D000BF36BF36BF36BF36BF36BF36BF36BF3621
:1057E000BF36BF36BF36BF36BF36BF36BF36BF3611
:1057F000BF36BF36BF36BF36BF36BF36BF36BF3601
:10580000BF36BF36BF36BF36BF36BF36BF36BF36F0
:10581000BF36BF36BF36BF36BF36BF36BF36BF36E0
:10582000BF36BF36BF36BF36BF36BF36BF36BF36D0
:10583000BF36BF36BF36BF36BF36BF36BF36BF36C0
:10584000BF36BF36BF36BF36BF36BF36BF36BF36B0
:10585000BF36BF36BF36BF36BF36BF36BF36BF36A0
:10586000BF36BF36BF36BF36BF36BF36BF36BF3690
:10587000BF36BF36BF36CB5A4529000000000000B6
:105880000000718CBF36BF36BF36BF36BF36BF365D
:10589000BF36BF36BF36BF36BF36BF36BF36BF3660
:1058A000BF36BF36BF36BF36BF36BF36BF36BF3650
:1058B000BF36BF36BF36BF36BF36BF36BF36BF3640
:1058C000BF36BF36BF36BF36BF36BF36BF36BF3630
:1058D000BF36BF36EB5A2000410841084108410855
:1058E00020002000E318CF7BBF36BF36BF36BF365F
:1058F000BF36BF36BF36BF36BF36BF36BF36BF3600
:10590000BF36BF36BF36BF36BF36BF36BF36BF36EF
:10591000BF36BF36BF36BF36BF36BF36BF36BF36DF
:10592000BF36BF36BF36BF36BF36BF36BF36BF36CF
:10593000BF36BF36CB5A2000410841084108410814
:1059400041084108200061084D6B7DEFBF36BF362E
:10595000BF36BF36000000006D6BBF36BF36BF36A6
:10596000BF36BF36BF36BF36BF36BF36BF36BF368F
:10597000BF36BF36BF36BF36BF36BF36BF36BF367F
:10598000BF36BF36BF36BF36BF36BF36BF36BF366F
:10599000BF36BF36D39C4108410841084108410841
:1059A00041084108410820006108D7BDBF36BF3615
:1059B000BF36AE73200041082000494ABF36BF36CB
:1059C000BF36BF36BF36BF36BF36BF36BF36BF362F
:1059D000BF36BF36BF36BF36BF36BF36BF36BF361F
:1059E000BF36BF36BF36BF36BF36BF36BF36BF360F
:1059F000BF36BF36BEF728422000410841084108A3
:105A0000410841084108410800006D6BBF36BF36B0
:105A1000BF36A6312000410841080000E739BF36F3
:105A2000BF36BF36BF36BF36BF36BF36BF36BF36CE
:105A3000BF36BF36BF36BF36BF36BF36BF36BF36BE
:105A4000BF36BF36BF36BF36BF36BF36BF36BF36AE
:105A5000BF36BF36BF3634A5821041084108410821
:105A600041084108410841080000AA52DFFFBF3643
:105A7000BF368210200041084108410820004D6BCC
:105A8000BF36BF36BF36BF36BF36BF36BF36BF366E
:105A9000BF36BF36BF36BF36BF36BF36BF36BF365E
:105AA000BF36BF36BF36B294000000000000CB5AAC
:105AB000BF36DFFFBF36BF36CB5A20004108410852
:105AC00041084108410841080000694ADFFFBF362C
:105AD0009294200041084108410841082000A2108A
:105AE000F7BDBF36BF36BF36BF36BF36BF36BF364F
:105AF000BF36BF36BF36BF36BF36BF36BF36BF36FE
:105B0000BF3614A5A6314108200020002000200047
:105B1000E318718CBF36BF36D7BD04214108410858
:105B200041084108410841080000AA52DFFFBF3682
:105B3000284220004108410841084108410820004E
:105B4000EB5ABF36BF36BF36BF36BF36BF36BF365D
:105B5000BF36BF36BF36BF36BF36BF36BF36BF369D
:105B6000CF7B610800004108410841084108410815
:105B70002000A210718CDFFFBF362C634108410862
:105B8000410841084108410800004D6BDFFFBF3666
:105B90000421200041084108410841084108000053
:105BA000452918C6BF36BF36BF36BF36BF36BF36EB
:105BB000BF36BF36BF36BF36BF36BF36BF3610849E
:105BC0006108200041084108410841084108410896
:105BD00041082000C318F7BDBF36BF36A2104108E8
:105BE00041084108410820000000518CDFFF30844B
:105BF0004108410841084108410841084108200086
:105C0000E31855ADBF36BF36BF36BF36BF36BF36D9
:105C1000BF36BF36BF36BF36BF36BF36BF36C318F6
:105C20002000410841084108410841084108410855
:105C3000410841080000E739BF36BF3686312000F1
:105C400041084108410820000000BF36BF36284205
:105C5000200041084108410841084108410820004E
:105C60004529BF36BF36BF36BF36BF36BF36BF3613
:105C7000BF36BF36BF36BF36BF36BF362C632000B7
:105C800041084108410841084108410841084108CC
:105C900041084108410841086D6BBF36CF7B0000C9
:105CA00041084108410820008210BF36BF368210EB
:105CB00020004108410841084108410841082000EE
:105CC000CF7BBF36BF36BF36BF36BF36BF36BF36D7
:105CD000BF36BF36BF36BF36BF36BF36CB5A2000C1
:105CE0002000410841084108410841084108410895
:105CF00041084108410820000421BF36BF3600009A
:105D00002000410841082000494ABF362C6320008A
:105D1000200041084108410841084108200008428C
:105D2000BF36BF36BF36BF36BF36BF36BF36BF36CB
:105D3000BF36BF36BF36BF36BF36BF36BF36CB5A8B
:105D4000C318000000002000410841084108410834
:105D500041084108410841082000AA52BF36C7390E
:105D60002000410841080000BF36BF36E31820007C
:105D7000410841084108410841082000242118C673
:105D8000BF36BF36BF36BF36BF36BF36BF36BF366B
:105D9000BF36BF36BF36BF36BF36BF36BF36BF365B
:105DA000BF36F39CCB5A000061082000410841082F
:105DB000410841084108410820004108BF36CF7B17
:105DC0000000200000006108BF362C63000041087D
:105DD000410841084108410841088631B6B5BF363F
:105DE000BF36DFFF1CE73084C7398631BF36BF3688
:105DF000BF36BF36BF36BF36BF36BF36BF36BF36FB
:105E0000BF36BF36BF3679CE718C694AE3182000A1
:105E1000410841084108410841080000BF36BF362B
:105E2000BF36BF36BF36BF36BF36C3182000410865
:105E30004108410841084108AA52BF36BF36BF3663
:105E40003CE7F39C494A410800000000BF36BF36DA
:105E5000BF36BF36BF36BF36BF36BF36BF36BF369A
:105E6000BF36BF36BF36BF36BF36BF36D7BDCF7B96
:105E700004212000200041082000BF36BF36BF3675
:105E8000BF36BF36BF36BF36BF36BF3620004108EB
:105E9000410820008210CF7BBF36BF36BF3655ADDC
:105EA000CB5AA2102000200041084108C318BF3679
:105EB000BF36BF36BF36BF36BF36BF36BF36BF363A
:105EC00059CE34A5F39C14A596B5BF36BF36BF3660
:105ED000BF36BF3665294108BF36BF36BF3600F82A
:105EE00000F800F800F800F8BF36BF36BF362000D3
:105EF00041088A52BF36BF36BF363084E741A21010
:105F00002000200041084108410841080000BF3638
:105F1000BF36BF36BF36BF36BF36BF36BF36494A3B
:105F20000421A21082108210A21004216529694A5E
:105F30003084BF36BF36BF36BF36BF3600F800F8F4
:105F400000F800F800F800F800F8BF36BF36BF369A
:105F5000BF36BF36BF368E73452941082000410841
:105F60004108410841084108410841080000BF3686
:105F7000BF36BF36BF36BF36BF36BF36A63120006C
:105F80002000410841084108200020002000200096
:105F90006108E3188631BF36BF3600F800F800F814
:105FA00000F800F800F800F800F800F8BF36BF3637
:105FB000BF36AA5204214108200041084108410887
:105FC0004108410841084108410841080000BF3626
:105FD000BF36BF36BF36BF36BF36BF36200041089A
:105FE0004108410841084108410841084108410869
:105FF000410820000000BF36BF3600F800F800F866
:1060000000F800F800F800F800F800F8BF36BF36D6
:10601000C3184108200041084108410841084108CF
:106020004108410841084108410820000000BF36EE
:10603000BF36BF36BF36BF36BF3604212000410809
:106040004108410841084108410841084108410808
:10605000410841080000BF36BF3600F800F800F8DC
:1060600000F800F800F800F800F800F8BF36BF3676
:10607000E31820004108410841084108410841084F
:10608000410841084108410841080000EF7BBF3644
:10609000BF36BF36BF36BF36BF3682104108410813
:1060A00041084108410841084108410841084108A8
:1060B000410841080000BF36BF3600F800F800F87C
:1060C00000F800F800F800F800F800F8BF36BF3616
:1060D000A210200041084108410841084108410838
:1060E00041084108410841082000A210D7BDBF3631
:1060F000BF36BF36BF36BF360000000000000000CC
:106100004108410841084108410841084108410847
:1061100020008210E318BF36BF3600F800F800F800
:1061200000F800F800F800F800F800F8BF36BF36B5
:10613000C3184108200020004108410841084108D7
:1061400041084108410841080000CB5ABF36BF361C
:10615000BF36BF36BF36BF3600000000000000006B
:1061600041084108410841082000200061084529F4
:106170006D6BBF36BF36BF36BF36BF3600F800F88E
:1061800000F800F800F800F800F8BF36BF36BF3658
:10619000BF36BF36AA528631A210610841084108B5
:1061A0004108610861088210494ABF36BF36BF36D0
:1061B000BF36BF36BF36BF3600000000000000000B
:1061C0004108410820002000A2102842718CBF36EF
:1061D000BF36BF36694A2000BF36BF36BF3600F82B
:1061E00000F800F800F800F8BF36BF36BF364108A7
:1061F000694ABF36BF36BF36BF36BF363084CF7B25
:10620000CF7B3084718C14A5BF36BF36BF36BF3606
:10621000BF36BF36BF36BF360000000000000000AA
:1062200041082000C3182842F39CBF36DFFFBF3669
:106230000C63E318200041086108BF36BF36BF3643
:10624000BF36BF36BF36BF36BF36BF366108200007
:106250002000C318AA52BF36BF36BF36DFFFBF3695
:10626000BF36BF36BF36BF36BF36BF36BF36BF3686
:10627000BF36BF36BF36BF3600000000000000004A
:1062800020002842B6B5BF36DFFFBEF755ADA631B8
:10629000200041084108410841082000BF36BF36B0
:1062A000BF36BF36BF36BF36BF3661084100410832
:1062B0004108410820008210A631BF36BF36BF36E4
:1062C000BF36BF36BF36BF36BF36BF36BF36BF3626
:1062D000BF36BF36BF36BF36BF366529A210652927
:1062E0003084BEF7BF36BF367DEF1084A210200089
:1062F00041084108410841082000C318BF36AA528E
:10630000000000000000E739BF36042120004108EA
:106310004108410841084108200000006108284266
:10632000BF36BF36BF36BF36BF36BF36BF36BF36C5
:10633000BF36BF36BF36BF36BF36BF36BF36BF36B5
:10634000BF36BF36BF36BEF710848210200041082A
:10635000410841084108410820002C63BF36C3189A
:10636000200020002000A210BF3692942000410897
