:020000040800F2
:10000000A0090020C9110008C5110008C511000889
:10001000C5110008C5110008C51100080000000046
:10002000000000000000000000000000C5110008F2
:10003000C511000800000000C5110008C511000826
:10004000C5110008C5110008C5110008C511000838
:10005000C5110008C5110008C5110008C511000828
:10006000C5110008C5110008C5110008C511000818
:10007000C5110008C5110008C5110008C511000808
:10008000C5110008C5110008C5110008C5110008F8
:10009000C5110008C5110008C5110008C5110008E8
:1000A000C5110008C5110008C5110008C5110008D8
:1000B000FD0E0008C5110008C5110008C511000893
:1000C000C5110008350F000831100008C5110008DF
:1000D00041100008C5110008C5110008C51100082D
:1000E000C5110008C5110008C51100080000000076
:1000F0000000000000000000000000000000000000
:1001000000000000000000005FF808F110B5054C89
:10011000237833B9044B13B10448AFF300800123B3
:10012000237010BD980400200000000008CF0008D4
:10013000084B10B51BB108490848AFF300800848C8
:10014000036803B910BD074B002BFBD0BDE810407E
:10015000184700BF000000009C04002008CF0008E2
:100160009404002000000000224A038890429BB2C1
:1001700012D002F5006290420ED0B0F1804F0BD049
:10018000A2F59832904207D002F58062904203D0E7
:1001900002F58062904203D14A8823F07003134332
:1001A000154A904208D002F5806290421FBF23F4A6
:1001B0004073CA889BB2134303808B8883850B8866
:1001C00003850C4B98420FD003F5006398420BD087
:1001D00003F54063984207D003F58063984203D04B
:1001E00003F58063984201D10B7A03860123838251
:1001F000704700BF002C014000100040038C30B558
:1002000023F480731B041B0C0384038C8488828B6F
:100210000D8822F073021204120C23F400731543AC
:100220001B040A891B0C43EA02234A88A4B243EA4E
:100230000223124A9BB2904203D002F50062904220
:1002400015D123F400634A899BB243EA02224FF698
:10025000FF3313408A8824F4405443EA02238A89F6
:100260009BB244EA0214CA8944EA0214A4B2CA88BE
:10027000848085838287038430BD00BF002C0140C9
:10028000038C30B523F480531B041B0C0384038CB4
:100290008488828B0D8822F4E6421204120C23F427
:1002A000005342EA05221B040D891B0C43EA053367
:1002B0004D88A4B243EA05330A4D92B2A8429BB2DC
:1002C00003D005F50065A84205D18D8924F480444A
:1002D00044EA8514A4B284808283CA88A0F84020AE
:1002E000038430BD002C0140038819B19BB243F058
:1002F000010303E023F001031B041B0C0380704780
:10030000038819B19BB243F0800303E023F080031C
:100310001B041B0C03807047838B23F008031B0412
:100320001B0C194381837047838B23F400631B04E8
:100330001B0C43EA012189B281837047C94389B20A
:1003400001827047014B1878704700BFB404002049
:1003500010B50C4B421C995C302906D120219954D0
:10036000821C9C5C302C08BF9954411D5B5C054A83
:10037000302B06D1202353540630115C302908BF9E
:10038000135410BDCA0400202DE9F843704C714D80
:1003900027462E1D4FF0000804F1010915F8013C15
:1003A0005FFA88F03A2B40F0BF8015F8023C422BF0
:1003B00054D01CD8322B00F08280332B40F0B48014
:1003C000482262724522E372A272FFF7C1FF2B78C6
:1003D00063766B78A376AB78E376337884F829304C
:1003E000737884F82A30AB7984F82B309CE0482B62
:1003F00004D0542B02D0452B40F09680237848221D
:10040000012B4FF0450313D12371E270FFF7A0FFDA
:100410002B78A3746B78E374AB782375337884F806
:100420002230737884F82330AB7984F824307BE071
:10043000A3703123E3706270FFF78AFF2B78637437
:100440006B78A374AB78E374337884F821307378D5
:1004500084F82230AB7984F8233065E02278452196
:10046000012A4FF0440214D1E37121726272FFF746
:100470006FFF2B78E3756B782376AB7863763378F0
:1004800084F82730737884F82830AB7984F82930E1
:100490004AE0A373E1732274FFF75AFF2B78A37726
:1004A0006B78E377AB7884F82030337884F82E309B
:1004B000737884F82F30AB7984F8303034E0E3710E
:1004C000237848226271012B4FF04502A27111D0AE
:1004D000FFF73EFF2B787B756B78BB75AB78FB75B0
:1004E000337887F82530737887F82630AB7987F82A
:1004F000273019E0032323702022002303F809206A
:100500000133092BFAD1144B202103F1090203F81E
:10051000011F9A42FBD1114B202103F1090203F87C
:10052000011F9A42FBD1D3E708F10108B8F1140F7B
:1005300005F1010506F101067FF430AF084A0023FA
:10054000202199540133142BFBD1BDE8F88300BF5F
:1005500000000020CB04002010000020200000201C
:10056000CA040020F8B5274B5B78012B16D1264F23
:100570000024611D89B2002001F096F92601F6B22F
:1005800000257319DBB23B445878013501F0CEF9F0
:10059000102DF6D10134032CEBD12EE005210020E3
:1005A00001F082F9194C04F1100514F8010F01F063
:1005B000BDF9A542F9D10621002001F075F9144CCE
:1005C00004F1100514F8010F01F0B0F9AC42F9D1B3
:1005D0000721002001F068F90E4C04F1100514F811
:1005E000010F01F0A3F9A542F9D10B4B93F8663046
:1005F000312B02BF044B03221A70084B4FF40072D8
:100600001A61F8BDB4040020000000202D05002070
:100610004105002055050020CA040020000C0140BF
:100620001C4B5B78012B1C4B21D198689A6880F495
:100630008060C0F3802011059A6858BF40F0200008
:100640009B6858BF40B2D20458BF40F00200190462
:10065000124B58BF40F010009A689B68120758BFB1
:1006600040F04000D90613D460F07F0010E09A6893
:1006700012F4806F9A6814BF002004209B68120552
:100680005CBF40F0080040B2DB0458BF40F01000EF
:10069000C0B27047B404002000080140000C0140C3
:1006A00038B5144B93F8C910134B01F00F059A7825
:1006B0001C466A4012F0080F1AD0104B11F0080FB8
:1006C0001B780BD0012B0E4A07BFC0214FF480705E
:1006D00084214FF4887001F07DF809E0012B07BFF9
:1006E000C0214FF4807084214FF4887001F09EF88F
:1006F000A57038BDCA040020B4040020000000200A
:1007000004510008074B9B8853B1074B7F22A3F885
:1007100040204FF0804213889BB243F001031380C6
:10072000704700BFB4040020000400402DE9FF47DB
:10073000A24A01AB51681068A14C03C31189927A97
:1007400019809A709F4B93F8C850984615F0010F86
:1007500005F07F0600F085801F214FF6E07001F064
:100760008DF86378012B984B44D104270222C3F8FB
:1007700084200021C3F88470944801F095FBDA22AC
:100780003946384601F036F9DFF850820DEB0700A4
:1007900001F03EF94FF40079BF2001F0C7F8B32211
:1007A00005213846C8F8109001F024F9884801F076
:1007B0002FF9B32001F0BAF8B32206213846C8F861
:1007C000109001F017F9834801F022F9B32001F0ED
:1007D000ADF8C02207213846C8F8109001F00AF998
:1007E0000DEB070001F014F9D92001F09FF8C8F8CB
:1007F000109028E01022C3F884200021764801F0F0
:100800008EFA4FF0150A4FF000091FFA89F1002007
:1008100001F04AF8AAF11407FFB27B1EDBB218F808
:10082000030001372D2808BF0B20FFB201F07EF82E
:10083000BA45F2D10AF1140A5FFA8AFABAF1650FE1
:1008400009F10109E1D1654B4FF400721A610021F1
:100850004FF6FF7001F012F84FF4FA73A380FFF720
:1008600051FF5F4B1B78012BA37983EA06033CD130
:1008700098070BD5A90705D55A4AC021102000F0CA
:10088000A9FF03E0C021102000F0D0FFA37973403E
:10089000DA060BD5EB0605D5534AC021602000F0DF
:1008A00099FF03E0C021602000F0C0FFA3797340EE
:1008B0009F060BD5A80605D54C4AC021B02000F0F4
:1008C00089FF03E0C021B02000F0B0FFA37973409E
:1008D00059066ED56A0604D5454AC0214FF480708A
:1008E0005FE0C0214FF4807061E09B070DD505F0FB
:1008F000020303F0FF002BB13E4AC021002000F0AC
:1009000069FF02E0C02100F091FFA37973405F0707
:100910000BD5680705D5384AC021402000F05AFFA2
:1009200003E0C021402000F081FFA3797340190744
:100930000BD52A0705D5314AC021802000F04AFF97
:1009400003E0C021802000F071FFA3797340DB0633
:100950000BD5EF0605D5244AC021D02000F03AFF80
:1009600003E0C021D02000F061FFA3797340980616
:100970000DD5A90606D51D4AC0214FF4887000F098
:1009800029FF04E0C0214FF4887000F04FFFA379E5
:1009900073405A060DD56B0606D5154A84214FF4CF
:1009A000887000F017FF04E084214FF4887000F095
:1009B0003DFFA67104B0BDE8F08700BF50200008DD
:1009C000B4040020CA04002000E100E00058004008
:1009D000722000087D20000800380040000C014013
:1009E0000000002004BD000804750008046300082E
:1009F0000451000804AB00080499000804870008AB
:100A000073B52A49902591F8C9200023100902F0F6
:100A10000F020138013A95FBF0F095FBF2F5C6B2F2
:100A2000EDB20133DBB2CA5C2C2AFAD11F4C1C4454
:100A300014F8010C14F8024C3038282C18BF303C44
:100A4000C2B21CBF04EB840402EB44024FF6FF74F5
:100A50000B4499785B7818BFD2B229291FBF303B6D
:100A6000303903EB830301EB430108BFA3F13001ED
:100A700002FB06F014BF01F0FF01C9B269430C4B41
:100A800000F110025A86C1F1A8029A86C1F1AB03A7
:100A900000F11302C1F1A5010D3000949BB292B296
:100AA00089B280B200F070FE02B070BDCA040020AE
:100AB000000000200B4A92F8393092F83A00202BBF
:100AC00018BF303BA0F13000C0B21CBF03EB830362
:100AD00000EB430092F8383018BFC0B2312B08BF8A
:100AE00064207047CA0400202DE9F04186460E4676
:100AF000604B88B002AA03F11005144618685968C3
:100B0000083303C4AB422246F7D118689B880EEB2A
:100B10004E05594F2060A380ED00EDB2F87905F144
:100B20001704E4B200285AD1714600F0BDFE4FF020
:100B30001408202008F1FF3800F0F8FE18F0FF0834
:100B4000F7D10521102000F0AFFE202000F0EEFECE
:100B5000202000F0EBFE202000F0E8FE202000F036
:100B6000E5FE0621102000F09FFE202000F0DEFEB2
:100B7000202000F0DBFE202000F0D8FE202000F036
:100B8000D5FE0721102000F08FFE202000F0CEFEC1
:100B9000202000F0CBFE202000F0C8FE202000F036
:100BA000C5FE4046082100F07FFE4FF014082020CB
:100BB00008F1FF3800F0BAFE18F0FF08F7D1404600
:100BC000092100F071FE4FF01408202008F1FF38D1
:100BD00000F0ACFE18F0FF08F7D10123FB714FF6CF
:100BE000E078ADB2A4B20922234629461046CDF8DA
:100BF000008000F0C9FD2B46294640F237120A203A
:100C0000CDF8008000F0C0FD2346214640F23712A7
:100C10000A20CDF8008000F0B7FD40F23712013C09
:100C20000135A4B22346CDF800802946104600F0D5
:100C3000ABFD3B7A9E4219D00ED90A20B6FBF0F3E9
:100C400008A901EB430333F8183C06EB4602009376
:100C500002442346294606E0002300932946234602
:100C60004FF49B720A2000F08FFD3E7208B0BDE881
:100C7000F08100BF5C200008B4040020F8B5194ED4
:100C80000446335C0D463E2B01D0032B05D1164B99
:100C90000020D8714FF6FF7102E04FF6FF7000217F
:100CA00000F0ECFD2946002000F0FEFD002545B9CE
:100CB000335D3E2B05D1202000F038FE0134A4B274
:100CC00001250135305DEDB2671C00F02FFE132DBC
:100CD000BFB201D83C46EAE7044B4FF400721A61F8
:100CE0003846F8BDCA040020B4040020000C0140BE
:100CF0002DE9F84F7B4C637A052B00F0E78005D88F
:100D0000032B22D0042B00F0D180E7E0062B05D086
:100D1000FE2B40F0E380002000F010FD724A00231B
:100D2000202199540133302BFBD17049002320201E
:100D300058540133C82B6D4AFAD10023A37182F8AD
:100D4000C830A37082F8C930C8E06378674E012BC1
:100D500060D1337D582B01D1FFF716FB4FF000080F
:100D60004546DFF888A1DFF890B1042D15D1337D19
:100D7000202B12D03E2B10D09AF8C8302BB9FFF799
:100D800099FE01462846FFF7AFFEFFF7EBFB0A2569
:100D9000FFF7CCFCFFF784FC2BE02946002000F095
:100DA00083FD002708EB07091FFA89F997B916F8A0
:100DB00009303E2B09D14FF6FF713846E77100F03C
:100DC0005DFD20230AF8093004E039464FF6FF7034
:100DD00000F054FD16F80900013700F0A7FD142FAC
:100DE000E0D108F114084FF400731FFA88F8CBF82B
:100DF00010300135ADB2092DB7D9A27A3C4B32B1D2
:100E00007F22A3F84020374B00229A7266E0A3F8B5
:100E1000402063E096F8C85015F0010502D0FFF7B6
:100E200085FC40E029464FF6FF7000F027FD314B6E
:100E3000B3F93630CA2B28D12F46B046735D252B27
:100E400008D108EB05035978F8B21435FFF74CFECA
:100E5000ADB210E0052F09D198F80030582B05D11C
:100E6000FFF780FB0A27FFF761FC04E02846F9B290
:100E7000FFF704FF05460137BFB2092FDED93378EB
:100E8000DA2B10D1FFF7BCFD0DE0A089335C252BD8
:100E9000A37B05D1064471781846FFF725FE02E0D2
:100EA0001946FFF7EBFE0023E37317E06378ABB955
:100EB0000E4B19785A7802EB0122A2809A78DB78DF
:100EC00003EB02232382FFF71DFC07E0074A11789A
:100ED0005378074A03EB01239BB2938700232370C7
:100EE000BDE8F88FB404002001000020CA040020EF
:100EF0000004004000000020000C014008B5012162
:100F00004FF08040FFF71AFA084B9A8812B1013A65
:100F10009A8008BD4FF080410B8823F001031B0429
:100F20001B0C0B80024BA3F8402008BDB40400202A
:100F30000004004010B5364C204600F0CAFF354B87
:100F400098420AD002D8102834D010BD324B9842B3
:100F50004FD00233984256D010BD304A238AD17BFD
:100F6000DBB22F4C49B94FF6FF715372033B022B92
:100F7000E1864CD80123D37310BD517A032912D1D5
:100F8000B4F93610481C07D1937303EB83039B001D
:100F900093810023E38610BD90898AB2511CE186BB
:100FA0002049014404E0E28E1E49013212B2E28679
:100FB0008B5410BD194B5A7A42B10121072A19707E
:100FC00004D103225A72164BCA22DA86104B9A8A2F
:100FD000920702D59A8A1A8BF9E70D4A938ADB06A3
:100FE00006D5938A13889BB243F001031380F5E77B
:100FF00010BD0D4A0D49938C5BB20B7000219BB262
:101000009184238210BDFFF70BFB80B2208210BDBC
:10101000005800404000020082000600B404002096
:1010200000000020CA040020002C0140940500208C
:10103000024A938ADBB29382704700BF0058004097
:1010400070B51E4B1E4CD97BA2890120D2B25870BC
:1010500031BB032A19D004D8824208D0022A0BD00F
:1010600070BD052A17D014D3FE2A0CD070BDFFF72F
:10107000D7FA80B2A08170BD124A938C91845BB282
:101080009BB2A38170BD5A7215E05A72CA22DA73FC
:1010900003E0987270BD5A72D8730B4BD98670BD3D
:1010A000094D0139B5F93640C9B2661CEE86074DC7
:1010B000D9732A5501B9187070BD00BFB40400205F
:1010C00000380040002C014000000020CA0400202D
:1010D000384B82B01A6842F001021A605968364AE9
:1010E0000A405A601A6822F0847222F480321A6030
:1010F0001A6822F480221A605A6822F4FE025A60AA
:101100004FF41F029A600022009201921A6842F482
:1011100080321A601A6802F400320192009A013299
:101120000092019A1AB9009AB2F5A06FF2D11A682A
:1011300012F4003218BF01220192019A012A05D04F
:101140001E4B4FF000629A6002B070471C4A116853
:1011500041F010011160116821F003011160116864
:1011600041F0020111605A685A605A685A605A6820
:1011700042F480625A605A6822F47C125A605A68BB
:1011800042F4E8125A601A6842F080721A601968D4
:10119000084A8901FBD5516821F00301516051686B
:1011A00041F0020151605A6802F00C02082AFAD19B
:1011B000C6E700BF001002400000FFF800ED00E0AD
:1011C00000200240FEE7000008B50C4A0C4B0D4918
:1011D0008B4204D252F8040F43F8040BF8E70A4894
:1011E0000A494FF000028842B8BF40F8042BFADBEE
:1011F000FFF76EFFBDE8084000F05CB804CF0008C0
:10120000000000209804002098040020A005002081
:10121000CA782DE9F041D40648BF8C780E8802F0D8
:101220000F0348BF234316F0FF0F1ED001680024B0
:101230004FF0010E4FF00F0C0EFA04F737EA0605D7
:101240000FD1A5000CFA05F821EA080103FA05F50B
:10125000282A41EA050101D1476102E0482A08BF76
:1012600007610134082CE7D10160FF2E20D94168C5
:1012700000244FF0010E4FF00F0C04F108050EFA98
:1012800005F535EA06070FD1A7000CFA07F821EAA1
:10129000080103FA07F7282A41EA070101D145614D
:1012A00002E0482A08BF05610134082CE5D14160FD
:1012B000BDE8F08108B572B600F08CF800F0C6FB0E
:1012C00062B6FFF73FF80028FBD0FFF711FDF8E703
:1012D00010B5194C86B001214FF4804000F0BEF9E2
:1012E0002046002100F01BFD00232822ADF8043029
:1012F000ADF80630ADF80830ADF80A30ADF80C3076
:10130000ADF80E30ADF8123001A907232046ADF834
:101310001430ADF8102000F0E3FC2046012100F06D
:10132000FEFC01226021204600F005FD034B102247
:101330005A6006B010BD00BF0038004000E100E078
:101340007FB5214C01214FF4800000F087F9204641
:10135000002100F0A9FD1D4B002500934BF6FF7303
:10136000ADF806304023ADF808304FF480664FF4F6
:10137000804369462046ADF80C30ADF80450ADF816
:101380000A6000F027FD2046012100F08DFD204677
:1013900001224FF4007100F093FD314620460122F6
:1013A00000F08EFD01224FF48071204600F088FD90
:1013B000074B022283F821535A60042283F82253F8
:1013C0005A6004B070BD00BF00580040A086010004
:1013D00000E100E02DE9F04F784C89B0FFF778FE8E
:1013E00000F0B8FCA369764E43F00D03A361736867
:1013F000744D4FF0100ADFF8DC9143F00073736016
:101400004FF0030B4FF470730DEB0A012846ADF853
:101410001030FF278DF812B08DF813A0FFF7F8FEFB
:101420000DEB0A0148464FF04808ADF81070FFF781
:10143000EFFE4FF4E0630DEB0A014846ADF81030C3
:101440008DF81380FFF7E4FE4FF418430DEB0A010B
:101450004846ADF810304FF01809FFF7D9FE0DEBF4
:101460000A012846ADF81090FFF7D2FE0DEB0A01F5
:1014700028468DF81390ADF810B0FFF7C9FE4FF471
:1014800070430DEB0A012846ADF81030FFF7C0FE9F
:101490004FF44063ADF810300DEB0A011C232846D1
:1014A0008DF81330FFF7B4FE20230DEB0A01284618
:1014B000ADF810308DF813A0FFF7AAFEA36901253F
:1014C00043F40063A361404B4FF000091A8B294697
:1014D00092B242F4704242F0F0021A831A8B022058
:1014E00092B242F4807242F001021A8322221A84DC
:1014F0004FF6FF721D819A85A3F824901A8892B244
:101500002A431A80E36904222B43E3614FF08043AE
:101510001A804FF47A72A3F82880A3F824909A8551
:101520009D819D82294B4FF080521A6000F096F801
:1015300073684FF47A3243F400637360244BA4F56C
:1015400003341B6801A9B3FBF2F32046ADF8043065
:10155000ADF80870ADF80A90ADF80690FEF704FEFD
:1015600060230DEB0A012046ADF81030ADF818905D
:10157000ADF81250ADF81690FEF782FE2046082115
:10158000FEF7D2FEC8230DEB0A012046ADF8163057
:10159000FEF734FE20460821FEF7BEFE294620460F
:1015A000FEF7AEFE29462046FEF79EFEFFF790FEB0
:1015B000FFF7C6FE09B0BDE8F08F00BF0010024083
:1015C00000000140000C0140002C014000E100E05F
:1015D00038000020000801401C4A10B5536803F091
:1015E0000C03042B01D0082B01D0194B0EE05368DB
:1015F0005168C3F38343CC0303F1020302D551685E
:10160000890301D5134900E011494B430360536836
:101610001149C3F30313CC5C0368E340436054688F
:10162000C4F302240C5D23FA04F484605468C4F308
:10163000C2240C5DE340C3605268C2F381320A44A5
:10164000127CB3FBF2F3036110BD00BF0010024037
:1016500000127A0000093D004C000020044BDA69BA
:1016600009B1104301E022EA0000D861704700BFD1
:1016700000100240114B4FF0807270B51A6102F1F8
:101680007C5202F58432FF26002456614FF4000597
:10169000146180241D611C61566110614FF48070DB
:1016A0001D611C611861080AC9B2566110611D6193
:1016B0001C61566111611D611C6170BD000C01400F
:1016C0002DE9F04190460F461D4606461A4C4FF054
:1016D0000073236101465220FFF7CCFF414653209F
:1016E000FFF7C8FF39465020FFF7C4FF29465120B5
:1016F000FFF7C0FF31462120FFF7BCFF294620201D
:10170000FFF7B8FF4FF08073236103F17C5303F5BB
:101710008433FF20002258614FF400011A618022B7
:10172000216122615861222018614FF48073216188
:1017300022612361BDE8F081000C01400021F8B571
:1017400040F23F12EF23060AC4B20846FFF7B8FF83
:101750000B4A0C4B4FF49631FF274FF400058020C5
:101760000139576116611D611861576114611D616E
:101770001861F5D1034B4FF400721A61F8BD00BF38
:1017800000080140000C0140F8B55C1ABDF8185083
:10179000171A0134FFF794FF0C4A0D4B2E0A07FB72
:1017A0000444EDB2FF274FF40000802114F1FF3410
:1017B00057611661186119615761156118611961E6
:1017C000F4D2034B4FF400721A61F8BD00080140D7
:1017D000000C0140F8B5144601F12F0300F12F026F
:1017E0009BB292B2FFF76CFF0E4A0F4B04F5905775
:1017F000FF264FF40005802034F8021B56614FEAA3
:10180000112EBC42C9B2C2F810E01D6118615661C8
:1018100011611D611861EFD1034B4FF400721A6121
:10182000F8BD00BF00080140000C014001F12F038A
:1018300000F12F0270B59BB292B2FFF741FF0D4944
:101840000D4A4FF41063FF2600254FF4000480205A
:10185000013B9BB24E610D61146110614E610D61DF
:1018600014611061002BF3D1034B4FF400721A6125
:1018700070BD00BF00080140000C0140064B020A89
:101880001A80064BC0B21880054B0A0A1A80054B15
:10189000C9B21980704700BF960500209805002046
:1018A0009A0500209E05002010B5044601EB410179
:1018B000C90089B201F1170300019BB280B240F266
:1018C0003F12FFF7FDFE014B1C8010BD9C05002060
:1018D00070B58CB003466C46134A02F128062546C3
:1018E00010685168083203C5B2422C46F7D110681F
:1018F000918892792860AA7103F16002D2B2272AF6
:10190000A98004D80CAA134413F8D00C09E003F101
:101910002002D2B2062A8FBF18460CAA9B1813F8D1
:10192000E80C0CB070BD00BF885000082DE9F84FDE
:10193000274A0346127812B9FFF7CAFF0346254A21
:10194000302000FB0320DFF89CA0234B234ADFF864
:1019500098B000F130098026DFF89080DFF890C061
:1019600008218027FF254FF4000490F800E05D6116
:1019700017EA0E0F0BD0B8F800E01FFA8EFEC3F87E
:1019800010E0146116615D61BCF800E00AE0BAF88D
:1019900000E01FFA8EFEC3F810E0146116615D616D
:1019A000BBF800E001391FFA8EFE11F0FF01C3F809
:1019B00010E04FEA570714611661D6D10130814516
:1019C000CAD1074A138801331380BDE8F88F00BFDE
:1019D000B50400208820000800080140000C0140E8
:1019E0009C0500209A0500209E05002096050020F9
:1019F00098050020132810B5144608D8092906D8E0
:101A0000FFF752FF2046BDE81040FFF78FBF10BD23
:101A100038B5064D441E14F8010F28B12B88132B3E
:101A200002D8FFF783FFF6E738BD00BF9C05002012
:101A300010B51446FFF738FF2046FFF7E9FF024BC9
:101A40004FF400721A6110BD000C01402DE9F04105
:101A5000984D80264FF400774FF480784FF4800340
:101A60002F610A202E61C5F810802B6100F090F9DB
:101A700040232B61322000F08BF94FF000732B6173
:101A8000642000F085F94FF080732B6103F17C53E3
:101A900003F584334FF400020024FF215961022032
:101AA0001C612A612E6159611C612A612E61596194
:101AB0001C612A612E6159611C6139462A612E61BF
:101AC000C5F81080FFF7D6FD41460120FFF7D2FD93
:101AD0004FF481510320FFF7CDFD4FF41C516020DE
:101AE000FFF7C8FD21460420FFF7C4FD40F207219F
:101AF0000820FFF7BFFD21460920FFF7BBFD214667
:101B00000A20FFF7B7FD21460C20FFF7B3FD214661
:101B10000D20FFF7AFFD21460F20FFF7ABFD21465B
:101B20001020FFF7A7FD07211120FFF7A3FD214695
:101B30001220FFF79FFD21461320FFF79BFD012197
:101B40000720FFF797FDC82000F022F941F29061CD
:101B50001020FFF78FFD40F227211120FFF78AFDAB
:101B6000322000F015F90D211220FFF783FD3220FD
:101B700000F00EF94FF490511320FFF77BFD0A217E
:101B80002920FFF777FD0D212B20FFF773FD322071
:101B900000F0FEF821462020FFF76CFD21462120B1
:101BA000FFF768FD21463020FFF764FD40F2044155
:101BB0003120FFF75FFD03213220FFF75BFD40F28C
:101BC00005413520FFF756FD40F608013620FFF7A6
:101BD00051FD40F207413720FFF74CFD40F2033141
:101BE0003820FFF747FD40F207713920FFF742FD2B
:101BF00040F204513C20FFF73DFD40F608013D2036
:101C0000FFF738FD01216120FFF734FD21466A20EE
:101C1000FFF730FD21463046FFF72CFD214681209D
:101C2000FFF728FD21468220FFF724FD214683206F
:101C3000FFF720FD21468420FFF71CFD214685206B
:101C4000FFF718FD10219020FFF714FD2146922088
:101C5000FFF710FD40F233110720FFF70BFD2F6156
:101C60002046154DFFF76AFD1F214FF6E070FFF784
:101C700005FE2A4621462046FFF7DAFE20460F4A97
:101C80000121FFF7D5FE2A4620460221FFF7D0FEAC
:101C900021464FF6FF70FFF7F1FD2046084A042168
:101CA000FFF7C6FEBDE8F041064A05210420FFF714
:101CB000BFBE00BF000C0140B7500008CC50000868
:101CC000E1500008F6500008044B04281A680CBFC5
:101CD00042F0040222F004021A60704710E000E0B3
:101CE00003880A8810B503F441544B8813438A884B
:101CF0001343CA8813430A8913434A8913438A89C1
:101D00001343CA89134323439BB20380838B23F479
:101D100000631B041B0C83830B8A038210BD0388A2
:101D200019B19BB243F0400303E023F040031B04CE
:101D30001B0C038070470123090903FA01F1838812
:101D400089B29BB20AB1194301E023EA0101818003
:101D5000704700007FB501A8FFF73EFC6FF004005C
:101D6000FFF7B2FF002000F0D7F8029B064A0749B0
:101D7000B3FBF2F20A704FF4FA52B3FBF2F34B806A
:101D800007B05DF804FB00BF00127A00C604002013
:101D900008B50F4B5B8858436FF07F439842A8BF4C
:101DA000184600F09FF8002000F0A2F8012000F093
:101DB0009FF8102000F0BCF80128FAD16FF0010064
:101DC00000F096F8BDE80840002000F091B800BF90
:101DD000C604002070B586B00446868801A80D466A
:101DE000FFF7FAFB039A2E4826F03F06B2FBF0F00D
:101DF0003604360C81B20E43A6802388294E23F088
:101E000001031B041B0C23802B68B3420AD85B0020
:101E1000B2FBF3F301319BB2032B89B298BF0423C9
:101E2000218423E04BF6FF71EE888E421BBF1921FF
:101E30004B4303EB4303B2FBF3F30BBFB2FBF3F3F0
:101E40009BB29BB243F48043C3F30B020AB943F045
:101E500001034FF4967101FB00F24FF47A7192FB8B
:101E6000F1F2013292B243F400432284A383238827
:101E7000A9889BB243F00103238023886A8923F455
:101E8000816323F002031B040A431B0C13439BB220
:101E90002380AA892B8913439BB2238106B070BD8E
:101EA00040420F00A0860100038819B19BB243F0A5
:101EB000010303E023F001031B041B0C03807047A4
:101EC00083889BB20AB1194301E023EA01018180B2
:101ED0007047838A008B9BB243EA004020F07F402A
:101EE00070470000014B5860704700BF10E000E0F1
:101EF0000128084B03D11A6842F0010204E00230C5
:101F000004D11A6822F001021A60704700229A6018
:101F1000704700BF10E000E0044B1A6810B142F0B7
:101F2000020201E022F002021A60704710E000E0B5
:101F3000C308022B044B0CBF1B68DB6823FA00F0BC
:101F400000F00100704700BF10E000E0024B13B149
:101F5000024800F005B87047000000006D1F00083F
:101F6000002301461A46184600F014B838B5074D4C
:101F7000074C2C1BA41005D0013C55F8043D984794
:101F8000002CF9D1BDE8384000F05CB89404002082
:101F9000900400202DE9F047254C06462568884628
:101FA000D5F8484192469946C4B360681F2817DCAB
:101FB000411C76B104EB8003C3F888A0D4F88851A3
:101FC000012282401543022EC4F88851C3F80891BB
:101FD0001ED0831C6160002044F82380BDE8F08798
:101FE000144B03B34FF4C870AFF300800446D0B174
:101FF000D5F84831002784E888003846C5F84841BC
:102000000121C4F88871C4F88C71002EE1D0D1E7A9
:10201000D4F88C311A43C4F88C21DAE705F5A6749C
:10202000C5F84841C1E74FF0FF30BDE8F08700BF79
:1020300004CF000800000000F8B500BFF8BC08BCE1
:102040009E467047F8B500BFF8BC08BC9E46704776
:10205000C4C4C4C4C4C4C4C4C4C4000000FCC0FC20
:1020600080FD40FE20FFE0FFE0CFE097E067E03733
:10207000E0072020204F70656E202020002048615E
:1020800072647761726520000000000000000000AB
:102090000000000000000000000000000000000040
:1020A0000000000000000000000000000000000030
:1020B0000000000000000000000000000000000020
:1020C000000000E00003F800031800060C00060CF6
:1020D00000060C0003180003F80000E000000000F8
:1020E00000000000000000000000C00000C0000070
:1020F000C001FFFC03FFFC0700C00600C00600C0D3
:102100000600D806003C0200660000C30000C300C1
:10211000006600003C0000180000000000000008FD
:1021200000000C00000E00000F00000F80000FC028
:10213000000FE0000FC0000F80000F00000E000035
:102140000C00000800000000000E0007DF8001D135
:10215000E001C0600340300340300600180600185C
:102160000600180600180300B00300B00180E0016B
:10217000E2E0007EF8001C000FFFF80FFFB80FFF31
:10218000B80EDBB80EDBB80EDBB80EDBB80EDBF832
:102190000EDB800EDB800EDB800EDB800EDB800F23
:1021A000FF800FFF800FFF80000000000000003064
:1021B0000000780000FC0002FE0002FF00037F80A8
:1021C00001FFC0037F8002FF0002FE0000FC000050
:1021D0007800003000000000001E00007F8000E159
:1021E000C001806003003003003006001806181894
:1021F000063C1806661803C33003013001806000F6
:10220000E1C0007F80001E00000000000000000010
:1022100000000000000000000000000000FFFFFFC1
:10222000FFFFFF00000000000000000000000000B1
:102230000000000000000000001800001800001856
:1022400000001800001800001800001800FFF80037
:10225000FFF8000000000000000000000000000087
:10226000000000000000000000000000000000006E
:1022700000000000000000000000000000001FFF40
:10228000001FFF00180000180000180000180000D0
:1022900018000018000018000018000018000018AE
:1022A00000001800001800001800001800001800B6
:1022B00000180000180000180000180000180000A6
:1022C00018000018000018000000000000000000C6
:1022D00000000000001F00063F800671C00660C0BD
:1022E0001FE0C01FE0C00660C00671C0063F80004E
:1022F0001F000000000000000000000000000000BF
:10230000000000000000003800003C00001FFFF04B
:102310000000E0000380000700001E000000000035
:1023200000000000000000000000000000000000AD
:10233000003800003C00001FFFF0000630000630AF
:102340000003180003180003180E018C0F018C07FE
:10235000FFFC000000000000000000001000001062
:1023600000027C8001C7000101000301800200809F
:102370000E00E002008003018001010001C700029D
:102380007C80001000001000000000000000000031
:10239000003FFFF81FFFF00FFFE007FFC003FF80C3
:1023A00001FF0000FE00007C00003800001000006B
:1023B000000000000000000000000000000000001D
:1023C00000001000003800007C0000FE0001FF004B
:1023D00003FF8007FFC00FFFE01FFFF03FFFF80083
:1023E00000000000000000000000000000000000ED
:1023F0000000000000000008001010000830000C71
:102400007FFFFE30000C10000808001000000000E4
:1024100000000000000000000000000000000000BC
:10242000000000000000000E7FFE0E7FFE00000096
:102430000000000000000E7FFE0E7FFE0000000086
:10244000000000000000000000000000000000008C
:10245000000000F80001FC00030600020200020276
:102460000FFFFE0FFFFE0000020000020FFFFE0F35
:10247000FFFE00000000000000000000000000005F
:10248000000000000418000C3C0018666018C3F03F
:1024900019C3981FC298066618003C300018200027
:1024A000000000000000000000000000000000002C
:1024B000000F00000F00000F00000F00000F0000D1
:1024C0000F00000F00000F00000F00000F00000FB2
:1024D00000000000000000000000000000000000FC
:1024E000000000000000004200104400084C000CF6
:1024F0005FFFFE4C000C440008420010000000008A
:1025000000000000000000000000000000000000CB
:102510000000000000000000001000000800000C97
:102520007FFFFE00000C000008000010000000000B
:10253000000000000000000000000000000000009B
:102540000000000000000008000010000030000043
:102550007FFFFE30000010000008000000000000B7
:10256000000000000000000000000000000000006B
:102570000000080000080000080000080000080033
:10258000000800000800004900003E00001C000098
:102590000800000000000000000000000000000033
:1025A00000000800001C00003E0000490000080078
:1025B00000080000080000080000080000080000F3
:1025C0000800000000000000000000000000000003
:1025D0000001FFF001000001000001000001000007
:1025E00001000001000001000001000001000001E5
:1025F00000000000000000000000000000000000DB
:1026000000000800001C00002A000008000008006C
:10261000000800000800000800002A00001C00005C
:1026200008000000000000000000000000001C0086
:10263000001F80001FF0001FFE001FFFC01FFFF8DB
:102640001FFFC01FFC001FF0001F80001C000000C7
:10265000000000000000000000000000000000007A
:10266000380001F8000FF8007FF803FFF81FFFF8AB
:1026700003FFF8007FF8000FF80001F800003800B1
:10268000000000000000000000000000000000004A
:10269000000000000000000000000000000000003A
:1026A000000000000000000000000000000000002A
:1026B000000000000000000000000000000000001A
:1026C000000000000000000000000003F0067FF89A
:1026D000067FF80003F0000000000000000000008A
:1026E00000000000000000000000000000000000EA
:1026F000000003000001F80000F8000038000000AE
:102700000000000003000001F80000F8000038009D
:102710000000000000000000000000000000002198
:102720000007210003F900003FC00021F800211834
:1027300006210007F100007F800023F80021180027
:1027400021000000000000000000000000000180E7
:10275000800383F00707F0060618060C181FFFFE1B
:102760001FFFFE060C1806181803183003F070013E
:10277000E0400000000000000000C00003F004067C
:102780001806040803840800E6180073F0001CC053
:1027900000CE0003F3800619C00408700408380650
:1027A000180803F00000C00000000000C00003F0A3
:1027B00000033800070DE00607F0061E18063A1859
:1027C00006E31803C1B80380F003F860063C000676
:1027D0000C000600000000000000000000000000E7
:1027E000000000000000000000000003000001F8ED
:1027F0000000F800003800000000000000000000A9
:1028000000000000000000000000000000000000C8
:102810000000000000000001FF8007FFE01F00F83B
:1028200038001C60000640000200000000000000AC
:102830000000000000000000000000000000000098
:102840000000000000000040000270000E38001C74
:102850001F00F807FFE001FF8000000000000000FB
:102860000000000000000000000000000000000068
:1028700000000000000300003300003A00000FC019
:10288000000FC0003A000033000003000000000009
:102890000000000000000000000000000000000C2C
:1028A00000000C00000C00000C00000C0001FFE018
:1028B00001FFE0000C00000C00000C00000C000008
:1028C0000C000000000000000000000000000000FC
:1028D000000000000000006000003F00001F00003A
:1028E00007000000000000000000000000000000E1
:1028F00000000000000000000000000000000000D8
:1029000000000C00000C00000C00000C00000C008B
:10291000000C00000C00000C00000C00000C00007B
:1029200000000000000000000000000000000000A7
:102930000000000000000000000007000007000089
:102940000700000000000000000000000000000080
:102950000000000000000000000000000000000077
:10296000000C00000F000003C00000F000003C005D
:10297000000F000003C00000F000003C00000C004D
:102980000000000000000000000000000000007FC8
:102990008001FFE003C0F003C030067018063C1849
:1029A000060F180603980300F003C0F001FFE000D3
:1029B0007F80000000000000000000000000000018
:1029C000000600C00600C006006006006006003079
:1029D00007FFF807FFF806000006000006000006E3
:1029E00000000000000000000000000000000000E7
:1029F000000700E00780F007C03006E018067018F6
:102A0000063818061C18060E380607F00603E00004
:102A100000000000000000000000000000000000B6
:102A200000018060038070070038060C18060C183F
:102A3000060C18060C18071E3803FBF001F1E00025
:102A4000400000000000000000000000000000C086
:102A50000000F00000F80000CE0000C70000C1C078
:102A600000C0E000C03807FFF807FFF800C0000012
:102A7000C000000000000000000000000000000096
:102A800000018FF8038FF8070C18060618060618C1
:102A9000060618060618070E1803FC1801F8180099
:102AA0002000000000000000000000000000000006
:102AB0000000FF8001FFE0038C700706380606184F
:102AC000060618060618070E3803FC7001F86000A9
:102AD00000000000000000000000000000000000F6
:102AE0000000001800001800001807C01807F818A8
:102AF000003E18000F980001D80000F800003800D0
:102B000000000000000000000000000000000000C5
:102B10000001F1E003FBF0071E38060C18060C1844
:102B2000060C18060C18071E3803FBF001F1E00034
:102B30000000000000000000000000000000000095
:102B4000000187E0038FF0071C38061818061818D4
:102B5000061818070818038C3001FFF000FFC000AA
:102B60000000000000000000000000000000000065
:102B70000000000000000000000000000000E1C0B4
:102B800000E1C000E1C00000000000000000000003
:102B90000000000000000000000000000000000035
:102BA000000000000000000000000C000007E1C071
:102BB00003E1C000E1C000000000000000000000D0
:102BC0000000000000000000000000000000000CF9
:102BD00000001E00001E0000330000330000210032
:102BE00000618000618000C0C000C0C00180600141
:102BF0008060000000000000000000000000006194
:102C000080006180006180006180006180006180DF
:102C1000006180006180006180006180006180004F
:102C20006180000000000000000000000000018042
:102C30006001806000C0C000C0C000618000618091
:102C4000002100003300003300001E00001E0000C1
:102C50000C00000000000000000000000000000068
:102C6000C00000E000007000003806401806701830
:102C7000003818001C18000E380007F00003E000B0
:102C8000000000000000000000000000FE000383C0
:102C9000800E00E018FC3031FF0823018C22004434
:102CA00021004421E0C411FF0C120388030030010D
:102CB000C0E0007F800000000000000400000780EA
:102CC0000003F00000FE00007FC00061F0006038EB
:102CD0000060380061F0007FC000FE0003F00007D4
:102CE0008000040000000000000000000000000060
:102CF0000007FFF807FFF8060C18060C18060C185A
:102D0000060C18060C18060E38031BF003F1E00140
:102D1000E000000000000000000000000000007F54
:102D20008001FFE003C0F003003007003806001800
:102D300006001806001807003803807001C0E00084
:102D40008000000000000000000000000000000003
:102D50000007FFF807FFF80600180600180600181D
:102D600006001807003803807001E1E000FFC00092
:102D70003F00000000000000000000000000000014
:102D80000007FFF807FFF8060C18060C18060C18C9
:102D9000060C18060C18060C18060C18060C18065B
:102DA0000000000000000000000000000000000023
:102DB0000007FFF807FFF8000C18000C18000C18AB
:102DC000000C18000C18000C18000C18000C18004F
:102DD0000000000000000000000000000000003FB4
:102DE0000000FFE003E1F003803007001806001840
:102DF0000600180618180618380398F003F8E000C3
:102E0000F8000000000000000000000000000000CA
:102E10000007FFF807FFF8000C00000C00000C0092
:102E2000000C00000C00000C0007FFF807FFF80082
:102E30000000000000000000000000000000000092
:102E40000006001806001806001806001807FFF80C
:102E500007FFF806001806001806001806001800FC
:102E60000000000000000000000000000000000062
:102E70000000C00003C00007800006000006001824
:102E800006001807001803FFF801FFF80000000013
:102E90000000000000000000000000000000000032
:102EA0000007FFF807FFF8001C00000E00000F00ED
:102EB000003F800079E000E07003C038070018068A
:102EC00000080400000000000000000000000000F6
:102ED0000000000007FFF807FFF8060000060000EA
:102EE00006000006000006000006000006000006BE
:102EF000000000000000000000000000000007FFCC
:102F0000F807FFF80000380001F0000F80003C00D7
:102F1000003C00000F800001F000003807FFF807B8
:102F2000FFF80000000000000000000000000000AA
:102F30000007FFF807FFF80000F80003E0000F00AB
:102F4000007C0001F00007800007FFF807FFF80091
:102F50000000000000000000000000000000003F32
:102F60000001FFE003FFF003003806001806001818
:102F700006001806001803003003FFF001FFE00010
:102F80003F00000000000000000000000000000002
:102F90000007FFF807FFF8001818001818001818A5
:102FA000001818001818001C38000E700007F000F8
:102FB00003C0000000000000000000000000003F0F
:102FC0000001FFE003FFF00700380600180E0018AC
:102FD0001E00183E001877003063FFF061FFE060CC
:102FE0003F000000000000000000000000000000A2
:102FF0000007FFF807FFF800181800181800181845
:1030000000181800781801EC1803CE300707F004F8
:1030100003C000000000000000000000000000C02D
:103020000003C3E00383F0070638060618060C18F1
:10303000060C18060C18071C3803B87003F860005B
:10304000E0000000000000000000000000000000A0
:103050001800001800001800001800001807FFF8FA
:1030600007FFF80000180000180000180000180002
:103070000018000000000000000000000000000038
:103080000001FFF803FFF80700000600000600003B
:1030900006000006000007000003FFF801FFF8002B
:1030A0000000000000000000000000000008000018
:1030B000780003F8000FC0007E0003F000078000D6
:1030C00007800003F000007E00000FC00003F8003E
:1030D0000078000008000000000038001FF800FF22
:1030E000E007F00007800007C00000FC00000F00B0
:1030F000000F0000FC0007C00007800007F0000080
:10310000FFE0001FF800003800000000000006008B
:103110000807003803C07800E1E0007B80001F0052
:10312000001F00007B8000E1E003C0780700380644
:103130000008000000000000000000000000000087
:10314000180000780000F00003C000070007FE0030
:1031500007FE000007000003C00000F00000780038
:103160000018000000000000000000000000070040
:103170000007801807C01806F018063818061C1833
:10318000060F180603980601D80600F80600380650
:103190000018000000000000000000000000000017
:1031A000000000000000000000007FFFFE7FFFFE27
:1031B0006000066000066000066000060000000077
:1031C00000000000000000000000000000000000FF
:1031D0000000000C00003C0000F00003C0000F00E5
:1031E000003C0000F00003C0000F00000C000000D5
:1031F00000000000000000000000000000000000CF
:103200000000000060000660000660000660000626
:103210007FFFFE7FFFFE00000000000000000000B6
:10322000000000000000000000000000000000306E
:1032300000003C00000F000003C00000F000003858
:103240000000380000F00003C0000F00003C000048
:10325000300000000000000000000018000018000E
:1032600000180000180000180000180000180000E6
:1032700018000018000018000018000018000018BE
:103280000000180000000000000000000000000026
:103290000000000000000000000000001C00007C96
:1032A0000000FC00018000000000000000000000A1
:1032B000000000000000000000000000000000C04E
:1032C0000003F10007F1800638C00618C00618C0D8
:1032D0000218C00318C001FF8007FF800700000626
:1032E00000000000000000000000000000000000DE
:1032F0000007FFFC07FFFC0183000301800600C0FC
:103300000600C00600C00701C003FF8001FF0000E7
:10331000000000000000000000000000000000109D
:103320000001FF0003FF800301800600C00600C00B
:103330000600C00600C00701C003838001830000AF
:10334000000000000000000000000000000000007D
:103350000001FF0003FF800701C00600C00600C097
:103360000600C003018001830007FFFC07FFFC008B
:10337000000000000000000000000000000000004D
:103380000001FF0003FF800319C00618C00618C023
:103390000618C00618C00719C0039F80019F0000CF
:1033A000000000000000000000000000000000011C
:1033B0008000018000018000018007FFF007FFF816
:1033C00000019C00018C00018C00018C00018C002C
:1033D00000080000000000000000000000000000E5
:1033E0000001FF0063FF80E701C0C600C0C600C047
:1033F000C600C0C30180E183007FFFC01FFFC00083
:1034000000000000000000000000000000000000BC
:103410000007FFFC07FFFC0003000001800000C064
:103420000000C00000C00001C007FF8007FF0000CF
:10343000000000000000000000000000000000008C
:10344000000600000600C00600C00600C00600C05E
:1034500007FFCC07FFCC06000006000006000006B0
:10346000000000000000000000000000000020003C
:10347000006000006000C06000C06000C06000C06C
:103480007800C03FFFCC0FFFCC0000000000000020
:10349000000000000000000000000000000000002C
:1034A0000000000007FFFC07FFFC003800001C00C4
:1034B000007E0000E70003C1800700C00600400056
:1034C00000000000000000000000000000000000FC
:1034D0000000000000000C00000C00000C01FFFCCC
:1034E00003FFFC07000006000006000006000006BF
:1034F000000000000000000000000000000007FFC6
:10350000C007FFC00001800000C00000C007FFC06E
:1035100007FF000001800000C00001C007FFC007D6
:10352000FF0000000000000000000000000000009C
:103530000007FFC007FFC00003000001800000C0BB
:103540000000C00000C00001C007FF8007FF0000AE
:10355000000000000000000000000000000000006B
:103560000001FF0003FF800701C00600C00600C085
:103570000600C00600C00701C003FF8001FF000075
:10358000000000000000000000000000000000003B
:1035900000FFFFC0FFFFC00183000301800600C0E1
:1035A0000600C00600C00701C003FF8001FF000045
:1035B000000000000000000000000000000000000B
:1035C0000001FF0003FF800701C00600C00600C025
:1035D0000600C0030180018300FFFFC0FFFFC000A1
:1035E00000000000000000000000000000000000DB
:1035F0000000000007FFC007FFC0000E00000380AE
:103600000001C00000C00000C00000C00000C000F9
:1036100000000000000000000000000000000000AA
:1036200000018600038F80071DC00618C00618C061
:103630000618C00630C00630C003F18001E100006A
:10364000000000000000000000000000000000007A
:10365000C00000C00000C001FFFC03FFFC0700C069
:103660000600C00600C00600C00600C00200000040
:10367000000000000000000000000000000000004A
:103680000001FFC003FFC0070000060000060000A5
:1036900006000003000001800007FFC007FFC00014
:1036A000000000000000000000000000000000001A
:1036B000C00007C0001F8000FC0007E000070000FA
:1036C00007800003F00000FC00001F800003C00022
:1036D00000C00000000000000000000000C0003F2B
:1036E000C007FF8007800007C00000F800001C0032
:1036F000001C0000F80007800007C00007FF8000E2
:103700003FC00000C00000000000000000000400F6
:10371000000600C00701C001C38000EE00003C00AD
:10372000003C0000EE0001C3800701C00600C00499
:103730000000000000000000000000000000000089
:10374000C0C003C0C01F80E07C0073E0003F800069
:103750000F000003E000007C00001F800003C00099
:1037600000C0000000000000000000000000000099
:10377000000700C00780C006C0C00660C00638C091
:10378000061CC0060EC00607C00601C00600C00029
:103790000000000000000000000000000000000029
:1037A00000001800001800001800007E003FE7FC31
:1037B0007FC3FE6000066000066000066000060031
:1037C00000000000000000000000000000000000F9
:1037D000000000000000000000000000007FFFFE6D
:1037E0007FFFFE000000000000000000000000005D
:1037F00000000000000000000000000000000000C9
:10380000006000066000066000066000067FC3FEE0
:103810003FE7FC007E00003C00001800001800009C
:103820000000000000000000000000001800000C74
:1038300000000600000600000600000600000C0064
:10384000000C00001800001800001800001800000C
:103850000C00000600000000000000000000000056
:103860000007FFF80400080400080400080400082A
:1038700004000804000804000804000807FFF8001A
:1038800000000000000000000000000400000780AD
:103890000003F00000FE00007FC00061F00060380F
:1038A0000060380061F0007FC000FE0003F00007F8
:1038B0008000040000000000000000000000000084
:1038C0000007FFF807FFF8060C18060C18060C187E
:1038D000060C18060C18060C18071C1803F818011B
:1038E000F0000000000000000000000000000000E8
:1038F0000007FFF807FFF8060C18060C18060C184E
:10390000060C18060C18060E38031BF003F1E00134
:10391000E0000000000000000000000000000000C7
:103920000000000007FFF807FFF80000180000186B
:10393000000018000018000018000018000018000F
:1039400000180000000000000000003E00003E00E3
:103950000007800007F000067FE0060FF806001859
:1039600006001806001806001807FFF807FFF83EC3
:1039700000003E0000000000000000000000000009
:103980000007FFF807FFF8060C18060C18060C18BD
:10399000060C18060C18060C18060C18060C18064F
:1039A000000000000000000004000006000807807E
:1039B0003801E1F0007B80001E00000C0007FFF8DA
:1039C00007FFF8000C00001E00007B8001E1F007FB
:1039D000803806000804000000000000000000809D
:1039E0004001C0E0038070070038060C18060C1870
:1039F000060C18060C18071E3803BBF003F3E00092
:103A0000E0000000000000000000000000000000D6
:103A10000007FFF807FFF807800001F000003C00F6
:103A2000000F000003E000007807FFF807FFF80030
:103A30000000000000000000000000000000000086
:103A40000007FFF807FFF907800301F006003C06B6
:103A5000000F060003E600007B07FFF907FFF800F0
:103A60000000000000000000000000000000000056
:103A70000007FFF807FFF8000C00000C00000E0024
:103A8000003F000073C001E0E003807807001804E5
:103A90000008000000000000000000060000060012
:103AA0000007800003FC0000FFF8000FF80000187A
:103AB00000001800001800001800001807FFF807A1
:103AC000FFF800000000000000000000000007FFF9
:103AD000F807FFF80000380001F0000F80003C00FC
:103AE000003C00000F800001F000003807FFF807DD
:103AF000FFF80000000000000000000000000000CF
:103B00000007FFF807FFF8000C00000C00000C0095
:103B1000000C00000C00000C0007FFF807FFF80085
:103B20000000000000000000000000000000003F56
:103B30000001FFE003FFF00300380600180600183C
:103B400006001806001803003003FFF001FFE00034
:103B50003F00000000000000000000000000000026
:103B60000007FFF807FFF800001800001800001811
:103B700000001800001800001807FFF807FFF80001
:103B80000000000000000000000000000000000035
:103B90000007FFF807FFF800181800181800181899
:103BA000001818001818001C38000FF00007F0006B
:103BB00003C0000000000000000000000000007FC3
:103BC0008001FFE003C0F003003007003806001852
:103BD00006001806001807003803807001C0E000D6
:103BE0008000000000000000000000000000000055
:103BF0001800001800001800001800001807FFF84F
:103C000007FFF80000180000180000180000180056
:103C10000018000000000000000000000000030089
:103C2000180600780601F00707C0038F0001FC00AA
:103C3000007000001C00000F000003C00000F00036
:103C40000038000008000000000000001F00003FD6
:103C5000800071C000E0E000C06000C06007FFF8B5
:103C600007FFF800C06000C06000E0E00071C00025
:103C70003F80001F00000000000000000000060060
:103C80000807003803C07800E1E0007B80001F00D7
:103C9000001F00007B8000E1E003C07807003806C9
:103CA000000800000000000000000000000007FF06
:103CB000F807FFF8060000060000060000060000F6
:103CC00006000006000006000007FFF807FFF83EA8
:103CD00000003E0000000000000000000000000F97
:103CE000F8001FF8003800003000003000003000FD
:103CF00000300000300000100007FFF807FFF80058
:103D0000000000000000000000000000000007FFAD
:103D1000F807FFF806000006000006000007FFF89D
:103D200007FFF806000006000006000007FFF8077E
:103D3000FFF800000000000000000007FFF807FF88
:103D4000F806000006000006000007FFF807FFF86D
:103D500006000006000006000007FFF807FFF83E17
:103D600000003E00000000000000000000180000FD
:103D70001800001800001807FFF807FFF8060C00ED
:103D8000060C00060C00060C00071C0003F80001DE
:103D9000F00000000000000000000000000007FF2D
:103DA000F807FFF8060C00060C00060C00060C00D5
:103DB000031C0003F80001F00000000000000007F1
:103DC000FFF807FFF80000000000000000000000FE
:103DD0000007FFF807FFF8060C00060C00060C00B1
:103DE000060C00060C00060C00071C0003F800017E
:103DF000F00000000000000000000000000000C013
:103E00000001C0E0038070070038060018060C1897
:103E1000060C18060C18030C3003CCF001FFE00070
:103E20007F8000000000000000000000000007FF8D
:103E3000F807FFF8000C00000C0001FFE003FFF0A2
:103E400007003806001806001807003803FFF000C6
:103E5000FFE000000000000000000000000004037C
:103E6000E00607F0078E3801EC18007C18001C18DB
:103E7000000C18000C18000C1807FFF807FFF800DA
:103E8000000000000000000000000000000000C072
:103E90000003F10007F1800638C00618C00618C0FC
:103EA0000218C00318C001FF8007FF80070000064A
:103EB0000000000000000000000000000000007F83
:103EC0000000FFC003C6F003033806019806018C0A
:103ED00006018C06018C07038C03CF0601FE060049
:103EE000780000000000000000000000000000005A
:103EF0000007FFC007FFC00618C00618C00618C09C
:103F00000618C00618C0073DC003F78003E700008D
:103F100000000000000000000000000000000000A1
:103F20000000000007FFC007FFC00000C00000C085
:103F30000000C00000C00000C00000C00000C000C1
:103F400000000000000000000000003E00003E00F5
:103F50000007800007F800067FC00607C00600C003
:103F60000600C00600C007FFC007FFC03E00003EBD
:103F70000000000000000000000000000000000041
:103F80000001FF0003FF800319C00618C00618C017
:103F90000618C00618C00719C0039F80019F0000C3
:103FA00000000000000000000000000400400700C6
:103FB000C003C18000F700003E0000180007FFC0EA
:103FC00007FFC0001800003E0000F70003C3800791
:103FD00000C00400400000000000000000000000DD
:103FE000000183000383800701C00618C00618C0C3
:103FF0000618C00618C0073DC003E78001E30000B3
:1040000000000000000000000000000000000000B0
:104010000007FFC007FFC007000001C000007000DC
:10402000001C000007000001C007FFC007FFC00020
:104030000000000000000000000000000000000080
:104040000007FFC007FFCC07001C01C03000703024
:10405000001C300007300001DC07FFCC07FFC00068
:104060000000000000000000000000000000000050
:104070000007FFC007FFC007FFC00030000030008E
:1040800000780000FE0003C7800701C00600C000E2
:104090000000000000000000000000060000060014
:1040A0000007C00003FF00007FC00001C00000C087
:1040B0000000C00000C00000C007FFC007FFC00034
:1040C000000000000000000000000000000007FFEA
:1040D000C007FFC00003C0001F8001F80007C00038
:1040E00007800001F800001F000003C007FFC007A1
:1040F000FFC0000000000000000000000000000001
:104100000007FFC007FFC0001800001800001800DB
:1041100000180000180000180007FFC007FFC000CB
:10412000000000000000000000000000000000107F
:104130000001FF0003FF800701C00600C00600C0A9
:104140000600C00600C00701C003FF8001FF000099
:10415000000000000000000000000000000000005F
:104160000007FFC007FFC00000C00000C00000C083
:104170000000C00000C00000C007FFC007FFC00073
:1041800000000000000000000000004221100000BC
:104190000008844208844200000042211000000010
:1041A00008844200000042211000000000000008C6
:1041B0008442422110000000422110088442422122
:1041C000100884424AA5524221100884424221101C
:1041D0000884424221100884424AA5524221100814
:1041E0008442422110088442FFFFFF9DCEE7F77B07
:1041F000BD9DCEE7FFFFFFF77BBD9DCEE7F77BBD03
:104200009DCEE7F77BBD9DCEE7FFFFFFF77BBD9D12
:10421000CEE7F77BBDFFFFFF0000000000000000BD
:1042200000000000000000000000000000FFFFFF91
:10423000FFFFFF0000000000000000000000000081
:104240000000000000000000001800001800001826
:1042500000001800001800001800001800FFFFFF01
:10426000FFFFFF0000000000000000000000000051
:10427000000000000000000000660000660000660C
:1042800000006600006600006600006600FFFFFF99
:10429000FFFFFF0000000000000000000000000021
:1042A00000000000000000000018000018000018C6
:1042B00000001800001800FFFFFFFFFFFF000000D4
:1042C000000000FFFFFFFFFFFF00000000000000F4
:1042D0000000000000000000001800001800001896
:1042E00000001800001800FFF800FFF80000180098
:1042F000001800FFF800FFF80000000000000000B8
:10430000000000000000000000660000660000667B
:1043100000006600006600006600006600FFFE0008
:10432000FFFE000000000000000000000000000090
:10433000000000000000000000660000660000664B
:1043400000006600006600FFE7FFFFE7FF000000D7
:10435000000000FFFFFFFFFFFF0000000000000063
:10436000000000000000000000000000000000004D
:1043700000000000000000FFFFFFFFFFFF00000043
:10438000000000FFFFFFFFFFFF0000000000000033
:1043900000000000000000000066000066000066EB
:1043A00000006600006600FFE600FFE60000060071
:1043B000000600FFFE00FFFE0000000000000000FD
:1043C00000000000000000000066000066000066BB
:1043D000000066000066000067FF0067FF006000E5
:1043E000006000007FFF007FFF0000000000000071
:1043F0000000000000000000001800001800001875
:1044000000001800001800001FFF001FFF00180028
:10441000001800001FFF001FFF0000000000000048
:10442000000000000000000000660000660000665A
:1044300000006600006600006600006600007FFF66
:10444000007FFF00000000000000000000000000EE
:104450000000000000000000001800001800001814
:1044600000001800001800001800001800FFF800F5
:10447000FFF8000000000000000000000000000045
:10448000000000000000000000000000000000002C
:1044900000000000000000000000000000001FFFFE
:1044A000001FFF001800001800001800001800008E
:1044B000180000180000180000180000180000186C
:1044C00000001800001800001800001800001FFF6E
:1044D000001FFF001800001800001800001800005E
:1044E000180000180000180000180000180000183C
:1044F00000001800001800001800001800FFF80065
:10450000FFF8000018000018000018000018000054
:104510001800001800001800000000000000000053
:1045200000000000000000000000000000FFFFFF8E
:10453000FFFFFF001800001800001800001800001E
:1045400018000018000018000018000018000018DB
:1045500000001800001800001800001800001800E3
:1045600000180000180000180000180000180000D3
:1045700018000018000018000018000018000018AB
:1045800000001800001800001800001800FFFFFFCE
:10459000FFFFFF00180000180000180000180000BE
:1045A00018000018000018000000000000000000C3
:1045B00000000000000000000000000000FFFFFFFE
:1045C000FFFFFF0066000066000066000066000056
:1045D00066000066000066000000000000000000A9
:1045E00000000000000000FFFFFFFFFFFF000000D1
:1045F000000000FFFFFFFFFFFF0018000018000091
:104600001800001800001800000000000000000062
:1046100000000000000000007FFF007FFF0060003E
:104620000060000067FF0067FF0066000066000092
:104630006600006600006600000000000000000048
:1046400000000000000000FFFE00FFFE000006006A
:10465000000600FFE600FFE60000660000660000BE
:1046600066000066000066000066000066000066E6
:10467000000066000066000067FF0067FF00600042
:104680000060000067FF0067FF0066000066000032
:1046900066000066000066000066000066000066B6
:1046A00000006600006600FFE600FFE6000006006E
:1046B000000600FFE600FFE600006600006600005E
:1046C00066000066000066000000000000000000B8
:1046D00000000000000000FFFFFFFFFFFF000000E0
:1046E000000000FFE7FFFFE7FF0066000066000034
:1046F0006600006600006600006600006600006656
:1047000000006600006600006600006600006600AB
:10471000006600006600006600006600006600009B
:104720006600006600006600006600006600006625
:1047300000006600006600FFE7FFFFE7FF000000E3
:10474000000000FFE7FFFFE7FF00660000660000D3
:1047500066000066000066000066000066000066F5
:10476000000066000066000066000066000067FF4B
:104770000067FF006600006600006600006600003B
:1047800066000066000066000018000018000018AF
:1047900000001800001800001FFF001FFF00180095
:1047A000001800001FFF001FFF0018000018000085
:1047B000180000180000180000660000660000667F
:1047C00000006600006600006600006600FFE6006C
:1047D000FFE600006600006600006600006600005C
:1047E000660000660000660000180000180000184F
:1047F00000001800001800FFF800FFF80000180083
:10480000001800FFF800FFF8000018000018000072
:104810001800001800001800000000000000000050
:1048200000000000000000001FFF001FFF00180034
:10483000001800001FFF001FFF00180000180000F4
:104840001800001800001800000000000000000020
:1048500000000000000000000000000000007FFFDA
:10486000007FFF0066000066000066000066000032
:104870006600006600006600000000000000000006
:1048800000000000000000000000000000FFFE002B
:10489000FFFE000066000066000066000066000083
:1048A00066000066000066000000000000000000D6
:1048B00000000000000000FFF800FFF800001800F2
:1048C000001800FFF800FFF80000180000180000B2
:1048D0001800001800001800001800001800001848
:1048E00000001800001800FFFFFFFFFFFF00180086
:1048F000001800FFFFFFFFFFFF0018000018000076
:10490000180000180000180000660000660000662D
:1049100000006600006600006600006600FFFFFF02
:10492000FFFFFF00660000660000660000660000F2
:1049300066000066000066000018000018000018FD
:1049400000001800001800001800001800001FFFE9
:10495000001FFF0000000000000000000000000039
:104960000000000000000000000000000000000047
:1049700000000000000000000000000000FFF80040
:10498000FFF80000180000180000180000180000D0
:104990001800001800001800FFFFFFFFFFFFFFFFD7
:1049A000FFFFFFFFFFFFFFFFFFFFFFFFFFFFFFFF17
:1049B000FFFFFFFFFFFFFFFFFFFFFFFFFFFFFFFF07
:1049C000FFFFFFFFFFFFFFFFFFF000FFF000FFF022
:1049D00000FFF000FFF000FFF000FFF000FFF0002C
:1049E000FFF000FFF000FFF000FFF000FFF000FF1D
:1049F000F000FFF000FFF000FFFFFFFFFFFFFFFFF1
:104A0000FFFFFFFFFFFFFFFFFFFFFFFFFFFFFFFFB6
:104A10000000000000000000000000000000000096
:104A20000000000000000000000000000000000086
:104A30000000000000000000000000000000000076
:104A4000FFFFFFFFFFFFFFFFFFFFFFFFFFFFFFFF76
:104A5000FFFFFFFFFFFFFFFF000FFF000FFF000F33
:104A6000FF000FFF000FFF000FFF000FFF000FFF01
:104A7000000FFF000FFF000FFF000FFF000FFF00F0
:104A80000FFF000FFF000FFF0000000000000000FC
:104A9000007FFFC07FFFC00183000301800600C0CC
:104AA0000600C00600C00701C003FF8001FF000030
:104AB00000000000000000000000000000000010E6
:104AC0000001FF0003FF800301800600C00600C054
:104AD0000600C00600C00701C003838001830000F8
:104AE00000000000000000000000000000000000C6
:104AF000C00000C00000C00000C00000C007FFC030
:104B000007FFC00000C00000C00000C00000C000DF
:104B100000C00000000000000000000000000000D5
:104B2000C06003C0601F80607C0073E0003F8000B5
:104B30000F000003E000007C00001F800003C000A5
:104B400000C000000000000000000000000000FEA7
:104B50000001FF000383800701C00600C07FFFFC47
:104B60007FFFFC0600C00701C003838001FF8000B7
:104B7000FE00000000000000000000000000040033
:104B8000000600C00701C001C38000EE00003C0029
:104B9000003C0000EE0001C3800701C00600C00415
:104BA000000000000000000000000000000007FFFF
:104BB000C007FFC006000006000006000006000057
:104BC00006000006000007FFC007FFC03E00003ED1
:104BD00000000000000000000000000000000000D5
:104BE00000001FC0003FC000300000300000300057
:104BF00000300000100000180007FFC007FFC000D1
:104C0000000000000000000000000000000007FF9E
:104C1000C007FFC006000006000006000007FFC036
:104C200007FFC006000006000006000007FFC007DF
:104C3000FFC000000000000000000007FFC007FFE9
:104C4000C006000006000006000007FFC007FFC006
:104C500006000006000006000007FFC007FFC03E78
:104C600000003E00000000000000000000C0000046
:104C7000C00000C00000C007FFC007FFC00618004A
:104C800006180006180006180007380003F0000197
:104C9000E00000000000000000000000000007FF2E
:104CA000C007FFC006180006180006180006180006
:104CB00003F80003F00000C00000000007FFC00779
:104CC000FFC0000000000000000000000000000025
:104CD0000007FFC007FFC0061800061800061800EE
:104CE00006180006180007380003F00001E0000075
:104CF0000000000000000000000000000000008232
:104D0000000183000383800701C00600C00618C0AD
:104D10000618C00618C003198003FF8000FE0000BB
:104D2000000000000000000000000000000007FF7D
:104D3000C007FFC000180000180001FF0003FF803B
:104D40000701C00600C00600C00701C003FF8001C4
:104D5000FF00000000000000000000000000040050
:104D600000060F00079F8001F9C000F0C00030C0AE
:104D70000030C00030C00030C007FFC007FFC000D7
:104D80000000000000000000000000000000000023
:104D90000007FFF807FFF8060C1B060C1B060C1893
:104DA000060C18060C1B060C1B060C18060C180625
:104DB00000000000000000000000000000000000F3
:104DC0000001FF0003FF800319CC0618CC0618C0B1
:104DD0000618C00618CC0719CC039F80019F00005D
:104DE0000000000000000000000000000000007F44
:104DF0008001FFE003CCF0030C30070C38060C18E0
:104E0000060C1806001807003803807001C0E00087
:104E10008000000000000000000000000000000012
:104E20000000FE0003FF800319800618C00618C0AA
:104E30000618C00600C00701C0038380018300007C
:104E400080000000000000000000000000000000E2
:104E50000006001806001806001B06001B07FFF8D6
:104E600007FFF806001B06001B06001806001800C6
:104E70000000000000000000000000000000000032
:104E8000000600000600CC0600CC0600C00600C0EC
:104E900007FFCC07FFCC0600000600000600000656
:104EA00000000000000000000000000000000700FB
:104EB000180600780601F10607C3038F0601FC06F9
:104EC000007006001C060007830001E10000780066
:104ED00000180000000000000000000000000000BA
:104EE000C06003C0601F8C607C1C73E0303F80306A
:104EF0000F003003E030007C1C001F8C0003C0005A
:104F000000C00000000000000000000000000000E1
:104F1000000000E00003F800031800060C00060C77
:104F200000060C0003180003F80000E00000000079
:104F30000000000000000000000000000000000071
:104F400000000000000000000000000000003C0025
:104F5000003C000000000000000000000000000015
:104F60000000000000000000000000000000000041
:104F700000000000000000000000000000003C00F5
:104F8000003C0000000000000000000000000000E5
:104F90000000000000000000000000000400000409
:104FA00000001C0000F0000780001C00001F000033
:104FB00001F000003E000007C000007C00000F0070
:104FC000000100000100000107FFF807FFF80000E2
:104FD000380007F000FFC003F80007000007FFF8E3
:104FE00007FFF8000000009F0000B18000A08000D3
:104FF000B180009F000000000000000000000000E1
:105000000000DEC000FFC000618000C0C000C0C062
:1050100000C0C000C0C000618000FFC000DEC00052
:10502000000000000000000000000000000003FF7E
:10503000C003FFC003FFC003FFC003FFC003FFC0E6
:1050400003FFC003FFC003FFC003FFC003FFC00393
:10505000FFC0000000000000000000000000000091
:105060000000000000000000000000000000000040
:105070000000000000000000000000000000000030
:1050800000000000000000008183F0868788898B83
:105090008F939497989A9B9D9E9FA1A2A3F1A6A7F8
:1050A000A8A9AAABACADAFE2E7E8EAEBECEDEEEF16
:1050B000849699A4E4E6E9202020202020202020C6
:1050C00020202020202020202020200020205446A6
:1050D0005420474C43442041646170746572202021
:1050E0000057616974696E6720666F72207072691B
:1050F0006E7465722000636F6E6E656374696F6EA7
:105100002E2E0000FFFFFFFFFFFFFFFFFFFFFFFF4F
:10511000FFFFFFFFFFFFFFFFFFFFFFFFFFFFFFFF9F
:10512000FFFFFFFFFFFFFFFFFFFFFFFFFFFFFFFF8F
:10513000FFFFFFFFFFFFFFFFFFFFFFFFFFFFFFFF7F
:10514000FFFFFFFFFFFFFFFFFFFFFFFFFFFFFFFF6F
:1055F000FFFFFFFFFFFFFFFFFFFF000000000000B5
:105600000000000000000000FFFFFFFFFFFFFFFFA2
:10561000FFFFFFFFFFFFFFFFFFFFFFFFFFFFFFFF9A
:10562000FFFFFFFFFFFFFFFFFFFFFFFFFFFFFFFF8A
:10563000FFFFFFFFFFFFFFFFFFFFFFFFFFFFFFFF7A
:10564000FFFFFFFFFFFFFFFFFFFFFFFFFFFFFFFF6A
:10565000FFFFFFFFBEF70000000000000000000099
:10566000000000000000000000000000DFFFFFFF5E
:10567000FFFFFFFFFFFFFFFFFFFFFFFFFFFFFFFF3A
:10568000FFFFFFFFFFFFFFFFFFFFFFFFFFFFFFFF2A
:10569000FFFFFFFFFFFFFFFFFFFFFFFFFFFFFFFF1A
:1056A000FFFFFFFFFFFFFFFFFFFFFFFFFFFFFFFF0A
:1056B000FFFFFFFF000000000000000000000000EE
:1056C0000000000000000000000000000000FFFFDC
:1056D000FFFFFFFFFFFFFFFFFFFFFFFFFFFFFFFFDA
:1056E000FFFFFFFFFFFFFFFFFFFFFFFFFFFFFFFFCA
:1056F000FFFFFFFFFFFFFFFFFFFFFFFFFFFFFFFFBA
:10570000FFFFFFFFFFFFFFFFFFFFFFFFFFFFFFFFA9
:10571000FFFF00000000000000000000FFFFFFFF8F
:10572000FFFFFFFFFFFF000000000000000000007F
:10573000FFFFFFFFFFFFFFFFFFFFFFFFFFFFFFFF79
:10574000FFFFFFFFFFFFFFFFFFFFFFFFFFFFFFFF69
:10575000FFFFFFFFFFFFFFFFFFFFFFFFFFFFFFFF59
:10576000FFFFFFFFFFFFFFFFFFFFFFFFFFFFDFFF69
:105770000000000000000000FFFFFFFFFFFFFFFF31
:10578000FFFFFFFFFFFFFFFFFFFF00000000000023
:105790000000000000000000000000000000000009
:1057A00000000000000000000000000000000000F9
:1057B0000000FFFFFFFFFFFFFFFFFFFFFFFFFFFFF7
:1057C000FFFFFFFFFFFFFFFFFFFFFFFFFFFF0000E7
:1057D000000000000000FFFFFFFFFFFF00F800F8DF
:1057E00000F800F800F8FFFFFFFFFFFF00000000D7
:1057F00000000000000000000000000000000000A9
:105800000000000000000000000000000000000098
:10581000000000000000FFFFFFFFFFFFFFFFFFFF92
:10582000FFFFFFFFFFFFFFFFFFFFFFFFDFFF0000A6
:1058300000000000FFFFFFFFFFFF00F800F800F886
:1058400000F800F800F800F8FFFFFFFFFFFF00007E
:105850000000000000000000000000000000000048
:105860000000000000000000000000000000000038
:105870000000000000000000FFFFFFFFFFFFFFFF30
:10588000FFFFFFFFFFFFFFFFFFFFFFFF0000000024
:1058900000000000FFFFFFFF00F800F800F800F82C
:1058A00000F800F800F800F800F8FFFFFFFFFFFF26
:1058B000FFFFFFFFFFFFFFFFFFFFFFFFFFFFFFFFF8
:1058C000FFFFFFFFFFFFFFFFFFFFFFFFFFFFDFFF08
:1058D000FFFF0000000000000000FFFFFFFFFFFFD0
:1058E000FFFFFFFFFFFFFFFFFFFFFFFF00000000C4
:1058F0000000FFFFFFFF00F800F800F800F800F8D4
:1059000000F800F800F800F800F800F8FFFFFFFFCB
:10591000FFFFFFFFFFFFFFFFFFFFFFFFFFFFFFFF97
:10592000FFFFFFFFFFFFFFFFFFFFFFFFFFFFFFFF87
:10593000FFFFDFFF000000000000FFFFFFFFFFFF91
:10594000FFFFFFFFFFFFFFFFFFFFFFFF0000000063
:105950000000FFFFFFFF00F800F800F800F800F873
:1059600000F800F800F800F800F800F800F800F877
:1059700000F800F800F800F800F800F800F800F867
:10598000FFFFFFFFFFFFFFFFFFFFFFFFFFFFFFFF27
:10599000FFFFFFFFFFFF000000000000FFFFFFFF11
:1059A000FFFFFFFFFFFFFFFFFFFFFFFF0000000003
:1059B0000000FFFFFFFF00F800F800F800F800F813
:1059C00000F800F800F800F800F800F800F800F817
:1059D00000F800F800F800F800F800F800F800F807
:1059E000FFFFFFFFFFFFFFFFFFFFFFFFFFFFFFFFC7
:1059F000FFFFFFFFDFFF000000000000FFFFFFFFD1
:105A0000FFFFFFFFFFFFFFFFFFFFFFFF00000000A2
:105A10000000FFFFFFFF00F800F800F800F800F8B2
:105A200000F800F800F800F800F800F800F800F8B6
:105A300000F800F800F800F800F800F800F800F8A6
:105A4000FFFFFFFFFFFFFFFFFFFFFFFFFFFFFFFF66
:105A5000FFFFFFFFFFFF000000000000FFFFFFFF50
:105A6000FFFFFFFFFFFFFFFFFFFFFFFF0000000042
:105A70000000FFFFFFFF00F800F800F800F800F852
:105A800000F800F800F800F800F800F8FFFFFFFF4A
:105A9000FFFFFFFFFFFFFFFFFFFFFFFFFFFFFFFF16
:105AA000FFFFFFFFFFFFFFFFFFFFFFFFFFFFFFFF06
:105AB000FFFFFFFF000000000000FFFFDFFFFFFF10
:105AC000FFFFFFFFFFFFFFFFFFFFFFFF00000000E2
:105AD00000000000FFFFFFFF00F800F800F800F8EA
:105AE00000F800F800F800F800F8FFFFFFFFFFFFE4
:105AF000FFFFFFFFFFFFFFFFFFFFFFFFFFFFFFFFB6
:105B0000FFFFFFFFFFFFFFFFFFFFFFFFFFFFFFFFA5
:105B1000FFFF0000000000000000FFFFFFFFFFFF8D
:105B2000FFFFFFFFFFFFFFFFFFFFFFFFFFFF000083
:105B300000000000FFFFFFFFFFFF00F800F800F883
:105B400000F800F800F800F8FFFFFFFFFFFF00007B
:105B50000000000000000000000000000000000045
:105B60000000000000000000000000000000000035
:105B70000000000000000000FFFFFFFFFFFFFFFF2D
:105B8000FFFFFFFFFFFFFFFFFFFFFFFFFFFF000023
:105B9000000000000000FFFFFFFFFFFF00F800F81B
:105BA00000F800F800F8FFFFFFFFFFFF0000000013
:105BB00000000000000000000000000000000000E5
:105BC00000000000000000000000000000000000D5
:105BD000000000000000FFFFFFFFFFFFFFFFFFFFCF
:105BE000FFFFFFFFFFFFFFFFFFFFFFFFFFFFFFFFC5
:105BF0000000000000000000FFFFFFFFFFFFFFFFAD
:105C0000FFFFFFFFFFFFFFFFFFFF0000000000009E
:105C10000000000000000000000000000000000084
:105C20000000000000000000000000000000000074
:105C30000000FFFFFFFFFFFFFFFFFFFFFFFFFFFF72
:105C4000FFFFFFFFFFFFFFFFFFFFFFFFFFFFFFFF64
:105C5000FFFF00000000000000000000FFFFFFFF4A
:105C6000FFFFFFFFFFFF000000000000000000003A
:105C7000FFFFFFFFFFFFFFFFFFFFFFFFFFFFFFFF34
:105C8000FFFFFFFFFFFFFFFFFFFFFFFFFFFFFFFF24
:105C9000FFFFFFFFFFFFFFFFFFFFFFFFFFFFFFFF14
:105CA000FFFFFFFFFFFFFFFFFFFFFFFFFFFFFFFF04
:105CB000FFFFFFFF000000000000000000000000E8
:105CC0000000000000000000000000000000FFFFD6
:105CD000FFFFFFFFFFFFFFFFFFFFFFFFFFFFFFFFD4
:105CE000FFFFFFFFFFFFFFFFFFFFFFFFFFFFFFFFC4
:105CF000FFFFFFFFFFFFFFFFFFFFFFFFFFFFFFFFB4
:105D0000FFFFFFFFFFFFFFFFFFFFFFFFFFFFFFFFA3
:105D1000FFFFFFFFFFFF0000000000000000000089
:105D2000000000000000000000000000FFFFFFFF77
:105D3000FFFFFFFFFFFF00000000FFFFFFFF00006D
:105D40000000FFFFFFFF00000000FFFFFFFF00005B
:105D50000000FFFFFFFFFFFFFFFFFFFFFFFFFFFF51
:105D6000FFFFFFFFFFFFFFFFFFFFFFFFFFFFFFFF43
:105D7000FFFFFFFFFFFFFFFFFFFF0000000000002D
:105D80000000000000000000FFFFFFFFFFFFFFFF1B
:105D9000FFFFFFFFFFFF00000000FFFFFFFF00000D
:105DA0000000FFFFFFFF00000000FFFFFFFF0000FB
:105DB0000000FFFFFFFFFFFFFFFFFFFFFFFFFFFFF1
:105DC000FFFFFFFFFFFFFFFFFFFFFFFFFFFFFFFFE3
:105DD000FFFFFFFFFFFFFFFFFFFFFFFFFFFFFFFFD3
:105DE000FFFFFFFFFFFFFFFFFFFFFFFFFFFFFFFFC3
:105DF000FFFFFFFFFFFF00000000FFFFFFFF0000AD
:105E00000000FFFFFFFF00000000FFFFFFFF00009A
:105E10000000FFFFFFFFFFFFFFFFFFFFFFFFFFFF90
:105E2000FFFFFFFFFFFFFFFFFFFFFFFFFFFFFFFF82
:105E3000FFFFFFFFFFFFFFFFFFFFFFFFFFFFFFFF72
:105E4000FFFFFFFFFFFFFFFFFFFFFFFFFFFFFFFF62
:105E5000FFFFFFFFFFFF00000000FFFFFFFF00004C
:105E60000000FFFFFFFF00000000FFFFFFFF00003A
:105E70000000FFFFFFFFFFFFFFFFFFFFFFFFFFFF30
:105E8000FFFFFFFFFFFFFFFFFFFFFFFFFFFFFFFF22
:105E9000FFFFFFFFFFFFFFFFFFFFFFFFFFFFFFFF12
:105EA000FFFFFFFFFFFFFFFFFFFFFFFFFFFFFFFF02
:105EB000FFFFFFFFFFFF00000000FFFFFFFF0000EC
:105EC0000000FFFFFFFF00000000FFFFFFFF0000DA
:105ED0000000FFFFFFFFFFFFFFFFFFFFFFFFFFFFD0
:105EE000FFFFFFFFFFFFFFFFFFFFFFFFFFFFFFFFC2
:105EF000FFFFFFFFFFFFFFFFFFFFFFFFFFFFFFFFB2
:105F0000FFFFFFFFFFFFFFFFFFFFFFFFFFFFFFFFA1
:105F1000FFFFFFFFFFFFFFFFFFFFFFFFFFFFFFFF91
:10630000FFFFFFFFBF36BF36BF36BF36BF36BF36D3
:10631000BF36BF36BF36BF36BF36BF36BF36BF36D5
:10632000BF36BF36BF36BF36BF36BF36BF36BF36C5
:10633000BF36BF36BF36BF36BF36BF36BF36BF36B5
:10634000BF36BF36BF36BF36BF36BF36BF36BF36A5
:10635000BF36BF36BF36BF36BF36BF36BF36BF3695
