:020000040800F2
:100000000404002015030008192600081D26000816
:1000100021260008252600082926000800000000E7
:100020000000000000000000000000002D26000875
:100030003126000800000000352600083926000897
:100040001103000811030008110300081103000840
:100050001103000811030008110300081103000830
:100060001103000811030008110300081103000820
:100070001103000811030008110300081103000810
:100080001103000811030008110300081103000800
:1000900011030008110300081103000811030008F0
:1000A00011030008110300081103000811030008E0
:1000B00011030008110300081103000811030008D0
:1000C00011030008110300081103000811030008C0
:1000D00011030008110300081103000811030008B0
:1000E00011030008110300081103000800000000BC
:1000F0000000000000000000000000000000000000
:0C01000000000000000000005FF808F1A3
:10010C0010B5054C237833B9044B13B10448AFF345
:10011C0000800123237010BD0404002000000000A7
:10012C003C260008084B10B51BB108490848AFF332
:10013C0000800848036803B910BD074B002BFBD0A7
:10014C00BDE81040184700BF000000000804002064
:10015C003C260008040000200000000008B54FF405
:10016C000042054B5A61054B1B68054A126882F325
:10017C000888984708BD00BF0010014004380008EB
:10018C000038000810B582B001222049204801F047
:10019C0017FB78BB02F026F84FF4967002F082F948
:1001AC0001AB4FF400721B49194801F0C5FB18BB99
:1001BC00019B072B22D9184C0FE01649204600F062
:1001CC0071F8E8B902AB53F8042D14444FF40072E3
:1001DC0010490F4801F0B0FBA0B9019A002AECD1EC
:1001EC0002F00CF80A4801F0DDFC084801F0E4FCD0
:1001FC00002008E0002006E0012004E0012002E0DD
:10020C00012000E0012002B010BD00BF5426000800
:10021C0020060020200400200038000808B54FF408
:10022C000042084B1A61002000F020F928B9064959
:10023C0001F0B2FA18B1012008BD012008BD002060
:10024C0008BD00BF001001405008002070B50546E5
:10025C000E46C0F309031BB902F002F804281AD1A8
:10026C0025F47F7424F0030404F5806406E0204632
:10027C0001F0F6FF042810D104F58064AB199C4200
:10028C00F5D304E02A68B2F1FF3F08D104359D4252
:10029C00F8D3002070BD012070BD012070BD01207D
:1002AC0070BD00BF2DE9F04105460E4617461146BC
:1002BC00FFF7CCFFD0B98046002408E056F8241094
:1002CC0005EB840001F0ECFF042812D10134BB08CB
:1002DC009C42F3D3002206E055F8220056F8221077
:1002EC00884209D101329A42F6D307E04FF0010857
:1002FC0004E04FF0010801E04FF001084046BDE872
:10030C00F08100BFFEE700BF08B50C4B0C4A03E0C0
:10031C0011681960043304320A498B42F8D30A4835
:10032C000A494FF000028842B8BF40F8042BFADBB0
:10033C0000F074F802F052F908BD00BF0000002074
:10034C00942600080400002004040020940A0020D5
:10035C0082B00023019300932C4A136843F480333A
:10036C0013602A4B1B6803F400330093019B013389
:10037C000193009B1BB9019BB3F5A06FF1D1234BEB
:10038C001B6813F4003F02D00123009301E000230B
:10039C000093009B012B36D11D4B1A6842F01002C2
:1003AC001A601A6822F003021A601A6842F00202FC
:1003BC001A60A3F580535A685A605A685A605A6892
:1003CC0042F480625A605A6822F47C125A605A686D
:1003DC0042F4E8125A601A6842F080721A600B4BB1
:1003EC001B6813F0007FFAD0084B5A6822F0030206
:1003FC005A605A6842F002025A60044B5B6803F080
:10040C000C03082BF9D102B0704700BF001002405A
:10041C000020024008B5FFF79BFF08BD08B5104B44
:10042C001A6842F001021A6059680E4A0A405A6072
:10043C001A6822F0847222F480321A601A6822F44C
:10044C0080221A605A6822F4FE025A604FF41F028E
:10045C009A60FFF7DFFF4FF00062034B9A6008BD14
:10046C00001002400000FFF800ED00E010B501F0B4
:10047C0059FD044630B101F017FCFF2001F010FCCF
:10048C0001F018FC0CB1012010BD002010BD00BF04
:10049C000020704798B9A3B110B5144608461A4607
:1004AC00214601F00FFE044630B101F0FDFBFF20A8
:1004BC0001F0F6FB01F0FEFB2CB9002010BD04206E
:1004CC00704704207047012010BD00BF48B953B1DC
:1004DC0010B5144608461A46214601F027FE20B9ED
:1004EC0010BD0420704704207047012010BD00BFD0
:1004FC0010BB10B51446032920D8DFE801F0021810
:10050C000F144FF480520E4B5A6101F005FC00B1F0
:10051C0001204FF480520A4B1A6110BD4FF4007346
:10052C001380002010BD08231380002010BD01F0A3
:10053C00BBFC2060002010BD00207047042010BDC3
:10054C00000C014004E00A7802701A4601310130B7
:10055C00531E002AF7D1704702E001701A46013091
:10056C00531E002AF9D1704770B4002301E02946CC
:10057C003046541E32B1461C03784D1C0878224676
:10058C001B1AF4D0184670BC704700BF00E0013055
:10059C0003780BB18B42FAD1184670470239C36904
:1005AC00023B994204D28378806A01FB03007047B6
:1005BC000020704730B40B7803F03F03013B03EB92
:1005CC00430203EB8203002400E02B46FE2B1ADCD3
:1005DC00104A125D551C4D5D8A5C52EA052206D00C
:1005EC005D1C20F8132001340C2CEEDD00E01D46C0
:1005FC000B7813F0400F08D0FE2D08DC002320F8F8
:10060C001530012004E0002002E0012000E0002071
:10061C0030BC70477C260008F0B44B730F23CB72B0
:10062C0000250D738D76CD76531E03EB430603EB3D
:10063C0086062B464FF6FF74A34202D030F81630D4
:10064C0001360C4C645D0B5501341F0A0F550BB968
:10065C004FF6FF7301350C2DECDD4FF6FF74A34202
:10066C0002D030F816300BB942F040020A70F0BCE0
:10067C00704700BF7C2600080B210023DA0142EAF8
:10068C005303DBB202781344DBB201300139F5D1EC
:10069C001846704768B108B5027862B1C2888A42C0
:1006AC000BD14078FFF7F4FE10F0010F07D00320B8
:1006BC0008BD09207047092008BD092008BD00208D
:1006CC0008BD00BF10B5044601230A4600F13001F5
:1006DC004078FFF7DFFEE8B994F82F2294F82E3219
:1006EC0043EA02231BB2104A934215D103220F494D
:1006FC0004F16600FFF738FF80B103220B4904F1C7
:10070C008200FFF731FF58B994F95830002B09DA01
:10071C00012010BD032010BD022010BD002010BD13
:10072C00012010BD002010BD55AAFFFF6426000853
:10073C00F8B503681C78303C092C05D85D783A2D47
:10074C0004D10233036002E0002400E00024002CFA
:10075C0040F03681A34B53F824500D60002D00F06F
:10076C00318116462B7873B16878FFF791FE10F043
:10077C00010F08D1002E00F0278110F0040F40F07B
:10078C0025810020F8BD00232B70E0B26870FFF7C4
:10079C006DFE10F0010F40F01B811EB110F0040F24
:1007AC0040F0188100212846FFF78CFF012815D155
:1007BC0095F8F231A3B195F8F92195F8F8311B04AD
:1007CC0043EA026395F8F74143EA042395F8F641AE
:1007DC001C4321462846FFF775FF02E0002400E089
:1007EC000024032800F0F880002840F0F78095F8EA
:1007FC003C2095F83B3043EA02231BB2B3F5007F53
:10080C0040F0EE8095F8471095F8463053EA0123F6
:10081C000DD195F8571095F856301B0443EA016337
:10082C0095F8551043EA012195F854300B43AB6110
:10083C0095F84010E97003FB01F195F83FC095F86D
:10084C003E3043EA0C2C04EB0C00286295F83D700A
:10085C00AF7095F8422095F8413043EA022EA5F886
:10086C0008E095F8442095F8433053EA02230ED162
:10087C0095F8533095F85220160446EA036695F81D
:10088C00513046EA032695F8502046EA0203CCEB99
:10089C0003035B1A4FEA1E129B1AB3FBF7F30233E6
:1008AC00EB6140F6F676B34201D8012600E0022651
:1008BC004FF6F677BB4200D90326032E0FD195F8DD
:1008CC005F7095F85E301B0443EA076395F85D7022
:1008DC0043EA072395F85C703B436B6201E00B180D
:1008EC006B6201440A44AA624FF0FF332B61002370
:1008FC002B71032E5AD1AB7295F8612095F86030AC
:10090C0043EA022222446A61012305F1300168782E
:10091C00FFF7C0FD002849D195F82F2295F82E320B
:10092C0043EA02231BB2304A93423FD195F833205D
:10093C0095F832301B0443EA026395F8312043EA00
:10094C00022395F830201343284A93422ED195F870
:10095C00172295F816321B0443EA026395F8152208
:10096C0043EA022395F814221343214A93421DD1E2
:10097C0095F81F2295F81E321B0443EA026395F882
:10098C001D2243EA022395F81C221343EB6095F8D1
:10099C001B2295F81A321B0443EA026395F81922BC
:1009AC0043EA022395F8182213432B612E70002082
:1009BC00E862104A138801339BB21380EB80F8BDB8
:1009CC000B20F8BD0C20F8BD0020F8BD0A20F8BDA6
:1009DC000320F8BD0A20F8BD0120F8BD0D20F8BD9C
:1009EC000D20F8BD4808002055AAFFFF5252614166
:1009FC0072724161440800202DE9F041C76A8F42B0
:100A0C002DD00E4604460379EBB100F130080123DA
:100A1C003A4641464078FFF759FD18BB0023237135
:100A2C00226AA36913449F420DD2E57809E0A369B9
:100A3C001F4401233A4641466078FFF747FD013DCC
:100A4C00EDB2012DF3D886B10123324604F1300109
:100A5C006078FFF71FFD58B9E662BDE8F081002011
:100A6C00BDE8F0810120BDE8F0810020BDE8F081F7
:100A7C000120BDE8F08100BF012967D9C369994203
:100A8C0066D22DE9F0410C460646076A0378022B24
:100A9C002BD0032B3ED0012B5CD101EB510807EB83
:100AAC005821FFF7A9FF002858D1C8F30803334495
:100ABC0093F8305008F1010807EB58213046FFF746
:100ACC009BFF00284ED1C8F3080806EB080393F8E7
:100ADC00300045EA002014F0010F02D00009BDE8F7
:100AEC00F081C0F30B00BDE8F08107EB1121FFF79B
:100AFC0083FF00283AD1A3B25B0003F4FF7303F128
:100B0C00300232445078334493F8303043EA0020BA
:100B1C00BDE8F08107EBD111FFF76EFF50BBA3B21C
:100B2C009B0003F4FE7303F130013144C8788A78DA
:100B3C00120442EA0062487842EA0020334493F8F7
:100B4C003030184320F07040BDE8F0810120704730
:100B5C00012070474FF0FF30BDE8F0814FF0FF30BF
:100B6C00BDE8F0814FF0FF30BDE8F0814FF0FF3071
:100B7C00BDE8F0814FF0FF30BDE8F08170B505465F
:100B8C000C46C1808168012936D00368DA6991422C
:100B9C0034D219B91A78032A00D1596A41B9E960DB
:100BAC001A8994422CD25B6A03EB14132B611AE062
:100BBC009E7836010EE02868FFF75EFF0146B0F123
:100BCC00FF3F1FD001281FD92B68DB6998421DD22B
:100BDC00A41BA4B2B442EED2E9602868FFF7DEFC95
:100BEC0000EB141028612B68303304F00F0403EB76
:100BFC0044146C61002070BD022070BD022070BDD9
:100C0C00022070BD012070BD022070BD022070BD9D
:100C1C002DE9F843012979D9C369994278D215464F
:100C2C000C460646D0F820800378022B3FD0032BCD
:100C3C0050D0012B66D101EB510908EB5921FFF77C
:100C4C00DBFE074600285ED1C9F3080214F001044C
:100C5C000AD0B31893F830102B0103F47F6301F022
:100C6C000F010B43DBB200E0EBB2324482F83030C0
:100C7C0009F101090123337108EB59213046FFF7C3
:100C8C00BBFE074600283ED1C9F3080914B1C5F3D1
:100C9C00071208E006EB090393F8303023F00F033A
:100CAC00C5F303221A43B14489F830202BE008EB3A
:100CBC001121FFF7A1FE074628BBA3B25B0003F48A
:100CCC00FF73F21882F8305030333344C5F30722E7
:100CDC005A7018E008EBD111FFF78EFE074690B959
:100CEC00A3B29B0003F4FE73F21882F83050303339
:100CFC003344C5F307225A70C5F307429A702A0E83
:100D0C00DA7000E002270123337102E0022700E0D1
:100D1C0002273846BDE8F8832DE9F0410646C7693D
:100D2C00884621B9C56855B1AF420AD90AE0FFF728
:100D3C00A3FE012836D987424AD8454602E0012550
:100D4C0000E001252C460134A74202D8012D2CD9F4
:100D5C00022421463046FFF78FFE38B1B0F1FF3F39
:100D6C0026D0012826D0AC42EDD125E06FF07042A0
:100D7C0021463046FFF74CFF08BBB8F1000F05D0F9
:100D8C00224641463046FFF743FFE0B9F460336931
:100D9C00B3F1FF3F1BD0013B33610123B3722046FB
:100DAC00BDE8F0810120BDE8F0810020BDE8F081B4
:100DBC00BDE8F081BDE8F0810020BDE8F0814FF086
:100DCC00FF30BDE8F0814FF0FF30BDE8F0812046E8
:100DDC00BDE8F081F8B5012925D904460D46C36953
:100DEC00994222D200271AE029462046FFF744FEFA
:100DFC000646F8B101281AD0B0F1FF3F19D00022F5
:100E0C0029462046FFF704FF074698B92369B3F13A
:100E1C00FF3F03D0013323610123A3723546E369FD
:100E2C009D42E1D306E0022704E0022702E00227FC
:100E3C0000E001273846F8BD2DE9F041C4880134A3
:100E4C00A4B2002C69D00369002B69D00E4605466C
:100E5C0014F00F0758D101330361C16821B903683D
:100E6C001B899C425FD24FE000688378013B13EAF8
:100E7C00141349D1FFF700FE8046012856D9B0F172
:100E8C00FF3F56D02868C369984536D3002E53D0FF
:100E9C00E968FFF741FF8046002850D0012851D067
:100EAC00B0F1FF3F51D000212868FFF7A5FD0028C5
:100EBC004ED128684FF4007200213030FFF74CFB04
:100ECC002E6841463046FFF769FBF06200260DE0C4
:100EDC0001221A7100212868FFF78EFD00283AD1F3
:100EEC002A68D36A0133D3620136F6B22B689A783A
:100EFC009642EDD3DA6A921BDA62C5F80C80414651
:100F0C002868FFF74BFB2861EC802B68303303EB30
:100F1C0047136B610020BDE8F0810420BDE8F0812F
:100F2C000420BDE8F0810420BDE8F0810220BDE87A
:100F3C00F0810120BDE8F0810420BDE8F08107209C
:100F4C00BDE8F0810220BDE8F0810120BDE8F08110
:100F5C000120BDE8F0810120BDE8F081F8B5044620
:100F6C00FF273E46042547E02068FFF745FD054670
:100F7C00002846D161690B78002B41D0CA7A02F067
:100F8C003F00E52B27D02E2B27D012F0080F01D0D5
:100F9C000F2824D10F2814D113F0400F05D04F7B0C
:100FAC0003F0BF03E28822841E46B34219D14B7B67
:100FBC009F4218D1E069FFF7FDFAB0B1013EF6B2DD
:100FCC0014E026B90846FFF757FB874219D04FF6B5
:100FDC00FF73238415E0FF2608E0FF2606E0FF26BA
:100FEC0004E0FF2602E0FF2600E0FF260021204659
:100FFC00FFF722FF054620B921690029B4D100E092
:10100C0004250DB1002323612846F8BD38B50446EC
:10101C00C588018C4FF6FF73994200D129462046B2
:10102C00FFF7ACFD0346C0B921692068FFF7E4FC6B
:10103C00034678B96269E5211170226801211171AA
:10104C00E288954206D900212046FFF7F5FE0346BB
:10105C000028E9D0042B00D10223184638BD00BF6C
:10106C00F8B504460021FFF7C7FC0546002853D10C
:10107C002378032B49D1A37A002B46D00027E762B3
:10108C0004F130064FF4007239463046FFF764FA2B
:10109C00552384F82E32AA2384F82F32522384F855
:1010AC00303084F83130612384F83230412284F8B6
:1010BC003320722184F8141284F8151284F8162245
:1010CC0084F81732236984F81832C3F3072284F8A2
:1010DC001922C3F3074284F81A221B0E84F81B3220
:1010EC00E36884F81C32C3F3072284F81D22C3F38F
:1010FC00074284F81E221B0E84F81F3201236269FA
:10110C0031466078FFF7E2F9A77200221146607849
:10111C00FFF7EEF900B101252846F8BD4FF00F306E
:10112C00704700BF002070472DE9F84380460F46FA
:10113C000C7804F0BF04631E03EB430403EB84043C
:10114C00002500E04C46124B5B5D5A1CB85CFB5C06
:10115C0043EA0020FFF7E6FF0646FE2C0FDC04F105
:10116C00010938F81400FFF7DDFF86420AD101357A
:10117C000C2D0ADC002EE5D10120BDE8F8830020FF
:10118C00BDE8F8830020BDE8F8830120BDE8F883B2
:10119C007C2600082DE9F84304460021FFF7EEFCFD
:1011AC00002862D1A36993F80B8008F001084FF076
:1011BC00FF094F4621692068FFF71EFC06460028F0
:1011CC0055D165692B78002B53D0EA7A02F03F0198
:1011DC00E52B39D012F0080F01D00F2936D10F2989
:1011EC001BD1E069002838D013F0400F06D095F8D9
:1011FC000D9003F0BF03E28822841F46BB4227D127
:10120C006B7B994526D1B8F1000F03D02946FFF727
:10121C008BFF08B3013FFFB21FE027B92846FFF749
:10122C002BFA814502D04FF6FF732384B8F1000FDF
:10123C0002D00FB3FF2710E00B22A1692846FFF75D
:10124C0093F9E0B1FF2708E0FF2706E0FF2704E051
:10125C00FF2702E0FF2700E0FF2700212046FFF7D1
:10126C00EBFD0028A6D0BDE8F883BDE8F883BDE807
:10127C00F8830420BDE8F8833046BDE8F883304697
:10128C00BDE8F883002070472DE9F04F83B0074686
:10129C008A46D1F80090C5690024A04608F10101E6
:1012AC0019F808309EB21F2E30D92F2E2ED05C2E5E
:1012BC002CD0FE2C00F30C8103F17F02D2B21E2A3B
:1012CC0003D92033DBB21C2B12D808F1020819F811
:1012DC000130A3F14002D2B23E2A04D983F080023D
:1012EC007C2A00F2F7803602B6B21E44B6B200E099
:1012FC0088467F2E06D831467A48FFF747F90028F2
:10130C0040F0EA8025F814600134C7E74944CAF874
:10131C0000101F2E02D84FF004080CE04FF000080C
:10132C0009E004F10043013B35F81330202B01D0C8
:10133C002E2B02D1013C002CF3D1002C00F0CE80DE
:10134C00002625F814600B222021B869FFF704F958
:10135C00334600E0013335F81320202AFAD02E2A28
:10136C00F8D01BB148F0030800E0013C6CB104F16B
:10137C000042013A35F812202E2AF6D14FF0080B14
:10138C004FF0000ACDF804A005E04FF0080B4FF029
:10139C00000ACDF804A003F1010935F81360002E02
:1013AC006BD0202E03D02E2E05D14C4503D048F007
:1013BC0003084B46EFE7DA4501DA4C4515D1BBF192
:1013CC000B0F02D148F0030857E04C4501D048F010
:1013DC0003084C4551DB019B9B00DBB20193234678
:1013EC004FF00B0B4FF0080AD5E77F2E08D930468B
:1013FC00FFF798FE0021FFF745FF064648F002086C
:10140C00FF2E10D90BF1FF339A4504DB48F003088B
:10141C004B46DA46BFE7BA690AF10103C6F3072166
:10142C0002F80A1023E026B131462F48FFF7AEF838
:10143C0020B148F0030853465F2618E0A6F141039B
:10144C009BB2192B05D8019B43F002030193534621
:10145C000DE0A6F161039BB2192B07D8019B43F059
:10146C0001030193203EB6B2534600E05346BA69DD
:10147C0003F1010AD6544B468DE7BB691A78E52A6D
:10148C0001D105221A70BBF1080F03D1019B9B00FF
:10149C00DBB20193019901F00C020C2A03D001F08C
:1014AC000303032B01D148F0020818F0020F0AD1F4
:1014BC00019B03F00303012B01D148F01008042A0F
:1014CC0001D148F00808BB6983F80B80002006E0C6
:1014DC00062004E0062002E0062000E0062003B00F
:1014EC00BDE8F08F682600087426000810B582B09D
:1014FC00044601910B782F2B01D05C2B01D10131CB
:10150C0001910023A360019B1B781F2B07D800219E
:10151C002046FFF733FB02460023636128E001A954
:10152C002046FFF7B1FE024610BB2046FFF732FE05
:10153C00A369DB7A03F00403DBB2024618B104287A
:10154C0016D193B114E09BB96369DA7A12F0100FDB
:10155C000DD0597D1A7D42EA0121D87E9A7E42EA4D
:10156C00002343EA0143A360D9E7052200E00522EA
:10157C00104602B010BD00BF70B582B005461646CD
:10158C001C460B22FEF7DEFF052C0AD9E30343EAC7
:10159C005404A4B233881C44A4B273880236002BC2
:1015AC00F4D1072000E00846411E1D4BA3FB042389
:1015BC00DB0803EB83067200A41A303402AA02443F
:1015CC0002F8084C9CB2002CEDD17E2202AB0B44ED
:1015DC0003F8082C00230DE002F17F04E4B21E2C6A
:1015EC0003D92032D2B21C2A03D8821E934206D0D1
:1015FC00013301338B4202DAEA5C202AECD15A1C0B
:10160C002B44072905DC02A8084410F8080C01310A
:10161C0000E0202018701346072AF0DD02B070BDE0
:10162C00CDCCCCCC2DE9F04184B005468769D0F8FF
:10163C001C800C22394601A8FEF784FF9DF80F3060
:10164C0013F0010F1ED00023FB72EB6101240CE0A0
:10165C002346424601A93846FFF78EFF2846FFF77E
:10166C0099FD064618B90134A4B2632CF0D9642C48
:10167C0000F08580042E40F084809DF80F30FB72C2
:10168C00C5F81C809DF80F3013F0020F04D1012611
:10169C000FE001339BB200E0002338F81320002A3E
:1016AC00F7D119333B4E86FB0326DB17C3EBA6069B
:1016BC00B6B200212846FFF761FA002863D1002753
:1016CC003C4629692868FFF797F9034698B96A6977
:1016DC001278E52A00D032B904B9EF880134A4B2EB
:1016EC00A64201D107E0002401212846FFF7A4FB04
:1016FC0003460028E5D033BB012E24D939462846B1
:10170C00FFF73CFA0346F0B9A869FEF7B5FF0746A8
:10171C00741EA4B229692868FFF76EF9034690B9C4
:10172C003B46E2B26969E869FEF776FF2B68012255
:10173C001A7100212846FFF77FFB034618B9013CBC
:10174C00A4B2002CE6D1FBB929692868FFF754F93B
:10175C000646D8B96C69202200212046FEF7FCFE13
:10176C000B22A9692046FEF7EDFEAB69DB7A03F08C
:10177C00180323732B6801221A71304606E00720E8
:10178C0004E0304602E001E01846FFE704B0BDE893
:10179C00F08100BF4FECC44E034660B9074A52F8C3
:1017AC00202002B1107009B100220A70034A42F8DD
:1017BC002310002070470B20704700BF4808002002
:1017CC002DE9F041ADF50E7D05460191144600233F
:1017DC00036002F01F0702F01E0285A901A8FEF7A4
:1017EC00A7FF002840F0968082AB8B9302AB8C93C2
:1017FC00019985A8FFF77AFE14F01C0F56D058B14A
:10180C00042802D185A8FFF70DFF002840F0908036
:10181C0047F008078A9E33E014F0040F7BD18A9EB0
:10182C00002E7AD0F37A13F0110F78D114F0080F40
:10183C0026D0747D337D43EA0424F27EB37E43EAE2
:10184C000222002333757375B376F376337773778F
:10185C00B377F377859801230371D0F82C8052EA83
:10186C00044407D02146FFF7B5FA002859D1621E6F
:10187C00859BDA6041468598FFF7BEF8002851D168
:10188C0017F0080F21D00023F372FFF747FCB07359
:10189C00C0F30723F373C0F307433374000E707463
:1018AC000122859B1A7147F020070EE000283FD1DA
:1018BC008A9E002E37D0F37A13F0100F35D114F026
:1018CC00020F02D013F0010F31D18599CB6AEB6175
:1018DC008A9B2B62AF71707D337D43EA0020F37ECF
:1018EC00B27E42EA032343EA00432B61F27FB37FCB
:1018FC001B0443EA0263727F43EA0223327F1343E1
:10190C00EB600020A860FF23EB71A8612960CB88F5
:10191C00AB800DE00CE008200AE0072008E007206F
:10192C0006E005E004E0042002E0042000E00720CB
:10193C000DF50E7DBDE8F0812DE9F84F0446884683
:10194C0015461F4600233B6081880068FEF7A2FE07
:10195C00002840F0C880A37913F0800F40F0C580B8
:10196C0013F0010F00F0C480E668A368F61AAE42CB
:10197C00C0F0B3802E46B0E0A368C3F30802002A7F
:10198C0040F09480E1792068827891421BD30BB9A6
:10199C00206902E06169FFF76FF8012806D8A37986
:1019AC0063F07F03A3710220BDE8F88FB0F1FF3F15
:1019BC0006D1A37963F07F03A3710120BDE8F88FF2
:1019CC0060610023E371D4F8009061694846FEF72A
:1019DC00E5FD054630B9A37963F07F03A3710220BE
:1019EC00BDE8F88FE3791D445FEA562A2FD003EB4C
:1019FC000A0299F802108A4201D9C3EB010A5FFA74
:101A0C008AFB5B462A46414699F80100FEF742FDE7
:101A1C0030B1A37963F07F03A3710120BDE8F88F87
:101A2C00A37913F0400F0BD0A069401B824507D956
:101A3C004FF4007204F1240108EB4020FEF782FD04
:101A4C00E3799B4484F807B04FEA4A253DE0A3793B
:101A5C0013F0400F13D00123A26904F1240199F86B
:101A6C000100FEF733FD30B1A37963F07F03A3715E
:101A7C000120BDE8F88FA37923F04003A371A3697B
:101A8C009D420FD0214651F8240B01232A46407861
:101A9C00FEF700FD30B1A37963F07F03A371012041
:101AAC00BDE8F88FA561E3790133E371A168C1F357
:101ABC000801C1F50075AE4200D2354620312144F3
:101ACC002A4604314046FEF73DFDA844A3682B444A
:101ADC00A3603B682B443B60761B002E7FF44CAF1D
:101AEC000020BDE8F88FBDE8F88F0220BDE8F88F24
:101AFC000720BDE8F88F00BF38B504468188006820
:101B0C00FEF7C8FD002848D1A27912F0200F45D06D
:101B1C0012F0400F0DD0214651F8240B0123A2697D
:101B2C004078FEF7D3FC002839D1A37923F0400389
:101B3C00A371E1692068FEF75FFF002831D1256AA7
:101B4C00EB7A43F02003EB72237B2B77A3891B0AE0
:101B5C006B77A37BAB77E37BEB77237CAB76238A2A
:101B6C001B0AEB76A37C2B75638A1B0A6B75FFF73C
:101B7C00D5FAA875C0F30723EB75C0F307432B7692
:101B8C00000E6876A37923F02003A3712368012249
:101B9C001A712068FFF764FA38BD38BD38BD0120D2
:101BAC0038BD38BD10B50446FFF7A6FF034608B98B
:101BBC0000222260184610BD10B5ADF5187D0190BD
:101BCC0001228FA901A8FEF7B3FD002842D183ABF7
:101BDC00959303AB969301998FA8FFF787FC002888
:101BEC0039D1949B002B37D0DA7A12F0010F35D112
:101BFC005C7D197D41EA0421DC7E9B7E43EA042353
:101C0C0043EA014412F0100F14D0012C28D92422DD
:101C1C008FA986A8FEF796FC8894002186A8FEF76B
:101C2C00ADFFF8B986A8FFF799F9034600B9072369
:101C3C00042B18D18FA8FFF7E9F90346A8B924B1F2
:101C4C0021468F98FFF7C6F803467BB98F98FFF7AC
:101C5C0007FA0CE00BE00AE0062008E0072006E09B
:101C6C00022004E003E0184601E000E018460DF500
:101C7C00187D10BD00B583B00121102000F096FB3B
:101C8C004FF40043ADF8043010238DF8073001A950
:101C9C00024800F03BFB03B05DF804FB0010014070
:101CAC0008B500F02DFC08BD08B5382000F018FC74
:101CBC0008BD00BF08B5002000F012FC08BD00BF35
:101CCC0030B583B00121082000F070FB4FF4805533
:101CDC00ADF8045010238DF8073003238DF806302F
:101CEC00064C01A9204600F011FB2946204600F0C5
:101CFC005BFB00F02FFC03B030BD00BF000C0140BB
:101D0C0008B54FF48052034B1A61FF20FFF7C8FF50
:101D1C0008BD00BF000C014010B50024FF20FFF7E8
:101D2C00BFFFFF2805D00134034B9C42F6D901209C
:101D3C0010BD002010BD00BFFEFFFF0008B54FF422
:101D4C008052054B5A61FFF7E7FF034610B1FFF7CE
:101D5C00D7FF0123184608BD000C014038B50546D5
:101D6C004FF6FF7401E0013CA4B2FF20FFF798FF8F
:101D7C00A84201D0002CF6D10CB9FF2038BD0020B0
:101D8C0038BD00BFF8B506460D46FE20FFF7E6FF4E
:101D9C00074630B110E0FF2000F0B2FB06F8010B53
:101DAC0025466B1E9CB2002DF5D1FF20FFF778FF66
:101DBC00FF20FFF775FF00E001273846F8BD00BF94
:101DCC0070B505460C46FFF7A7FFF8B90646204646
:101DDC00FFF766FFFD2C06D119E0285D00F090FBA3
:101DEC000134A4B200E00024B4F5007FF5D3FF2049
:101DFC00FFF756FFFF20FFF753FFFF20FFF750FFC1
:101E0C0000F01F00052802D0022600E00126304613
:101E1C0070BD00BF70B505460C461646FFF770FF47
:101E2C00FFF78CFF38BB45F04000FFF739FF200E61
:101E3C00FFF736FFC4F30740FFF732FFC4F3072068
:101E4C00FFF72EFFE0B2FFF72BFF3046FFF728FF1E
:101E5C000C2D02D1FF20FFF723FF1F2400E01C46AE
:101E6C00FF20FFF71DFF10F0800F05D0631EDBB2C3
:101E7C00002CF4D170BDFF2070BD00BF38B50546F5
:101E8C00012200210920FFF7C5FF044620B91021CB
:101E9C002846FFF777FF0446FFF732FF0CB101200D
:101EAC0038BD002038BD00BF00B585B06846FFF7CF
:101EBC00E5FF98BB9DF8003003F0C003402B09D11F
:101ECC009DF809309DF8080003EB0020013080B22A
:101EDC00800224E09DF805009DF80A209DF8093049
:101EEC005B0000F00F0000EBD21003F00603184467
:101EFC000230C2B29DF808109DF807009DF806301C
:101F0C009B02800000EB911003F4406318440130F5
:101F1C0083B2A2F1090003FA00F000E0002005B042
:101F2C005DF804FB30B583B0FFF7CAFEFFF7BCFECB
:101F3C00002404E0FF20FFF7B3FE0134A4B2092C07
:101F4C00F8D9142400E01C46952200210846FFF71E
:101F5C0061FF0546012803D0631E9BB2002CF2D111
:101F6C000022574B1A70012D40F09A8087224FF4B3
:101F7C00D5710820FFF74EFF01284ED109E0FF2054
:101F8C00FFF78EFE02AB234403F8040C0134A4B219
:101F9C0000E00024032CF2D99DF80630012B7FD1F0
:101FAC009DF80730AA2B7BD14FF6FE7400E01C463F
:101FBC00012200213720FFF72DFF01224FF0804135
:101FCC002920FFF727FF054620B1631E9BB2002C8A
:101FDC00EDD11C46002C63D0012200213A20FFF7E2
:101FEC0019FF50B15CE0FF20FFF75AFE02AB23440F
:101FFC0003F8040C0134A4B200E00024032CF2D941
:10200C009DF8043013F0400F03D006222C4B1A70AD
:10201C0046E004222A4B1A7042E0012200213720AC
:10202C00FFF7F8FE012200212920FFF7F3FE01281B
:10203C0018D80222224B1A704FF6FE7400E01C4690
:10204C00012200213720FFF7E5FE01220021292083
:10205C00FFF7E0FE0546C0B1631E9BB2002CEED12B
:10206C001C4612E00122164B1A704FF6FE7400E06B
:10207C001C46012200211046FFF7CCFE054620B17C
:10208C00631E9BB2002CF3D11C4634B101224FF4D9
:10209C0000711020FFF7BEFE10B10022084B1A7021
:1020AC00FFF72EFEFFF706FE054B1B7813B91DB983
:1020BC00AA2002E0002000E0284603B030BD00BF9B
:1020CC004C08002070B505461446174B1B78062BA0
:1020DC0000D04902012C0CD101221120FFF79AFEED
:1020EC000646E8B94FF400712846FFF74BFE06464A
:1020FC0016E001221220FFF78DFE4FF400712846E6
:10210C00FFF740FE064605F50075621E12F0FF044F
:10211C0001D00028F1D0012200210C20FFF77AFE1B
:10212C00FFF7EEFD304670BD4C08002070B505463B
:10213C000E4614461D4B1B78062B00D04E02012C6C
:10214C000CD1012231461820FFF764FE064648BB2D
:10215C00FE212846FFF734FE064623E0012B09D06A
:10216C00012200213720FFF755FE012221461720BE
:10217C00FFF750FE012231461920FFF74BFE0646B1
:10218C0080B9FC212846FFF71BFE05F50075621E81
:10219C0012F0FF0401D00028F3D0FD210020FFF73E
:1021AC000FFE0646FFF7ACFD304670BD4C08002014
:1021BC0040F0BF6040F40030014BD860704700BF66
:1021CC0000ED00E0042805D1054A136843F0040330
:1021DC0013607047024A136823F0040313607047BE
:1021EC0010E000E0034B044A5A6002F188325A6056
:1021FC00704700BF0020024023016745024A136963
:10220C0043F0800313617047002002400B4BDB68E6
:10221C0013F0010F0BD1094BDB6813F0040F08D13D
:10222C00064BDB6813F0100F05D00320704701201C
:10223C007047022070470420704700BF0020024006
:10224C0010B50446FFF7E2FF02E0FFF7DFFF013CA9
:10225C00012801D1002CF8D104B9052010BD00BF14
:10226C0038B505464FF43020FFF7EAFF042813D1A8
:10227C000A4C236943F0020323616561236943F02F
:10228C00400323614FF43020FFF7DAFF236923F07A
:10229C000203DB04DB0C236138BD00BF00200240CD
:1022AC0030B583B005460C46002301934FF4005023
:1022BC00FFF7C6FF042824D1134A136943F0010326
:1022CC001361A3B22B804FF40050FFF7B9FF042821
:1022DC0010D102350195019B240C1C804FF4005049
:1022EC00FFF7AEFF084A136923F00103DB04DB0C94
:1022FC00136106E0044A136923F00103DB04DB0CD1
:10230C00136103B030BD00BF00200240F0B4CB78A5
:10231C0003F00F02154613F0100F01D08D78154302
:10232C000B78E3B10668002316E001229A400C8872
:10233C0032EA04040FD19C000F27A74026EA0706B7
:10234C0005FA04F42643CC78282C01D1426102E032
:10235C00482C00D102610133072BE6D906600B88AB
:10236C00FF2B1ED94668002318E003F10804012254
:10237C00A2400C8832EA04040FD19C000F27A7401E
:10238C0026EA070605FA04F42643CC78282C00D15B
:10239C004261CC78482C00D102610133072BE4D97F
:1023AC004660F0BC704700BF0161704721B1054B1E
:1023BC009A69104398617047024A936923EA0000B6
:1023CC00906170470010024021B1054BDA6910434F
:1023DC00D8617047024AD36923EA0000D061704784
:1023EC00001002402DE9F041038803F441570D8899
:1023FC004E888C88B1F806800A89B1F80AC08B899E
:10240C00B1F80EE03543254348EA050414434CEA81
:10241C0004021A434EEA02033B430380838B9BB2B4
:10242C0023F400639BB283830B8A0382BDE8F081A3
:10243C0029B103889BB243F04003038070470388A3
:10244C009BB223F040039BB203807047818170479D
:10245C00808980B2704700BF0389194201D00120E6
:10246C0070470020704700BF08B56FF00400FFF7FD
:10247C00A9FE084B1B68084AA2FB0323C3F347536E
:10248C00064A1370C3EB431203EB8203DA00044BCE
:10249C001A8008BD0000002083DE1B434D0800207D
:1024AC004E0800200C4B1B8800FB03F00B4B5860B4
:1024BC0000229A601A6842F001021A60074B1B68EE
:1024CC0003F00113012BF9D0044B1A6822F001021E
:1024DC001A6000229A6070474E08002010E000E05D
:1024EC0010B505498881054C2046FFF77BFF01217B
:1024FC002046FFF79DFF10BD800A002000380040E9
:10250C0038B50546002403E00134E4B2C82C1AD8CF
:10251C0002210F48FFF7A0FF0028F5D029460C48F0
:10252C00FFF794FF002403E00134E4B2C82C0CD86C
:10253C0001210748FFF790FF0028F5D00448FFF76A
:10254C0087FFC0B238BD002038BD002038BD00BFA9
:10255C000038004030B583B001214FF48040FFF7C4
:10256C0033FF01210820FFF721FF4FF46045ADF840
:10257C00045018238DF8073003238DF80630154CC2
:10258C0001A92046FFF7C2FE29462046FFF70CFFA3
:10259C00114900230B804FF482724A808B800222F7
:1025AC00CA8001250D814FF400724A8138228A813C
:1025BC00CB8107230B82A4F554442046FFF712FF6E
:1025CC0029462046FFF734FFFF20FFF799FF03B0A1
:1025DC0030BD00BF000C0140800A002008B54FF44C
:1025EC00A060FFF7E5FDFFF73FFFFFF743FB4FF45C
:1025FC000042054B1A61FDF711FE08B9FDF7C2FD4B
:10260C00FDF7ACFD002008BD00100140704700BF75
:10261C00FEE700BFFEE700BFFEE700BFFEE700BF1E
:10262C00704700BF704700BF704700BF704700BFC6
:10263C00F8B500BFF8BC08BC9E467047F8B500BFA3
:08264C00F8BC08BC9E46704773
:10265400303A2F33442D474C43442E62696E0000B8
:1026640046415400222A3A3C3E3F7C7F0000000051
:102674002B2C3B5B3D5D000001030507090E101286
:082684001416181C1E000000D2
:04268C003101000810
:042690000D01000830
:0426940000A24A0452
:102698000000000000000000000000000000000032
:1026A8000000000000000000000000000000000022
:1026B8000000000000000000000000000000000012
:1026C8000000000000000000000000000000000002
:0400000508000315D7
:00000001FF
